:1000000045C0000058C0000056C0000054C00000A9
:1000100052C0000050C000004EC000004CC00000A4
:100020004AC0000048C0000046C0000044C00000B4
:1000300042C0000040C000003EC000003CC00000C4
:100040003AC0000038C0000036C0000034C00000D4
:1000500032C0000030C000002EC000002CC00000E4
:100060002AC0000028C0000026C0000024C00000F4
:1000700022C0000020C000001EC000001CC0000004
:100080001AC0000018C0000016C0000011241FBED6
:10009000CFEFD0E1DEBFCDBF11E0A0E0B1E0EAE7F5
:1000A000F2E000E00BBF02C007900D92A231B10751
:1000B000D9F702D0E0C0A4CF04D08BE091E0A4D067
:1000C000FFCFA5E9B0E02C91E0E0F1E0908130E4D1
:1000D000939FC0011124822B8C932C91918130E14C
:1000E000939FC0011124822B8C932C919281892F94
:1000F00090E0880F991F880F991F880F991F822BF6
:100100008C932AB19481892F90E0880F991F880FD2
:10011000991F880F991F822B8AB92AB1958130E1E6
:10012000939FC0011124822B8AB98681882319F0FC
:10013000813031F146C08BB18D7F8BB98091070141
:1001400090910801A0910901B0910A01880F991FAF
:10015000AA1FBB1F880F991FAA1FBB1F9C01AD01BF
:10016000220F331F441F551F220F331F441F551FDB
:1001700060E074E284EF90E05CD02150310923C04C
:100180008BB182608BB98091070190910801A09199
:100190000901B0910A01880F991FAA1FBB1F880F80
:1001A000991FAA1FBB1F9C01AD01220F331F441FC3
:1001B000551F60E074E284EF90E03BD0215031099C
:1001C00002C020E030E03093900029B99091030103
:1001D000943061F4E5E9F0E0808182608083808181
:1001E000846080838AB184608AB90895E5E9F0E08B
:1001F0002081892F90E0880F991F822B808308959A
:100200005D9BFECF8CB90895CF93DF93EC010BC0BB
:10021000F7DF21962FEF80E792E021508040904059
:10022000E1F700C0000088818111F2CFDF91CF910A
:100230000895A1E21A2EAA1BBB1BFD010DC0AA1F27
:10024000BB1FEE1FFF1FA217B307E407F50720F03F
:10025000A21BB30BE40BF50B661F771F881F991FBA
:100260001A9469F760957095809590959B01AC0103
:0A027000BD01CF010895F894FFCFFF
:10027A00000000030101008025000047616D616CE8
:02028A00000072
:00000001FF
