S01E000047726164756174696F6E456D626564646564536964652E7372656369
S113000045C00000A5C00000CEC00000F7C000003D
S113001020C1000049C1000072C100009BC1000062
S1130020C4C1000050C000004EC000004CC000001D
S11300304AC0000048C0000046C0000044C00000A0
S113004042C0000040C000003EC000003CC00000B0
S11300503AC0000038C0000036C0000034C00000C0
S113006032C0000030C000002EC000002CC00000D0
S11300702AC0000028C0000027C0000024C00000DF
S113008022C0000020C000001EC0000011241FBEBA
S1130090CFEFD0E1DEBFCDBF11E0A0E0B1E0E4E0FE
S11300A0F4E000E00BBF02C007900D92A030B1074E
S11300B0D9F723E0A0E0B1E001C01D92A737B20751
S11300C0E1F745D09DC19CCF1F920F920FB60F92BE
S11300D011240BB60F922F933F938F939F93EF931B
S11300E0FF9380919C00809345038A3019F08D30F2
S11300F059F012C080916E0390916F030297D0F073
S113010081E08093120116C0E0916E03F0916F03B9
S1130110E95DFE4F10820EC020916E0330916F0393
S1130120F901E95DFE4F80832F5F3F4F30936F03EA
S113013020936E03FF91EF919F918F913F912F91A7
S11301400F900BBE0F900FBE0F901F901895FFCF0E
S11301501F920F920FB60F9211240BB60F922F938A
S11301603F934F935F936F937F938F939F93AF933B
S1130170BF93EF93FF93E0910E01F0910F01099566
S1130180FF91EF91BF91AF919F918F917F916F916B
S11301905F914F913F912F910F900BBE0F900FBE27
S11301A00F901F9018951F920F920FB60F92112463
S11301B00BB60F922F933F934F935F936F937F935D
S11301C08F939F93AF93BF93EF93FF93E0910C01B1
S11301D0F0910D010995FF91EF91BF91AF919F911E
S11301E08F917F916F915F914F913F912F910F90DC
S11301F00BBE0F900FBE0F901F9018951F920F9279
S11302000FB60F9211240BB60F922F933F934F9377
S11302105F936F937F938F939F93AF93BF93EF936A
S1130220FF93E0910A01F0910B010995FF91EF9181
S1130230BF91AF919F918F917F916F915F914F91FA
S11302403F912F910F900BBE0F900FBE0F901F90F8
S113025018951F920F920FB60F9211240BB60F929E
S11302602F933F934F935F936F937F938F939F93BA
S1130270AF93BF93EF93FF93E0910801F0910901CD
S11302800995FF91EF91BF91AF919F918F917F91CC
S11302906F915F914F913F912F910F900BBE0F90F3
S11302A00FBE0F901F9018951F920F920FB60F92CA
S11302B011240BB60F922F933F934F935F936F9339
S11302C07F938F939F93AF93BF93EF93FF93E091AB
S11302D00601F09107010995FF91EF91BF91AF914C
S11302E09F918F917F916F915F914F913F912F914A
S11302F00F900BBE0F900FBE0F901F9018951F927A
S11303000F920FB60F9211240BB60F922F933F93B7
S11303104F935F936F937F938F939F93AF93BF9309
S1130320EF93FF93E0910401F09105010995FF918A
S1130330EF91BF91AF919F918F917F916F915F9159
S11303404F913F912F910F900BBE0F900FBE0F90C6
S11303501F9018951F920F920FB60F9211240BB68F
S11303600F922F933F934F935F936F937F938F934A
S11303709F93AF93BF93EF93FF93E0910201F091AA
S113038003010995FF91EF91BF91AF919F918F91D7
S11303907F916F915F914F913F912F910F900BBE81
S11303A00F900FBE0F901F9018951F920F920FB6CB
S11303B00F9211240BB60F922F933F934F935F9399
S11303C06F937F938F939F93AF93BF93EF93FF9319
S11303D0E0910001F09101010995FF91EF91BF9126
S11303E0AF919F918F917F916F915F914F913F91C9
S11303F02F910F900BBE0F900FBE0F901F9018956A
S1070400F894FFCF9A
S9030000FC
