:1000000061C0000074C0000072C0000070C0000039
:100010006EC000006CC000006AC0000068C0000034
:1000200066C0000064C0000062C0000060C0000044
:100030005EC000005CC000005AC0000058C0000054
:1000400056C0000054C0000052C0000050C0000064
:100050004EC000004CC000004AC0000048C0000074
:1000600046C0000044C0000042C0000040C0000084
:100070003EC000003CC000003AC0000038C0000094
:1000800036C0000034C0000032C000009200A00062
:10009000AE00BC00CA00D800E80002010F011C013C
:1000A0002901360143015201760184019201A00128
:1000B000AE01BC01CC01E601F30100020D021A02FF
:1000C0002702360211241FBECFEFD0E1DEBFCDBF25
:1000D00011E0A0E0B1E0EAEFF5E000E00BBF02C004
:1000E00007900D92AE30B107D9F702D084C288CF05
:1000F000CCD187E091E061D2FFCFE82FE695E6957D
:10010000E6958770662321F0613009F471C0089587
:100110004E2F50E04730510508F0D2C0FA01EA5B9B
:10012000FF4F60C24BB321E030E0B90102C0660F5F
:10013000771F8A95E2F7CB01809584238BBB0895C6
:1001400048B321E030E0B90102C0660F771F8A95FD
:10015000E2F7CB018095842388BB089545B321E065
:1001600030E0B90102C0660F771F8A95E2F7CB0134
:100170008095842385BB089542B321E030E0B90126
:1001800002C0660F771F8A95E2F7CB018095842322
:1001900082BB089543B121E030E0B90102C0660F8F
:1001A000771F8A95E2F7CB018095842383B9089560
:1001B000E2E6F0E0408121E030E0B90102C0660FE4
:1001C000771F8A95E2F7CB01809584238083089579
:1001D000E5E6F0E0408121E030E0B90102C0660FC1
:1001E000771F8A95E2F7CB01809584238083089559
:1001F0004E2F50E04730510508F062C0FA01E35B32
:10020000FF4FF0C14BB321E030E0B90102C0660FEF
:10021000771F8A95E2F7CB01842B8BBB089548B3F7
:1002200021E030E0B90102C0660F771F8A95E2F73E
:10023000CB01842B88BB089545B321E030E0B901A0
:1002400002C0660F771F8A95E2F7CB01842B85BB2E
:10025000089542B321E030E0B90102C0660F771F74
:100260008A95E2F7CB01842B82BB089543B121E04C
:1002700030E0B90102C0660F771F8A95E2F7CB0123
:10028000842B83B90895E2E6F0E0408121E030E07C
:10029000B90102C0660F771F8A95E2F7CB01842B64
:1002A00080830895E5E6F0E0408121E030E0B90187
:1002B00002C0660F771F8A95E2F7CB01842B8083FB
:1002C0000895E82FE695E695E6958770662321F078
:1002D000613009F471C008954E2F50E04730510548
:1002E00008F0D2C0FA01EC5AFF4F7CC14AB321E0BA
:1002F00030E0B90102C0660F771F8A95E2F7CB01A3
:10030000809584238ABB089547B321E030E0B9018A
:1003100002C0660F771F8A95E2F7CB018095842390
:1003200087BB089544B321E030E0B90102C0660FF5
:10033000771F8A95E2F7CB018095842384BB0895CB
:1003400041B321E030E0B90102C0660F771F8A9502
:10035000E2F7CB018095842381BB089542B121E06F
:1003600030E0B90102C0660F771F8A95E2F7CB0132
:100370008095842382B90895E1E6F0E0408121E090
:1003800030E0B90102C0660F771F8A95E2F7CB0112
:100390008095842380830895E4E6F0E0408121E0A5
:1003A00030E0B90102C0660F771F8A95E2F7CB01F2
:1003B00080958423808308954E2F50E04730510567
:1003C00008F062C0FA01E55AFF4F0CC14AB321E0C0
:1003D00030E0B90102C0660F771F8A95E2F7CB01C2
:1003E000842B8ABB089547B321E030E0B90102C0F5
:1003F000660F771F8A95E2F7CB01842B87BB0895A0
:1004000044B321E030E0B90102C0660F771F8A953E
:10041000E2F7CB01842B84BB089541B321E030E0A7
:10042000B90102C0660F771F8A95E2F7CB01842BD2
:1004300081BB089542B121E030E0B90102C0660FEE
:10044000771F8A95E2F7CB01842B82B90895E1E604
:10045000F0E0408121E030E0B90102C0660F771F73
:100460008A95E2F7CB01842B80830895E4E6F0E0DF
:10047000408121E030E0B90102C0660F771F8A9504
:10048000E2F7CB01842B80830895809100018823BB
:1004900009F447C0813009F084C061E08AE011DFCF
:1004A00061E089E00EDF61E088E00BDF60E08BE077
:1004B00008DF61E088E021DE2DB1E0E0F1E090812D
:1004C00030E1939FC0011124822B8DB99EB18281AE
:1004D000892B8EB99DB18181892B8DB92DB19381E5
:1004E00030E2939FC0011124822B8DB92DB19481EC
:1004F00030E8939FC0011124822B8DB92DB19681D4
:10050000892F90E0880F991F880F991F822B8DB932
:100510002DB1958130E4939FC0011124822B8DB9B8
:10052000089560E08AE0CDDE60E089E0CADE60E048
:1005300088E0C7DE61E08BE0C4DE2DB1E0E0F1E0F1
:10054000908130E1939FC0011124822B8DB99EB11F
:100550008281892B8EB99DB18181892B8DB92DB175
:10056000938130E2939FC0011124822B8DB92DB16C
:10057000948130E8939FC0011124822B8DB92DB155
:100580009681892F90E0880F991F880F991F822BE1
:100590008DB92DB1958130E4939FC0011124822B38
:1005A0008DB90895CF93C82F60E088E0A6DDCFB95C
:1005B000779BFECF8FB1CF910895CF93DF93EC015E
:1005C0000BC0F0DF2FEF82E597E021508040904094
:1005D000E1F700C00000219688818111F2CFDF9100
:1005E000CF910895EE0FFF1F0024001C0BBE079053
:0A05F000F691E02D0994F894FFCF76
:0E05FA000101000000010047616D616C00000E
:00000001FF
