:1000000045C0000062C000008BC00000B4C000000A
:10001000DDC0000006C100002FC1000058C1000073
:1000200081C1000050C000004EC000004CC0000064
:100030004AC0000048C0000046C0000044C00000A4
:1000400042C0000040C000003EC000003CC00000B4
:100050003AC0000038C0000036C0000034C00000C4
:1000600032C0000030C000002EC000002CC00000D4
:100070002AC0000028C0000026C0000024C00000E4
:1000800022C0000020C000001EC0000011241FBEBE
:10009000CFEFD0E1DEBFCDBF11E0A0E0B1E0EEE7F1
:1000A000F3E000E00BBF02C007900D92A030B10753
:1000B000D9F721E0A0E0B1E001C01D92A031B20764
:1000C000E1F702D05AC19CCFFFCF1F920F920FB61B
:1000D0000F9211240BB60F922F933F934F935F9380
:1000E0006F937F938F939F93AF93BF93EF93FF9300
:1000F000E0910E01F0910F010995FF91EF91BF91F1
:10010000AF919F918F917F916F915F914F913F91AF
:100110002F910F900BBE0F900FBE0F901F90189550
:100120001F920F920FB60F9211240BB60F922F93BE
:100130003F934F935F936F937F938F939F93AF936F
:10014000BF93EF93FF93E0910C01F0910D0109959E
:10015000FF91EF91BF91AF919F918F917F916F919F
:100160005F914F913F912F910F900BBE0F900FBE5B
:100170000F901F9018951F920F920FB60F92112497
:100180000BB60F922F933F934F935F936F937F9391
:100190008F939F93AF93BF93EF93FF93E0910A01E7
:1001A000F0910B010995FF91EF91BF91AF919F9154
:1001B0008F917F916F915F914F913F912F910F9010
:1001C0000BBE0F900FBE0F901F9018951F920F92AD
:1001D0000FB60F9211240BB60F922F933F934F93AC
:1001E0005F936F937F938F939F93AF93BF93EF939F
:1001F000FF93E0910801F09109010995FF91EF91BA
:10020000BF91AF919F918F917F916F915F914F912E
:100210003F912F910F900BBE0F900FBE0F901F902C
:1002200018951F920F920FB60F9211240BB60F92D2
:100230002F933F934F935F936F937F938F939F93EE
:10024000AF93BF93EF93FF93E0910601F091070105
:100250000995FF91EF91BF91AF919F918F917F9100
:100260006F915F914F913F912F910F900BBE0F9027
:100270000FBE0F901F9018951F920F920FB60F92FE
:1002800011240BB60F922F933F934F935F936F936D
:100290007F938F939F93AF93BF93EF93FF93E091DF
:1002A0000401F09105010995FF91EF91BF91AF9184
:1002B0009F918F917F916F915F914F913F912F917E
:1002C0000F900BBE0F900FBE0F901F9018951F92AE
:1002D0000F920FB60F9211240BB60F922F933F93EC
:1002E0004F935F936F937F938F939F93AF93BF933E
:1002F000EF93FF93E0910201F09103010995FF91C3
:10030000EF91BF91AF919F918F917F916F915F918D
:100310004F913F912F910F900BBE0F900FBE0F90FA
:100320001F9018951F920F920FB60F9211240BB6C3
:100330000F922F933F934F935F936F937F938F937E
:100340009F93AF93BF93EF93FF93E0910001F091E0
:1003500001010995FF91EF91BF91AF919F918F910D
:100360007F916F915F914F913F912F910F900BBEB5
:0E0370000F900FBE0F901F901895F894FFCFBE
:00000001FF
