:1000000061C00000B8C40000E1C400000AC50000DF
:1000100033C500005CC5000085C50000AEC500000A
:10002000D7C500006CC000006AC0000068C00000B6
:1000300066C0000064C0000062C0000060C0000034
:100040005EC000005CC000005AC0000058C0000044
:1000500056C0000054C0000052C0000050C0000054
:100060004EC000004CC000004AC0000048C0000064
:1000700046C0000044C0000043C0000040C0000073
:100080003EC000003CC000003AC000000803160358
:100090002403320340034E035E0378038503920377
:1000A0009F03AC03B903C803EC03FA030804160466
:1000B0002404320442045C0469047604830490043A
:1000C0009D04AC0411241FBECFEFD0E1DEBFCDBF35
:1000D00011E0A0E0B1E0E8E4FFE000E00BBF02C007
:1000E00007900D92A431B107D9F723E0A4E1B1E064
:1000F00001C01D92AE39B207E1F7FBD123C780CF13
:100100001F920F920FB60F9211240BB60F922F93DE
:100110003F938F939F93EF93FF9380919C008093E5
:100120005B038A3019F08D3059F012C0809184033E
:10013000909185030297D0F081E08093280116C04A
:10014000E0918403F0918503E35CFE4F10820EC0C2
:100150002091840330918503F901E35CFE4F808395
:100160002F5F3F4F3093850320938403FF91EF91DE
:100170009F918F913F912F910F900BBE0F900FBECB
:100180000F901F901895CF93DF93C82FD62F61E063
:1001900088E0E1D58C2F90E0880F991F8E77D0D51D
:1001A0008D2FCED560E088E0D6D5DF91CF91089530
:1001B000CF93C82F61E088E0CED58C2F90E0880FD8
:1001C000991F8E778068BCD580E0BAD5C82F60E0D3
:1001D00088E0C1D58C2FCF9108956FE081E0D3CF17
:1001E0000895FBDF6DE88AE2CEDF6EE38BE2CBDFC2
:1001F0006EE18CE2C8DF60E08DE2C5DF60E485E19E
:10020000C2DF6DE381E1BFDF84E1D2DF982F93701D
:1002100031F4682F636084E1B6DF84E1C9CF0895CB
:100220004F925F926F927F928F929F92AF92BF9206
:10023000CF92DF92EF92FF920F931F93CF93DF93B2
:10024000D82F7B01C42F59018C3029F08E3061F0FA
:10025000912C812C10C00F2EF0E39F2EF02D0F2E2D
:10026000F7E78F2EF02D07C06894992494F80F2E8D
:10027000F2E18F2EF02D84E09BDF682F6F7784E012
:1002800082DF8AE095DF682F60688AE07CDF60E0CB
:1002900081E079DF412C512C32010BC0F701E40DD4
:1002A000F51D608189E06FDF8FEF481A580A680AF0
:1002B000780A8C2F90E0A0E0B0E0481659066A0654
:1002C0007B0660F36D2F81E05EDFDC3031F48DE082
:1002D0006FDF682F60688DE056DF0F2EF0EDCF2EB8
:1002E000F7E0DF2EE12CF12CF02D84E061DFC82F48
:1002F000E1E0CE1AD108E108F10829F080FD03C041
:10030000892D8C2391F38DE053DF682F6F778DE07B
:100310003ADFCD28CE28CF2809F45CC086E048DF3C
:100320008B7109F059C0C821C0FD02C0C1E001C0F5
:10033000C2E0DC3009F051C08AE03ADFD82F8CE00F
:1003400037DF282F2770A9F08D2F90E00197880FB5
:10035000991F880F991F880F991F820F911D092ED1
:10036000000CAA0BBB0BF80180839183A283B3839B
:1003700011C08D2F90E0880F991F880F991F880F4B
:10038000991F092E000CAA0BBB0BF80180839183E7
:10039000A283B383D11101C0D1E0D13108F0D0E103
:1003A000C12CD12C76010CC085010C0D1D1D89E0DE
:1003B000FFDEF8018083FFEFCF1ADF0AEF0AFF0AA2
:1003C0008D2F90E0A0E0B0E0C816D906EA06FB0643
:1003D00058F303C0C3E001C0C3E08C2FDF91CF917D
:1003E0001F910F91FF90EF90DF90CF90BF90AF9053
:1003F0009F908F907F906F905F904F900895EF92B5
:10040000FF920F931F93CF93DF9300D000D0CDB70F
:10041000DEB7182F7B0167E08DE0B5DEF7011083B2
:100420008E010F5F1F4F970141E0B7018CE0F8DEAE
:10043000813051F449815A816B817C814031510571
:100440006105710519F403C083E001C083E00F90DA
:100450000F900F900F90DF91CF911F910F91FF9010
:10046000EF900895EF92FF920F931F93CF93DF9336
:1004700000D000D0CDB7DEB77C0160E08DE083DE38
:1004800083E9F701808380E281838E010F5F1F4F34
:10049000970142E0B7018CE0C3DE813091F407C0E0
:1004A000F701E90FF11D308123279F5F02C020E093
:1004B00090E09430A8F3F701E90FF11D9081291322
:1004C00083E00F900F900F900F90DF91CF911F91CD
:1004D0000F91FF90EF900895A6D352D482DE61E091
:1004E00080E065D161E081E062D161E082E05FC1DE
:1004F0000895F2DF82E05CDE80938D03682F6062F6
:1005000082E041DE83E054DE80938D03682F6068D3
:1005100083E039DE6EE873E082E571DF80938D035E
:100520002FEF81EE94E0215080409040E1F700C031
:10053000000080918D03813011F58EE893E092DF09
:1005400080938D038130D9F461E080E04CD081E06C
:100550008093150180E4C3D410928D030AC0F0E0AB
:10056000E257FC4F8081BBD480918D038F5F8093D5
:100570008D03E0918D03E83090F38BE3B0D480914C
:100580001501813039F610921501ADD48093140114
:10059000813399F461E081E026D02FEF89E698E17C
:1005A000215080409040E1F700C0000060E081E011
:1005B0001AD060E080E017D0ADCF823309F0AACF27
:1005C00061E082E010D02FEF89E698E12150804071
:1005D0009040E1F700C0000060E082E004D060E0FD
:1005E00080E001D097CFE82FE695E695E6958770F5
:1005F000662321F0613009F471C008954E2F50E058
:100600004730510508F0D2C0FA01EA5BFF4F91C4B0
:100610004BB321E030E0B90102C0660F771F8A9525
:10062000E2F7CB01809584238BBB089548B321E08A
:1006300030E0B90102C0660F771F8A95E2F7CB015F
:100640008095842388BB089545B321E030E0B9014B
:1006500002C0660F771F8A95E2F7CB01809584234D
:1006600085BB089542B321E030E0B90102C0660FB6
:10067000771F8A95E2F7CB018095842382BB08958A
:1006800043B121E030E0B90102C0660F771F8A95BF
:10069000E2F7CB018095842383B90895E2E6F0E088
:1006A000408121E030E0B90102C0660F771F8A95D2
:1006B000E2F7CB018095842380830895E5E6F0E09E
:1006C000408121E030E0B90102C0660F771F8A95B2
:1006D000E2F7CB0180958423808308954E2F50E06C
:1006E0004730510508F062C0FA01E35BFF4F21C4B7
:1006F0004BB321E030E0B90102C0660F771F8A9545
:10070000E2F7CB01842B8BBB089548B321E030E0A6
:10071000B90102C0660F771F8A95E2F7CB01842BDF
:1007200088BB089545B321E030E0B90102C0660FEF
:10073000771F8A95E2F7CB01842B85BB089542B3DE
:1007400021E030E0B90102C0660F771F8A95E2F719
:10075000CB01842B82BB089543B121E030E0B90185
:1007600002C0660F771F8A95E2F7CB01842B83B90D
:100770000895E2E6F0E0408121E030E0B90102C0F6
:10078000660F771F8A95E2F7CB01842B808308954B
:10079000E5E6F0E0408121E030E0B90102C0660FFB
:1007A000771F8A95E2F7CB01842B80830895E82F89
:1007B000E695E695E6958770662321F0613009F4A9
:1007C00071C008954E2F50E04730510508F0D2C057
:1007D000FA01EC5AFF4FADC34AB321E030E0B90152
:1007E00002C0660F771F8A95E2F7CB0180958423BC
:1007F0008ABB089547B321E030E0B90102C0660F1B
:10080000771F8A95E2F7CB018095842387BB0895F3
:1008100044B321E030E0B90102C0660F771F8A952A
:10082000E2F7CB018095842384BB089541B321E096
:1008300030E0B90102C0660F771F8A95E2F7CB015D
:100840008095842381BB089542B121E030E0B90155
:1008500002C0660F771F8A95E2F7CB01809584234B
:1008600082B90895E1E6F0E0408121E030E0B9018D
:1008700002C0660F771F8A95E2F7CB01809584232B
:1008800080830895E4E6F0E0408121E030E0B901A2
:1008900002C0660F771F8A95E2F7CB01809584230B
:1008A000808308954E2F50E04730510508F062C014
:1008B000FA01E55AFF4F3DC34AB321E030E0B901E8
:1008C00002C0660F771F8A95E2F7CB01842B8ABBA3
:1008D000089547B321E030E0B90102C0660F771FE9
:1008E0008A95E2F7CB01842B87BB089544B321E0BE
:1008F00030E0B90102C0660F771F8A95E2F7CB019D
:10090000842B84BB089541B321E030E0B90102C0DB
:10091000660F771F8A95E2F7CB01842B81BB089580
:1009200042B121E030E0B90102C0660F771F8A951D
:10093000E2F7CB01842B82B90895E1E6F0E0408133
:1009400021E030E0B90102C0660F771F8A95E2F717
:10095000CB01842B80830895E4E6F0E0408121E020
:1009600030E0B90102C0660F771F8A95E2F7CB012C
:10097000842B808308951F920F920FB60F9211243B
:100980000BB60F922F933F934F935F936F937F9389
:100990008F939F93AF93BF93EF93FF93E0912401C5
:1009A000F09125010995FF91EF91BF91AF919F9132
:1009B0008F917F916F915F914F913F912F910F9008
:1009C0000BBE0F900FBE0F901F9018951F920F92A5
:1009D0000FB60F9211240BB60F922F933F934F93A4
:1009E0005F936F937F938F939F93AF93BF93EF9397
:1009F000FF93E0912201F09123010995FF91EF917E
:100A0000BF91AF919F918F917F916F915F914F9126
:100A10003F912F910F900BBE0F900FBE0F901F9024
:100A200018951F920F920FB60F9211240BB60F92CA
:100A30002F933F934F935F936F937F938F939F93E6
:100A4000AF93BF93EF93FF93E0912001F0912101C9
:100A50000995FF91EF91BF91AF919F918F917F91F8
:100A60006F915F914F913F912F910F900BBE0F901F
:100A70000FBE0F901F9018951F920F920FB60F92F6
:100A800011240BB60F922F933F934F935F936F9365
:100A90007F938F939F93AF93BF93EF93FF93E091D7
:100AA0001E01F0911F010995FF91EF91BF91AF9148
:100AB0009F918F917F916F915F914F913F912F9176
:100AC0000F900BBE0F900FBE0F901F9018951F92A6
:100AD0000F920FB60F9211240BB60F922F933F93E4
:100AE0004F935F936F937F938F939F93AF93BF9336
:100AF000EF93FF93E0911C01F0911D010995FF9187
:100B0000EF91BF91AF919F918F917F916F915F9185
:100B10004F913F912F910F900BBE0F900FBE0F90F2
:100B20001F9018951F920F920FB60F9211240BB6BB
:100B30000F922F933F934F935F936F937F938F9376
:100B40009F93AF93BF93EF93FF93E0911A01F091BE
:100B50001B010995FF91EF91BF91AF919F918F91EB
:100B60007F916F915F914F913F912F910F900BBEAD
:100B70000F900FBE0F901F9018951F920F920FB6F7
:100B80000F9211240BB60F922F933F934F935F93C5
:100B90006F937F938F939F93AF93BF93EF93FF9345
:100BA000E0911801F09119010995FF91EF91BF9122
:100BB000AF919F918F917F916F915F914F913F91F5
:100BC0002F910F900BBE0F900FBE0F901F90189596
:100BD0001F920F920FB60F9211240BB60F922F9304
:100BE0003F934F935F936F937F938F939F93AF93B5
:100BF000BF93EF93FF93E0911601F09117010995D0
:100C0000FF91EF91BF91AF919F918F917F916F91E4
:100C10005F914F913F912F910F900BBE0F900FBEA0
:100C20000F901F90189580910001882309F447C008
:100C3000813009F084C061E08AE0B9DD61E089E0DB
:100C4000B6DD61E088E0B3DD60E08BE0B0DD61E05F
:100C500088E0C9DC2DB1E0E0F1E0908130E1939FC4
:100C6000C0011124822B8DB99EB18281892B8EB94E
:100C70009DB18181892B8DB92DB1938130E2939FF4
:100C8000C0011124822B8DB92DB1948130E8939F3E
:100C9000C0011124822B8DB92DB19681892F90E04E
:100CA000880F991F880F991F822B8DB92DB19581BF
:100CB00030E4939FC0011124822B8DB9089560E028
:100CC0008AE075DD60E089E072DD60E088E06FDD7C
:100CD00061E08BE06CDD2DB1E0E0F1E0908130E18E
:100CE000939FC0011124822B8DB99EB18281892BE3
:100CF0008EB99DB18181892B8DB92DB1938130E25F
:100D0000939FC0011124822B8DB92DB1948130E8BD
:100D1000939FC0011124822B8DB92DB19681892F0B
:100D200090E0880F991F880F991F822B8DB92DB1E4
:100D3000958130E4939FC0011124822B8DB90895D1
:100D4000CF93C82F60E088E04EDCCFB9779BFECF11
:100D50008FB1CF910895CF93DF93C82FD62F61E045
:100D600026DDDD2319F0D13029F007C061E08C2F9A
:100D70003ADC03C060E08C2F36DCDF91CF91089520
:100D8000A5E9B0E02C91E7E0F1E0908130E4939F99
:100D9000C0011124822B8C932C91918130E1939F7F
:100DA000C0011124822B8C932C919281892F90E089
:100DB000880F991F880F991F880F991F822B8C937A
:100DC0002AB19481892F90E0880F991F880F991F6D
:100DD000880F991F822B8AB92AB1958130E4939F9D
:100DE000C0011124822B8AB92AB1968130E1939FE8
:100DF000C0011124822B8AB92AB1978130E8939FD0
:100E0000C0011124822B8AB98085882319F0813092
:100E100031F146C08BB18D7F8BB9809110019091DB
:100E20001101A0911201B0911301880F991FAA1FFF
:100E3000BB1F880F991FAA1FBB1F9C01AD01220F6A
:100E4000331F441F551F220F331F441F551F60E0DF
:100E500074E284EF90E04BD02150310923C08BB174
:100E600082608BB98091100190911101A0911201C3
:100E7000B0911301880F991FAA1FBB1F880F991FDC
:100E8000AA1FBB1F9C01AD01220F331F441F551F1A
:100E900060E074E284EF90E02AD02150310902C072
:100EA00020E030E03093900029B990910A0194300D
:100EB00061F4E5E9F0E08081826080838081846074
:100EC00080838AB184608AB90895E5E9F0E02081E1
:100ED000892F90E0880F991F822B808308955D9B56
:100EE000FECF8CB908955F9BFECF8CB10895A1E22F
:100EF0001A2EAA1BBB1BFD010DC0AA1FBB1FEE1F94
:100F0000FF1FA217B307E407F50720F0A21BB30BDE
:100F1000E40BF50B661F771F881F991F1A9469F75A
:100F200060957095809590959B01AC01BD01CF01B6
:100F30000895EE0FFF1F0024001C0BBE0790F691D2
:080F4000E02D0994F894FFCFA5
:100F48000101000000010000000003010001000091
:040F580080250000F0
:00000001FF
