:1000000061C00000D5C40000FEC4000027C5000088
:1000100050C5000079C50000A2C50000CBC5000096
:10002000F4C500006CC000006AC0000068C0000099
:1000300066C0000064C0000062C0000060C0000034
:100040005EC000005CC000005AC0000058C0000044
:1000500056C0000054C0000052C0000050C0000054
:100060004EC000004CC000004AC0000048C0000064
:1000700046C0000044C000007BC0000040C000003B
:100080003EC000003CC000003AC00000250333031E
:1000900041034F035D036B037B039503A203AF038F
:1000A000BC03C903D603E50309041704250433047C
:1000B00041044F045F04790486049304A004AD0452
:1000C000BA04C90411241FBECFEFD0E1DEBFCDBFFB
:1000D00011E0A0E0B1E0ECE9FFE000E00BBF02C0FE
:1000E00007900D92A831B107D9F721E0A8E1B1E05E
:1000F00001C01D92AF36B207E1F74DD24DC780CF98
:10010000AFD559D610925D011092280110925C0172
:1001100082E3E9E2F1E0DF011D928A95E9F70895B3
:1001200040915C0150E060E070E089E291E02DD701
:1001300010925C0110922801089564E171E089E257
:1001400091E0E3D1813019F480935D010FC086E125
:1001500091E0019719F461E070E002C060E070E0A6
:1001600089E291E0D2D1811110925D01D9CF089539
:100170001F920F920FB60F9211240BB60F928F930E
:100180009F93EF93FF9390919C0090935B018091DC
:100190005C01E82FF0E0E75DFE4F90838F5F809376
:1001A0005C01FF91EF919F918F910F900BBE0F908B
:1001B0000FBE0F901F901895CF93DF93C82FD62FA7
:1001C00061E088E0E3D58C2F90E0880F991F8E774F
:1001D000D8D58D2FD6D560E088E0D8D5DF91CF91E6
:1001E0000895CF93C82F61E088E0D0D58C2F90E0A0
:1001F000880F991F8E778068C4D580E0C2D5C82F3C
:1002000060E088E0C3D58C2FCF9108956FE081E046
:10021000D3CF0895FBDF6DE88AE2CEDF6EE38BE299
:10022000CBDF6EE18CE2C8DF60E08DE2C5DF60E429
:1002300085E1C2DF6DE381E1BFDF84E1D2DF982F8A
:10024000937031F4682F636084E1B6DF84E1C9CF35
:1002500008954F925F926F927F928F929F92AF928A
:10026000BF92CF92DF92EF92FF920F931F93CF93A3
:10027000DF93D82F7B01C42F59018C3029F08E30A9
:1002800061F0912C812C10C00F2EF0E39F2EF02DE9
:100290000F2EF7E78F2EF02D07C06894992494F85D
:1002A0000F2EF2E18F2EF02D84E09BDF682F6F7709
:1002B00084E082DF8AE095DF682F60688AE07CDF77
:1002C00060E081E079DF412C512C32010BC0F70155
:1002D000E40DF51D608189E06FDF8FEF481A580A41
:1002E000680A780A8C2F90E0A0E0B0E04816590622
:1002F0006A067B0660F36D2F81E05EDFDC3031F44F
:100300008DE06FDF682F60688DE056DF0F2EF0ED17
:10031000CF2EF7E0DF2EE12CF12CF02D84E061DF11
:10032000C82FE1E0CE1AD108E108F10829F080FDDC
:1003300003C0892D8C2391F38DE053DF682F6F77F5
:100340008DE03ADFCD28CE28CF2809F45CC086E0C6
:1003500048DF8B7109F059C0C821C0FD02C0C1E05F
:1003600001C0C2E0DC3009F051C08AE03ADFD82F8A
:100370008CE037DF282F2770A9F08D2F90E00197B0
:10038000880F991F880F991F880F991F820F911D41
:10039000092E000CAA0BBB0BF80180839183A2836A
:1003A000B38311C08D2F90E0880F991F880F991F7C
:1003B000880F991F092E000CAA0BBB0BF801808334
:1003C0009183A283B383D11101C0D1E0D13108F070
:1003D000D0E1C12CD12C76010CC085010C0D1D1D66
:1003E00089E0FFDEF8018083FFEFCF1ADF0AEF0A12
:1003F000FF0A8D2F90E0A0E0B0E0C816D906EA060B
:10040000FB0658F303C0C3E001C0C3E08C2FDF91AB
:10041000CF911F910F91FF90EF90DF90CF90BF9001
:10042000AF909F908F907F906F905F904F900895C6
:10043000EF92FF920F931F93CF93DF9300D000D0E2
:10044000CDB7DEB7182F7B0167E08DE0B5DEF70191
:1004500010838E010F5F1F4F970141E0B7018CE0C1
:10046000F8DE813051F449815A816B817C814031C1
:1004700051056105710519F403C083E001C083E0F3
:100480000F900F900F900F90DF91CF911F910F91D0
:10049000FF90EF900895EF92FF920F931F93CF93E9
:1004A000DF9300D000D0CDB7DEB77C0160E08DE0F7
:1004B00083DE83E9F701808380E281838E010F5F11
:1004C0001F4F970142E0B7018CE0C3DE813091F409
:1004D00007C0F701E90FF11D308123279F5F02C09C
:1004E00020E090E09430A8F3F701E90FF11D90812E
:1004F000291383E00F900F900F900F90DF91CF9111
:100500001F910F91FF90EF900895EF92FF920F933C
:100510001F93CF93DF93EC018B01FB01019000202F
:10052000E9F731977F01E61AF70ADC010D90002008
:10053000E9F71197A81BB90BAE15BF05F0F020E045
:1005400030E040E050E014C0FE01E20FF31F708184
:10055000F801E40FF51F9081791306C04F5F5F4FDC
:10056000E416F50619F40BC040E050E02F5F3F4F52
:100570002A173B0748F380E003C080E001C081E018
:10058000DF91CF911F910F91FF90EF9008956CD361
:1005900012D440CE0895B4DDFADF82E022DE8093EB
:1005A0005E01682F606282E007DE83E01ADE8093DE
:1005B0005E01682F606883E0FFDDBFDD8823E9F31B
:1005C0006FE571E082E534DF80935E012FEF81EE0D
:1005D00094E0215080409040E1F700C000008091FD
:1005E0005E01813051F78FE591E055DF80935E0128
:1005F000813019F780E497D410925E010AC0F0E0D0
:10060000E15AFE4F80818FD480915E018F5F80938D
:100610005E01E0915E01E83090F38BE384D4CDCFAE
:10062000E82FE695E695E6958770662321F0613020
:1006300009F471C008954E2F50E04730510508F07D
:10064000D2C0FA01EA5BFF4F97C44BB321E030E020
:10065000B90102C0660F771F8A95E2F7CB0180953A
:1006600084238BBB089548B321E030E0B90102C078
:10067000660F771F8A95E2F7CB018095842388BBAC
:10068000089545B321E030E0B90102C0660F771F3D
:100690008A95E2F7CB018095842385BB089542B308
:1006A00021E030E0B90102C0660F771F8A95E2F7BA
:1006B000CB018095842382BB089543B121E030E0D3
:1006C000B90102C0660F771F8A95E2F7CB018095CA
:1006D000842383B90895E2E6F0E0408121E030E030
:1006E000B90102C0660F771F8A95E2F7CB018095AA
:1006F000842380830895E5E6F0E0408121E030E046
:10070000B90102C0660F771F8A95E2F7CB01809589
:100710008423808308954E2F50E04730510508F020
:1007200062C0FA01E35BFF4F27C44BB321E030E026
:10073000B90102C0660F771F8A95E2F7CB01842BBF
:100740008BBB089548B321E030E0B90102C0660FC9
:10075000771F8A95E2F7CB01842B88BB089545B3B8
:1007600021E030E0B90102C0660F771F8A95E2F7F9
:10077000CB01842B85BB089542B321E030E0B90161
:1007800002C0660F771F8A95E2F7CB01842B82BBEC
:10079000089543B121E030E0B90102C0660F771F30
:1007A0008A95E2F7CB01842B83B90895E2E6F0E065
:1007B000408121E030E0B90102C0660F771F8A95C1
:1007C000E2F7CB01842B80830895E5E6F0E04081D9
:1007D00021E030E0B90102C0660F771F8A95E2F789
:1007E000CB01842B80830895E82FE695E695E69566
:1007F0008770662321F0613009F471C008954E2F8F
:1008000050E04730510508F0D2C0FA01EC5AFF4FD2
:10081000B3C34AB321E030E0B90102C0660F771FCD
:100820008A95E2F7CB01809584238ABB089547B36C
:1008300021E030E0B90102C0660F771F8A95E2F728
:10084000CB018095842387BB089544B321E030E039
:10085000B90102C0660F771F8A95E2F7CB01809538
:10086000842384BB089541B321E030E0B90102C084
:10087000660F771F8A95E2F7CB018095842381BBB1
:10088000089542B121E030E0B90102C0660F771F40
:100890008A95E2F7CB018095842382B90895E1E639
:1008A000F0E0408121E030E0B90102C0660F771F1F
:1008B0008A95E2F7CB018095842380830895E4E64E
:1008C000F0E0408121E030E0B90102C0660F771FFF
:1008D0008A95E2F7CB0180958423808308954E2F7B
:1008E00050E04730510508F062C0FA01E55AFF4F69
:1008F00043C34AB321E030E0B90102C0660F771F5D
:100900008A95E2F7CB01842B8ABB089547B321E097
:1009100030E0B90102C0660F771F8A95E2F7CB017C
:10092000842B87BB089544B321E030E0B90102C0B5
:10093000660F771F8A95E2F7CB01842B84BB08955D
:1009400041B321E030E0B90102C0660F771F8A95FC
:10095000E2F7CB01842B81BB089542B121E030E066
:10096000B90102C0660F771F8A95E2F7CB01842B8D
:1009700082B90895E1E6F0E0408121E030E0B9017C
:1009800002C0660F771F8A95E2F7CB01842B808324
:100990000895E4E6F0E0408121E030E0B90102C0D2
:1009A000660F771F8A95E2F7CB01842B8083089529
:1009B0001F920F920FB60F9211240BB60F922F9326
:1009C0003F934F935F936F937F938F939F93AF93D7
:1009D000BF93EF93FF93E0912601F09127010995D2
:1009E000FF91EF91BF91AF919F918F917F916F9107
:1009F0005F914F913F912F910F900BBE0F900FBEC3
:100A00000F901F9018951F920F920FB60F921124FE
:100A10000BB60F922F933F934F935F936F937F93F8
:100A20008F939F93AF93BF93EF93FF93E091240134
:100A3000F09125010995FF91EF91BF91AF919F91A1
:100A40008F917F916F915F914F913F912F910F9077
:100A50000BBE0F900FBE0F901F9018951F920F9214
:100A60000FB60F9211240BB60F922F933F934F9313
:100A70005F936F937F938F939F93AF93BF93EF9306
:100A8000FF93E0912201F09123010995FF91EF91ED
:100A9000BF91AF919F918F917F916F915F914F9196
:100AA0003F912F910F900BBE0F900FBE0F901F9094
:100AB00018951F920F920FB60F9211240BB60F923A
:100AC0002F933F934F935F936F937F938F939F9356
:100AD000AF93BF93EF93FF93E0912001F091210139
:100AE0000995FF91EF91BF91AF919F918F917F9168
:100AF0006F915F914F913F912F910F900BBE0F908F
:100B00000FBE0F901F9018951F920F920FB60F9265
:100B100011240BB60F922F933F934F935F936F93D4
:100B20007F938F939F93AF93BF93EF93FF93E09146
:100B30001E01F0911F010995FF91EF91BF91AF91B7
:100B40009F918F917F916F915F914F913F912F91E5
:100B50000F900BBE0F900FBE0F901F9018951F9215
:100B60000F920FB60F9211240BB60F922F933F9353
:100B70004F935F936F937F938F939F93AF93BF93A5
:100B8000EF93FF93E0911C01F0911D010995FF91F6
:100B9000EF91BF91AF919F918F917F916F915F91F5
:100BA0004F913F912F910F900BBE0F900FBE0F9062
:100BB0001F9018951F920F920FB60F9211240BB62B
:100BC0000F922F933F934F935F936F937F938F93E6
:100BD0009F93AF93BF93EF93FF93E0911A01F0912E
:100BE0001B010995FF91EF91BF91AF919F918F915B
:100BF0007F916F915F914F913F912F910F900BBE1D
:100C00000F900FBE0F901F9018951F920F920FB666
:100C10000F9211240BB60F922F933F934F935F9334
:100C20006F937F938F939F93AF93BF93EF93FF93B4
:100C3000E0911801F09119010995FF91EF91BF9191
:100C4000AF919F918F917F916F915F914F913F9164
:100C50002F910F900BBE0F900FBE0F901F90189505
:100C60008FB780688FBF089580910001882309F4B1
:100C700047C0813009F084C061E08AE0B5DD61E001
:100C800089E0B2DD61E088E0AFDD60E08BE0ACDD03
:100C900061E088E0C5DC2DB1E0E0F1E0908130E179
:100CA000939FC0011124822B8DB99EB18281892B23
:100CB0008EB99DB18181892B8DB92DB1938130E29F
:100CC000939FC0011124822B8DB92DB1948130E8FE
:100CD000939FC0011124822B8DB92DB19681892F4C
:100CE00090E0880F991F880F991F822B8DB92DB125
:100CF000958130E4939FC0011124822B8DB9089512
:100D000060E08AE071DD60E089E06EDD60E088E04F
:100D10006BDD61E08BE068DD2DB1E0E0F1E090811A
:100D200030E1939FC0011124822B8DB99EB1828145
:100D3000892B8EB99DB18181892B8DB92DB193817C
:100D400030E2939FC0011124822B8DB92DB1948183
:100D500030E8939FC0011124822B8DB92DB196816B
:100D6000892F90E0880F991F880F991F822B8DB9CA
:100D70002DB1958130E4939FC0011124822B8DB950
:100D800008958FB9779BFECF8FB10895CF93DF93EE
:100D9000C82FD62F61E028DDDD2319F0D13029F0EE
:100DA00007C061E08C2F3CDC03C060E08C2F38DC96
:100DB000DF91CF910895ADE9B0E02C91E7E0F1E04B
:100DC000908130E4939FC0011124822B8C932C914D
:100DD000918130E1939FC0011124822B8C932C913F
:100DE0009281892F90E0880F991F880F991F880F93
:100DF000991F822B8C93AAE9B0E02C919481892FC2
:100E000090E0880F991F880F991F880F991F822BD8
:100E10008C932C91958130E4939FC0011124822BF7
:100E20008C932C91968130E1939FC0011124822BE9
:100E30008C932C91978130E8939FC0011124822BD1
:100E40008C938085882319F0813041F14AC0EBE909
:100E5000F0E080818D7F808380911001909111015D
:100E6000A0911201B0911301880F991FAA1FBB1FF7
:100E7000880F991FAA1FBB1F9C01AD01220F331FB2
:100E8000441F551F220F331F441F551F60E074E29B
:100E900084EF90E04FD02150310925C0EBE9F0E01C
:100EA0008081826080838091100190911101A091D6
:100EB0001201B0911301880F991FAA1FBB1F880F41
:100EC000991FAA1FBB1F9C01AD01220F331F441F96
:100ED000551F60E074E284EF90E02CD0215031097E
:100EE00002C020E030E03093980020939900909168
:100EF0000A01943071F4EDE9F0E080818260808332
:100F0000808184608083EAE9F0E08081846080836E
:100F10000895EDE9F0E02081892F90E0880F991F76
:100F2000822B8083089590919B0095FFFCCF809346
:100F30009C000895A1E21A2EAA1BBB1BFD010DC047
:100F4000AA1FBB1FEE1FFF1FA217B307E407F50779
:100F500020F0A21BB30BE40BF50B661F771F881F55
:100F6000991F1A9469F760957095809590959B01EB
:100F7000AC01BD01CF010895EE0FFF1F0024001C3E
:100F80000BBE0790F691E02D0994DC0101C06D9332
:0C0F900041505040E0F70895F894FFCF66
:100F9C00010100000001000000000301000101003C
:080FAC00802500003100300037
:00000001FF
