:1000000029C1000045C1000043C1000041C10000FA
:100010003FC100000C9467140C949A1439C100007D
:1000200037C1000035C1000033C1000031C10000FC
:100030000C94A20F2DC100002BC1000029C10000AB
:1000400027C1000025C100000C94101521C100003B
:100050001FC100001DC100001BC1000019C100002C
:1000600017C1000015C1000013C1000011C100003C
:100070000FC100000DC100000C94CD1409C1000097
:1000800007C1000005C1000003C10000FC060A070B
:10009000180726073407420752076D077A078707B4
:1000A0009407A107AE07BD07E207F007FE070C089B
:1000B0001A0828083808530860086D087A08870865
:1000C0009408A308BB08BD08BF08C108C308C50839
:1000D000C808D408D608D808DA08DC08DE08E10821
:1000E000EE08F508FC0803090A0911091A09320982
:1000F00036093A093E09420946094A094E095B098F
:100100005F09630967096B096F0973097709850935
:100110008B099609A009AA09AE09B709BF094E4182
:100120004E494E495459494E46CDCCCC3D0AD72371
:100130003C17B7D13877CC2B329595E6241FB14FB9
:100140000A000020410000C84200401C4620BCBEFE
:100150004CCA1B0E5AAEC59D7400407A10F35A006B
:10016000A0724E18090010A5D4E80000E8764817E0
:100170000000E40B54020000CA9A3B000000E1F5C5
:1001800005000080969800000040420F000000A08B
:100190008601000000102700000000E803000000B6
:1001A000006400000000000A0000000000010000E0
:1001B0000000002C76D888DC674F0823DFC1DFAE53
:1001C00059E1B1B796E5E3E453C63AE6519976961C
:1001D000E8E6C28426EB898C9B62ED407C6FFCEFE5
:1001E000BC9C9F40F2BAA56FA5F490055A2AF75C13
:1001F000936B6CF9676DC11BFCE0E40D47FEF520C5
:10020000E6B500D0ED902E0300943577050080848C
:100210001E080000204E0A000000C80C33333333A0
:100220000F986E12831141EF8D2114893BE655160C
:10023000CFFEE6DB18D1844B381BF77C1D901DA444
:10024000BBE424203284725E228100C9F124ECA137
:10025000E53D270011241FBECFEFD0E1DEBFCDBFAB
:1002600012E0A0E0B1E0EEE5FBE400E00BBF02C06D
:1002700007900D92A431B107D9F727E0A4E1B2E0CD
:1002800001C01D92A13AB207E1F79BD50C94AD25B0
:10029000B7CE482F486061E383E50C946A0B08955C
:1002A000482F6CE283E50C946A0B0895CF93DF939B
:1002B0001F92CDB7DEB780E0ECDF8AE0F1DF40E0EF
:1002C0006DE183E50E946A0B40E061E283E50E94F4
:1002D0006A0B40E062E283E50E946A0B40E063E261
:1002E00083E50E946A0B40E064E283E50E946A0BAA
:1002F00040E065E283E50E946A0B40E066E283E548
:100300000E946A0B40E068E283E50E946A0B40E0CD
:1003100069E283E50E946A0BAE014F5F5F4F67E2BF
:1003200083E50E948A0B49814878498367E283E527
:100330000E946A0BAE014F5F5F4F6AE283E50E9445
:100340008A0B4981487F49836AE283E50E946A0BF0
:100350000F90DF91CF9108950F9303E520E83AE1E4
:1003600046E050E060E081E00E94760A48E06DE2FD
:1003700083E50E946A0B9ADF0F9108958F929F92F6
:10038000AF92BF92CF92DF92EF92FF920F931F93A3
:10039000CF93DF93A62EB72EC82ED92E822E932E62
:1003A000D42FC52F0E94841B88238CF02E2D3F2D27
:1003B000402F512F6A2D7B2D8C2D9D2D0E94D31CFB
:1003C000181644F4AE2CBF2CD02FC12F05C0A82C7A
:1003D000B92C02C0DC2DCD2D6A2D7B2D8D2F9C2FAD
:1003E000DF91CF911F910F91FF90EF90DF90CF9011
:1003F000BF90AF909F908F900895EF92FF920F93D0
:100400001F93CF93DF931F92CDB7DEB71982AE0152
:100410004F5F5F4F6FE283E50E948A0B49816FE275
:1004200083E50E946A0BAE014F5F5F4F6EE283E58A
:100430000E948A0B498144606EE283E50E946A0B48
:10044000E12CF12C0FE713E420E030E0A90160E09B
:1004500070E080E891E492DF0E94F51B162F462F92
:1004600068E283E50E946A0B412F69E283E50E94FE
:100470006A0B0F90DF91CF911F910F91FF90EF903A
:100480000895EF92FF920F931F93CF93DF931F92E4
:10049000CDB7DEB71982AE014F5F5F4F6FE283E5E4
:1004A0000E948A0B498140616FE283E50E946A0BDA
:1004B000AE014F5F5F4F6EE283E50E948A0B498178
:1004C00040616EE283E50E946A0BE12CF12C0FE79C
:1004D00013E420E030E0A90160E070E080E092E405
:1004E0004DDF0E94F51B462F64E283E50E946A0BF4
:1004F00040E267E283E50E946A0B0F90DF91CF91A3
:100500001F910F91FF90EF9008950E94680C109238
:1005100092061092910688EE93E0E8EAF2E0DF019D
:100520009C011D9221503040E1F7089540919106C1
:1005300050E060E070E088EA92E00E94D71E1092DE
:10054000910608956AE271E088EA92E0F8D381307A
:1005500029F483E080939206E9DF0BC068E371E041
:1005600088EA92E0ECD3813021F482E08093920615
:10057000DDDF80919206089510925E0710925D076C
:1005800086E9E3E9F6E0DF011D928A95E9F784E167
:10059000E9E2F7E0DF011D928A95E9F70C94B70BC9
:1005A0000895CF93C82FF3D681E08C0F01C08F5FE1
:1005B000282F30E0F901ED56F94F90819C32B9F7C0
:1005C000F901EC56F94F808180938507E4D6CF91ED
:1005D0000895CF93DF938CE497E00E94A81EBC019E
:1005E000990F880B990B20E137E240E050E00E9420
:1005F0003A1DC22FD32F24E630E040E050E00E94A5
:100600003A1D7F936F933F932F93DF93CF938AE4A9
:1006100091E09F938F938CE497E09F938F930E9438
:10062000F31E8DB79EB70A960FB6F8949EBF0FBE05
:100630008DBFDF91CF910895AAD680E020E007C05A
:10064000E22FF0E0E45BF84F90832F5F8F5FE82F9D
:10065000F0E0ED56F94F90819C3291F7BADF9BC6DE
:1006600008958F929F92AF92BF92CF92DF92EF92B6
:10067000FF920F931F930E94A51EBC01990F880B38
:10068000990B0E94231C20E030E048EC52E40E94C9
:10069000881B6B017C010E94F01B072E000C880B4D
:1006A000990B0E94231C4B015C019B01AC01C7010B
:1006B000B6010E941F1B2AE939E949E15FE30E9464
:1006C000881B9B01AC01C501B4010E94201B09E2FB
:1006D00017E024E030E046E050E00E94651D1F91E5
:1006E0000F91FF90EF90DF90CF90BF90AF909F90D1
:1006F0008F900895CF93C82F4AD681E08C0F90E059
:1007000007C0E92FF0E0EE59F84F20839F5F8F5F1D
:10071000E82FF0E0ED56F94F20812C3291F731E0CF
:10072000390FE92FF0E08F5FEE59F84F2083232F28
:1007300030E0E82FF0E0ED56F94F8081F901EE59F5
:10074000F84F808382E697E08CDF25D6CF9108951D
:10075000CF93C82F1CD681E08C0F90E007C0E92F03
:10076000F0E0E35CF84F20839F5F8F5FE82FF0E0BD
:10077000ED56F94F20812C3291F731E0390FE92FF6
:10078000F0E08F5FE35CF84F2083232F30E0E82F09
:10079000F0E0ED56F94F8081F901E35CF84F80837A
:1007A0008DE397E05EDFF7D5CF91089561E082E1B8
:1007B0000DD38FE39FE10197F1F700C0000060E0E7
:1007C00082E104D38FE39FE10197F1F700C00000BD
:1007D0000895CF93C82F80910801883281F0883323
:1007E00009F560E080E1F2D26C2F80E0BBD4DEDF5F
:1007F0008FE99FE00197F1F700C0000013C060E0AF
:1008000080E1E4D26C2F80E0DFD4D0DF6C2F6295E2
:10081000607F80E0D9D4CADF8FE99FE00197F1F7CC
:1008200000C00000CF910895CF93DF93809108011D
:100830008832A1F1883309F073C06FEF80E0ABD448
:1008400061E082E1A9D361E080E1A6D361E081E1CA
:10085000A3D360E081E1BAD2C6E0D1E08A81B9DFFA
:100860008FE99FE00197F1F700C000008981B1DFB7
:100870008FE99FE00197F1F700C0000081E0A9DF58
:100880008FE39CE90197F1F700C000008881A1DFA8
:100890008FE99FE00197F1F700C0000061E084E07C
:1008A0007BD361E085E078D361E086E075D361E0D9
:1008B00087E072D361E082E16FD361E080E16CD3C5
:1008C00061E081E169D360E081E180D282E081DF93
:1008D0008FE39CE90197F1F700C00000C6E0D1E08A
:1008E0008A8177DF8FE99FE00197F1F700C0000070
:1008F00089816FDF8FE99FE00197F1F700C0000069
:1009000081E067DF8FE39CE90197F1F700C0000009
:1009100088815FDF8FE99FE00197F1F700C0000059
:10092000DF91CF9108959FEF980F9430D8F466230C
:10093000D9F06131D8F4823061F018F4813031F0AF
:1009400017C0833049F0843051F012C08FE7860F12
:1009500010C08FEB860F0DC08FE8860F0AC08FEC9A
:10096000860F07C080E805C080E803C080E801C0AA
:1009700080E02FCF0895CF93C82F8091080188324F
:1009800081F0883309F561E080E120D26C2F80E0AE
:10099000E9D30CDF8FE99FE00197F1F700C0000079
:1009A00013C061E080E112D26C2F80E00DD4FEDE36
:1009B0006C2F6295607F80E007D4F8DE8FE99FE0BE
:1009C0000197F1F700C00000CF910895CF93DF9316
:1009D000EC0102C0D0DF219688818111FBCFDF912D
:1009E000CF91089581E0F5CE0895CF93DF93C82F7E
:1009F000D62F61E088E065D58C2F90E0880F991F95
:100A00008E775AD58D2F58D560E088E05AD5DF9182
:100A1000CF910895CF93C82F61E088E052D58C2FF5
:100A200090E0880F991F8E77806846D580E044D586
:100A3000C82F60E088E045D58C2FCF9108956FE0F6
:100A400081E0D3CF0895ABD4FADF6DE88AE2CDDF41
:100A50006EE38BE2CADF6EE18CE2C7DF60E08DE21D
:100A6000C4DF60E485E1C1DF6DE381E1BEDF84E1E5
:100A7000D1DF982F937031F4682F636084E1B5DF84
:100A800084E1C8CF08954F925F926F927F928F92C8
:100A90009F92AF92BF92CF92DF92EF92FF920F930D
:100AA0001F93CF93DF93D82F7B01C42F59018C3034
:100AB00029F08E3061F0912C812C10C00F2EF0E3C4
:100AC0009F2EF02D0F2EF7E78F2EF02D07C0689484
:100AD000992494F80F2EF2E18F2EF02D84E09ADF06
:100AE000682F6F7784E081DF8AE094DF682F606889
:100AF0008AE07BDF60E081E078DF412C512C32011D
:100B00000BC0F701E40DF51D608189E06EDF8FEF0A
:100B1000481A580A680A780A8C2F90E0A0E0B0E0E2
:100B2000481659066A067B0660F36D2F81E05DDF8B
:100B3000DC3031F48DE06EDF682F60688DE055DFCA
:100B40000F2EF0EDCF2EF7E0DF2EE12CF12CF02D63
:100B500084E060DFC82FE1E0CE1AD108E108F10897
:100B600029F080FD03C0892D8C2391F38DE052DFA5
:100B7000682F6F778DE039DFCD28CE28CF2809F494
:100B80005CC086E047DF8B7109F059C0C821C0FD09
:100B900002C0C1E001C0C2E0DC3009F051C08AE00F
:100BA00039DFD82F8CE036DF282F2770A9F08D2F62
:100BB00090E00197880F991F880F991F880F991F40
:100BC000820F911D092E000CAA0BBB0BF80180832C
:100BD0009183A283B38311C08D2F90E0880F991F5A
:100BE000880F991F880F991F092E000CAA0BBB0BA9
:100BF000F80180839183A283B383D11101C0D1E036
:100C0000D13108F0D0E1C12CD12C76010CC0850186
:100C10000C0D1D1D89E0FEDEF8018083FFEFCF1A69
:100C2000DF0AEF0AFF0A8D2F90E0A0E0B0E0C816BF
:100C3000D906EA06FB0658F303C0C3E001C0C3E0CF
:100C40008C2FDF91CF911F910F91FF90EF90DF904C
:100C5000CF90BF90AF909F908F907F906F905F905C
:100C60004F900895EF92FF920F931F93CF93DF93CE
:100C700000D000D0CDB7DEB7182F7B0167E08DE044
:100C8000B4DEF70110838E010F5F1F4F970141E023
:100C9000B7018CE0F8DE813051F449815A816B81D3
:100CA0007C81403151056105710519F403C083E071
:100CB00001C083E00F900F900F900F90DF91CF91C4
:100CC0001F910F91FF90EF900895EF92FF920F9375
:100CD0001F93CF93DF9300D000D0CDB7DEB77C0158
:100CE00060E08DE082DE83E9F701808380E281832A
:100CF0008E010F5F1F4F970142E0B7018CE0C3DE0A
:100D0000813091F407C0F701E90FF11D30812327ED
:100D10009F5F02C020E090E09430A8F3F701E90F54
:100D2000F11D9081291383E00F900F900F900F9089
:100D3000DF91CF911F910F91FF90EF900895EF9267
:100D4000FF920F931F93CF93DF93EC018B01FB0175
:100D500001900020E9F731977F01E61AF70ADC01DC
:100D60000D900020E9F71197A81BB90BAE15BF0530
:100D7000F4F020E030E040E050E014C0FE01E20F6B
:100D8000F31F7081F801E40FF51F9081791306C0FD
:100D90004F5F5F4FE416F50619F40BC040E050E0DA
:100DA0002F5F3F4F2A173B074CF380E003C080E0E2
:100DB00001C081E0DF91CF911F910F91FF90EF90E3
:100DC00008950E94EA1380E090E00895E82FE695E8
:100DD000E695E6958770662321F0613009F472C0CC
:100DE00008954E2F50E04730510508F0D4C0FA0165
:100DF000EA5BFF4F0C945C1D4BB321E030E0B9017E
:100E000002C0660F771F8A95E2F7CB018095842395
:100E10008BBB089548B321E030E0B90102C0660FF2
:100E2000771F8A95E2F7CB018095842388BB0895CC
:100E300045B321E030E0B90102C0660F771F8A9503
:100E4000E2F7CB018095842385BB089542B321E06E
:100E500030E0B90102C0660F771F8A95E2F7CB0137
:100E60008095842382BB089543B121E030E0B9012D
:100E700002C0660F771F8A95E2F7CB018095842325
:100E800083B90895E2E6F0E0408121E030E0B90165
:100E900002C0660F771F8A95E2F7CB018095842305
:100EA00080830895E5E6F0E0408121E030E0B9017B
:100EB00002C0660F771F8A95E2F7CB0180958423E5
:100EC000808308954E2F50E04730510508F063C0ED
:100ED000FA01E35BFF4F0C945C1D4BB321E030E063
:100EE000B90102C0660F771F8A95E2F7CB01842B08
:100EF0008BBB089548B321E030E0B90102C0660F12
:100F0000771F8A95E2F7CB01842B88BB089545B300
:100F100021E030E0B90102C0660F771F8A95E2F741
:100F2000CB01842B85BB089542B321E030E0B901A9
:100F300002C0660F771F8A95E2F7CB01842B82BB34
:100F4000089543B121E030E0B90102C0660F771F78
:100F50008A95E2F7CB01842B83B90895E2E6F0E0AD
:100F6000408121E030E0B90102C0660F771F8A9509
:100F7000E2F7CB01842B80830895E5E6F0E0408121
:100F800021E030E0B90102C0660F771F8A95E2F7D1
:100F9000CB01842B80830895E82FE695E695E695AE
:100FA0008770662321F0613009F472C008954E2FD6
:100FB00050E04730510508F0D4C0FA01EC5AFF4F19
:100FC0000C945C1D4AB321E030E0B90102C0660F09
:100FD000771F8A95E2F7CB01809584238ABB089519
:100FE00047B321E030E0B90102C0660F771F8A9550
:100FF000E2F7CB018095842387BB089544B321E0B9
:1010000030E0B90102C0660F771F8A95E2F7CB0185
:101010008095842384BB089541B321E030E0B90179
:1010200002C0660F771F8A95E2F7CB018095842373
:1010300081BB089542B121E030E0B90102C0660FE2
:10104000771F8A95E2F7CB018095842382B90895B2
:10105000E1E6F0E0408121E030E0B90102C0660F36
:10106000771F8A95E2F7CB018095842380830895CA
:10107000E4E6F0E0408121E030E0B90102C0660F13
:10108000771F8A95E2F7CB018095842380830895AA
:101090004E2F50E04730510508F063C0FA01E55A81
:1010A000FF4F0C945C1D4AB321E030E0B90102C04F
:1010B000660F771F8A95E2F7CB01842B8ABB0895D0
:1010C00047B321E030E0B90102C0660F771F8A956F
:1010D000E2F7CB01842B87BB089544B321E030E0D5
:1010E000B90102C0660F771F8A95E2F7CB01842B06
:1010F00084BB089541B321E030E0B90102C0660F1E
:10110000771F8A95E2F7CB01842B81BB089542B10A
:1011100021E030E0B90102C0660F771F8A95E2F73F
:10112000CB01842B82B90895E1E6F0E0408121E013
:1011300030E0B90102C0660F771F8A95E2F7CB0154
:10114000842B80830895E4E6F0E0408121E030E0E4
:10115000B90102C0660F771F8A95E2F7CB01842B95
:101160008083089590E087309105A0F4FC01EE594A
:10117000FF4F0C945C1D6BBB089568BB089565BB65
:10118000089562BB089563B908956093620008955D
:1011900060936500089590E087309105A0F4FC010C
:1011A000E759FF4F0C945C1D6ABB089567BB089517
:1011B00064BB089561BB089562B9089560936100AE
:1011C0000895609364000895607F90E087309105F2
:1011D000C8F5FC01E059FF4F0C945C1D8BB38F7078
:1011E0008BBB8BB3682B6BBB089588B38F7088BBA8
:1011F00088B3682B68BB089585B38F7085BB85B3B2
:10120000682B65BB089582B38F7082BB82B3682B55
:1012100062BB089583B18F7083B983B1682B63B9C2
:101220000895E2E6F0E080818F7080838081682BF2
:1012300060830895E5E6F0E080818F70808380818F
:10124000682B60830895662319F0613059F1089581
:1012500090E08830910508F04DC0FC01E958FF4F3F
:101260000C945C1D89B7816089BF089589B782603D
:1012700089BF089589B7846089BF089589B7886058
:1012800089BF089589B7806189BF089589B7806251
:1012900089BF089589B7806489BF089589B7806838
:1012A00089BF089590E08830910520F5FC01E15850
:1012B000FF4F0C945C1D89B78E7F89BF089589B755
:1012C0008D7F89BF089589B78B7F89BF089589B7BE
:1012D000877F89BF089589B78F7E89BF089589B7B1
:1012E0008F7D89BF089589B78F7B89BF089589B79E
:1012F0008F7789BF089590E08830910508F046C047
:10130000FC01E957FF4F0C945C1DEAE6F0E0808198
:10131000682B60830895EAE6F0E0808170E0660F54
:10132000771F660F771F682B60830895EAE6F0E069
:10133000808190E1699FB0011124682B608308953A
:10134000EAE6F0E0808190E4699FB0011124682B07
:10135000608308958AB7682B6ABF08958AB770E0E2
:10136000660F771F660F771F682B6ABF08958AB7CD
:1013700090E1699FB0011124682B6ABF08958AB774
:1013800090E4699FB0011124682B6ABF08958FB75C
:101390008F778FBF08958FB780688FBF0895809132
:1013A0000901882309F447C0813009F084C061E055
:1013B0008AE0F2DD61E089E0EFDD61E088E0ECDD0C
:1013C00060E08BE0E9DD61E088E000DD2DB1E9E07F
:1013D000F1E0908130E1939FC0011124822B8DB9FF
:1013E0009EB18281892B8EB99DB18181892B8DB966
:1013F0002DB1938130E2939FC0011124822B8DB9CE
:101400002DB1948130E8939FC0011124822B8DB9B6
:101410002DB19681892F90E0880F991F880F991F11
:10142000822B8DB92DB1958130E4939FC001112499
:10143000822B8DB9089560E08AE0AEDD60E089E03E
:10144000ABDD60E088E0A8DD61E08BE0A5DD2DB1DB
:10145000E9E0F1E0908130E1939FC0011124822BFB
:101460008DB99EB18281892B8EB99DB18181892BE5
:101470008DB92DB1938130E2939FC0011124822B4D
:101480008DB92DB1948130E8939FC0011124822B36
:101490008DB92DB19681892F90E0880F991F880F03
:1014A000991F822B8DB92DB1958130E4939FC00196
:1014B0001124822B8DB908958FB9779BFECF8FB100
:1014C0000895CF93DF93C82FD62F61E065DDDD232C
:1014D00019F0D13029F007C061E08C2F77DC03C010
:1014E00060E08C2F73DCDF91CF9108950F93CF9341
:1014F000DF93C82FD62F000F00937200813011F1B7
:1015000030F08230E1F1833009F466C099C0CA013D
:10151000B9010E94211C9B01AC010E94201B9B0170
:10152000AC0160E074E284E79BE40E94881B20E049
:1015300030E040E051E40E941F1B0E94F51B6093C5
:1015400070007EC0CA01B9010E94211C20E030E079
:1015500040E051E40E94D71C9B01AC0160E074E2C2
:1015600084E79BE40E94881B20E030E040E050E4E8
:101570000E941F1B0E94F51B6093700061C0DA017E
:10158000C901880F991FAA1FBB1F880F991FAA1F87
:10159000BB1F880F991FAA1FBB1F880F991FAA1F67
:1015A000BB1FBC01CD01660F771F881F991F0E94CA
:1015B000211C9B01AC0160E074E284E79BE40E9483
:1015C000881B20E030E040E05FE30E941F1B0E9488
:1015D000F51B6093700034C0DA01C901880F991FB0
:1015E000AA1FBB1F880F991FAA1FBB1F880F991F17
:1015F000AA1FBB1F880F991FAA1FBB1F880F991F07
:10160000AA1FBB1F880F991FAA1FBB1FBC01CD01BA
:10161000660F771F881F991F0E94211C9B01AC0138
:1016200060E074E284E79BE40E94881B20E030E0E5
:1016300040E05EE30E941F1B0E94F51B6093700058
:10164000E1E7F0E08081C370C82BC083E4E7F0E0FD
:1016500080816D2F6170682B64606083DF91CF9112
:101660000F910895E4E7F0E08081877080838081A6
:10167000806A8083809174008823E4F70895E4E70A
:10168000F0E0808187708083808180698083089505
:1016900080937300E4E7F0E080818770808380812D
:1016A00080688083809174008823E4F70895E4E7DC
:1016B000F0E0808187708083808180688083809162
:1016C00074008823E4F7809173000895809171007D
:1016D000887F08951F93CF93DF93182FD62FC42FA1
:1016E000C1DFF4DF8830E9F7812F880FD1DFEEDF2B
:1016F0008831E9F78D2FCCDFE9DF8832E9F78C2FCD
:10170000C7DFE4DF8832E9F7BADF80E0DF91CF910D
:101710001F9108950F931F93CF93DF93C82FD62F58
:101720008A01A0DFD3DF8830E9F78C2F880FB0DF84
:10173000CDDF8831E9F78D2FABDFC8DF8832E9F7DD
:1017400091DFC4DF8031E9F78C2F90E0880F991F7B
:1017500081609EDFBBDF8034E9F7A9DFF801808379
:101760008EDF80E0DF91CF911F910F910895A5E961
:10177000B0E02C91EDE1F1E0908130E4939FC00165
:101780001124822B8C932C91918130E1939FC00185
:101790001124822B8C932C919281892F90E0880FB9
:1017A000991F880F991F880F991F822B8C932AB13C
:1017B0009481892F90E0880F991F880F991F880FB7
:1017C000991F822B8AB92AB1958130E4939FC00179
:1017D0001124822B8AB92AB1968130E1939FC001EE
:1017E0001124822B8AB92AB1978130E8939FC001D6
:1017F0001124822B8AB98085882319F0813039F130
:1018000048C08BB18D7F8BB98091260190912701C3
:10181000A0912801B0912901880F991FAA1FBB1F11
:10182000880F991FAA1FBB1F9C01AD01220F331FF8
:10183000441F551F220F331F441F551F60E074E2E1
:1018400084EF90E00E943A1D2150310924C08BB1F1
:1018500082608BB98091260190912701A091280187
:10186000B0912901880F991FAA1FBB1F880F991FCC
:10187000AA1FBB1F9C01AD01220F331F441F551F20
:1018800060E074E284EF90E00E943A1D215031093B
:1018900002C020E030E03093900029B990912001FF
:1018A000943061F4E5E9F0E080818260808380819A
:1018B000846080838AB184608AB90895E5E9F0E0A4
:1018C0002081892F90E0880F991F822B80830895B3
:1018D000ADE9B0E02C91E0E1F1E0908130E4939F3C
:1018E000C0011124822B8C932C91918130E1939F24
:1018F000C0011124822B8C932C919281892F90E02E
:10190000880F991F880F991F880F991F822B8C931E
:10191000AAE9B0E02C919481892F90E0880F991F5B
:10192000880F991F880F991F822B8C932C9195817A
:1019300030E4939FC0011124822B8C932C919681CB
:1019400030E1939FC0011124822B8C932C919781BD
:1019500030E8939FC0011124822B8C9380858823CB
:1019600019F0813049F14CC0EBE9F0E080818D7FC6
:1019700080838091190190911A01A0911B01B0916F
:101980001C01880F991FAA1FBB1F880F991FAA1F30
:10199000BB1F9C01AD01220F331F441F551F220F97
:1019A000331F441F551F60E074E284EF90E00E94F3
:1019B0003A1D2150310926C0EBE9F0E080818260B8
:1019C00080838091190190911A01A0911B01B0911F
:1019D0001C01880F991FAA1FBB1F880F991FAA1FE0
:1019E000BB1F9C01AD01220F331F441F551F60E038
:1019F00074E284EF90E00E943A1D2150310902C048
:101A000020E030E0309398002093990090911301EA
:101A1000943071F4EDE9F0E0808182608083808110
:101A200084608083EAE9F0E08081846080830895A7
:101A3000EDE9F0E02081892F90E0880F991F822B3B
:101A40008083089590919B0095FFFCCF80939C002C
:101A500008950F931F93CF938C01C0E002C0F2DF73
:101A6000CF5FF801EC0FF11D80818111F8CFCF918C
:101A70001F910F910895CF93DF938BE090E064D294
:101A8000EC01009729F0FC0111921192CF0177D05F
:101A9000CE01DF91CF910895FC010FB6F8940F921B
:101AA000808191816095709568237923718360832B
:101AB0000F900FBE0895CF92DF92EF92FF920F9397
:101AC0001F93CF93DF937C018B01EC0125960E943D
:101AD000A717D7011796ED91FC9118978D919C91BE
:101AE0001197082B192B0D931C9300E010E02DC0CB
:101AF000C280D380808191819C01332792FD09C0EF
:101B0000D7014D915C9142235323452B61F440E072
:101B10000DC0D7014D915C91422353232417350703
:101B200021F040E003C041E001C041E0442359F00E
:101B300090FF02C0022B132BD7016D917C91726034
:101B4000CF010E949619EC2DFD2DEC17FD0781F6B3
:101B500000951095F7018081918108231923118345
:101B600000830E946618D7018D919C91DF91CF91DF
:101B70001F910F91FF90EF90DF90CF900895FC019F
:101B80000396928381832FEF3FEF348323839683E1
:101B900085839087878310820895FC0111861086C3
:101BA0000895CF93DF939C01FB01DC011196CD9149
:101BB000DC911297D383C2838C819D81958384832A
:101BC0008C819D81DC0113967C936E9312977D83AB
:101BD0006C8331872087F90180818F5F8083DF915B
:101BE000CF910895CF93DF93EB01488159814F3F07
:101BF0002FEF520721F4FC01A781B0850DC0DC0155
:101C0000139601C0DF011296ED91FC91139720818C
:101C1000318142175307B0F71296ED91FC9113975B
:101C2000FB83EA83D583C483BD83AC831396DC93A3
:101C3000CE93129799878887FC0120812F5F20839C
:101C4000DF91CF910895CF93DF93FC01A085B185FB
:101C5000C281D381848195819D838C83C481D58108
:101C6000828193819B838A8311968D919C91129797
:101C7000E817F90731F48481958112969C938E932D
:101C80001197118610868C9181508C938C91DF91E5
:101C9000CF9108951BBC89EF8ABD8BE08EBD87B7BD
:101CA000806187BF089531E1FC013083319722E2E2
:101CB00020833197A3E3A0833197608331977083AA
:101CC00031971082319760E86083319710823197A5
:101CD00062E06083319763E06083319764E0608302
:101CE000319765E06083319766E06083319767E004
:101CF0006083319768E06083319769E06083319752
:101D000060E1608331973083319732E130833197DE
:101D100033E13083319734E13083319735E13083DB
:101D2000319736E13083319737E13083319738E1AD
:101D30003083319739E13083319730E23083319706
:101D400031E2308331972083319723E2208331972A
:101D5000408331975083319726E22083319727E2E1
:101D60002083319728E22083319729E2208331971D
:101D700020E32083319721E32083869708958ADF2B
:101D8000A091A602B091A702CD91CDBFDD91DEBF9B
:101D9000FF91EF91DF91CF91BF91AF919F918F9183
:101DA0007F916F915F914F913F912F911F910F9173
:101DB000FF90EF90DF90CF90BF90AF909F908F906B
:101DC0007F906F905F904F903F902F901F900F905B
:101DD0000FBE0F90089581E008950F920FB6F8940A
:101DE0000F921F9211242F923F924F925F926F9207
:101DF0007F928F929F92AF92BF92CF92DF92EF929B
:101E0000FF920F931F932F933F934F935F936F9383
:101E10007F938F939F93AF93BF93CF93DF93EF9372
:101E2000FF93A091A602B091A7020DB60D920EB637
:101E30000D920E94E918A091A602B091A702CD913F
:101E4000CDBFDD91DEBFFF91EF91DF91CF91BF91CB
:101E5000AF919F918F917F916F915F914F913F9142
:101E60002F911F910F91FF90EF90DF90CF90BF9037
:101E7000AF909F908F907F906F905F904F903F902A
:101E80002F901F900F900FBE0F9008950F920FB6D6
:101E9000F8940F921F9211242F923F924F925F92CB
:101EA0006F927F928F929F92AF92BF92CF92DF926A
:101EB000EF92FF920F931F932F933F934F935F9354
:101EC0006F937F938F939F93AF93BF93CF93DF9342
:101ED000EF93FF93A091A602B091A7020DB60D92C9
:101EE0000EB60D920E94AD1781110E94E918A091C3
:101EF000A602B091A702CD91CDBFDD91DEBFFF91CB
:101F0000EF91DF91CF91BF91AF919F918F917F9191
:101F10006F915F914F913F912F911F910F91FF9082
:101F2000EF90DF90CF90BF90AF909F908F907F9079
:101F30006F905F904F903F902F901F900F900FBE2B
:101F40000F900895A3DF1895CF93DF93EC01FFD78F
:101F5000CE010E94841DEC010E946618CE01DF9123
:101F6000CF910895CF93DF93009739F0EC01EFD72D
:101F7000CE010E941C1E0E946618DF91CF91089529
:101F8000DC0151962C915197222341F05696ED9108
:101F9000FC91579790818AE0891B089580E008950D
:101FA0000FB6F8940F92FC01828D811102C081E07E
:101FB00001C080E00F900FBE08950FB6F8940F9205
:101FC000FC01228D838D281302C081E001C080E0D6
:101FD0000F900FBE08950F931F93CF93DF93EC01E3
:101FE000042F1A8D4C8D41110CC088819981892B49
:101FF00009F042C08C819D810E947D1A1D821C8245
:1020000042C0011117C050E08A819B810E94CE1E00
:102010002C8D8A819B81820F911D9B838A832C81C9
:102020003D818217930750F1888199819B838A8330
:1020300080E029C050E08E819F810E94CE1E8C8D51
:1020400090E09195819591092E813F81280F391F4C
:102050003F832E83488159812417350730F42C8122
:102060003D81820F931F9F838E83023049F4112399
:1020700049F0115080E007C080E005C080E003C057
:1020800080E001C080E01F5F1A8FDF91CF911F9128
:102090000F9108951F93CF93DF93EC010FB6F8943F
:1020A0000F921E8D0BC08989882351F0CE01419675
:1020B0000E944E1981110E94071A115011169CF3AB
:1020C0008FEF8E8F0F900FBE0FB6F8940F921D8D6D
:1020D0000BC08885882351F0CE0108960E944E19C6
:1020E00081110E94071A115011169CF38FEF8D8FEA
:1020F0000F900FBEDF91CF911F910895CF93DF9383
:10210000EC010FB6F8940F92E881F9818B8D2C8D3C
:1021100090E030E0829FA001839F500D929F500D70
:1021200011244E0F5F1F5D834C831A8EFB83EA835D
:102130000197289FA001299F500D389F500D112411
:10214000CF01840F951F9F838E838FEF8D8F8E8F8E
:1021500061110BC08885882371F0CE0108960E941A
:102160004E19882341F039DE06C0CE01089607DDFE
:10217000CE01419604DD0F900FBE81E0DF91CF913B
:1021800008950F931F93F801611103C01183008319
:1021900002C051834083838F648F61E0CF01AEDF43
:1021A0001F910F910895DF92EF92FF920F931F936B
:1021B000CF93DF93E82EF62ED42E662321F0869F50
:1021C000C001112402C080E090E04F96BDDEEC011A
:1021D000009741F08C012D2DAC01415E5F4F6F2DBA
:1021E0008E2DCFDFCE01DF91CF911F910F91FF9008
:1021F000EF90DF900895CF93C62F42E060E0D3DFE9
:10220000009711F0FC01C28FCF910895CF92DF9219
:10221000EF92FF920F931F93CF93DF9300D000D0E4
:102220001F92CDB7DEB78C017B015D834C83C22E3C
:10223000D12C0FB6F8940F92F801928D838D9817D8
:1022400018F0F2E0CF1216C04C2DB701C801C3DE62
:10225000F8019189992341F0C80141960E944E19D5
:10226000882321F0BADD02C08111B7DD0F900FBEC7
:1022700081E043C08C819D81892B21F40F900FBE9A
:1022800080E03BC0D11006C0CE0101960E94CE195D
:10229000DD24D3940F900FBE5AD60FB6F8940F9248
:1022A000F801858D8F3F09F4158EF801868D8F3FDB
:1022B00009F4168E0F900FBEBE016C5F7F4FCE01EA
:1022C00001960E94D919811114C0C80176DE8823B5
:1022D00061F06C817D81C8010896CFD7C801DADE34
:1022E000F5D68111A6CF79DDA4CFC801D3DEEED615
:1022F000A0CFC801CFDEEAD680E00F900F900F90FC
:102300000F900F90DF91CF911F910F91FF90EF9061
:10231000DF90CF900895009761F0FC011582148240
:1023200011821082168220E040E050E060E070E010
:102330006DCF0895CF93DF93482F60E081E033DFC6
:10234000EC01E9DFCE01DF91CF910895CF93DF93C8
:10235000FC01828D938D8917B8F4968D8F5F828FE3
:102360009F3F71F48189882389F0EB01CF01419669
:1023700095D7882369F0209769F081E088830BC0A6
:102380009F5F968F81E007C080E005C081E003C0B9
:1023900081E001C081E0DF91CF910895EF92FF923B
:1023A0000F931F93CF93DF9300D000D01F92CDB730
:1023B000DEB78C017D836C83E12CF12C0FB6F89491
:1023C0000F92F801828D8823C1F08150828F808125
:1023D0009181892B29F40E940D1BF8019583848338
:1023E000F8018085882329F0C801089657D7811104
:1023F000F4DC0F900FBE81E065C08C819D81892B3C
:1024000021F40F900FBE80E05DC0F11005C0CE0139
:102410000196C4D7FF24F3940F900FBE98D50FB642
:10242000F8940F92F801858D8F3F09F4158EF8010D
:10243000868D8F3F09F4168E0F900FBEBE016C5F24
:102440007F4FCE010196B5D7811122C0C801A8DD0A
:102450008823D1F0F80180819181892B49F40FB64E
:10246000F8940F9284819581D6D7E82E0F900FBEF5
:102470006C817D81C801419600D7C8010BDE26D64C
:1024800081119CCFAADC9ACFC80104DE1FD696CF5B
:10249000C80100DE1BD6C80183DD882309F48ECF76
:1024A000EE2079F00FB6F8940F92C80169DD682F1D
:1024B000F801848195810E94BD1A0F900FBE80E0C3
:1024C00001C080E00F900F900F900F900F90DF9160
:1024D000CF911F910F91FF90EF90089564E670E007
:1024E000809197079091980759DF8130F9F40E9405
:1024F000A202833061F461E080E30E94E60667E0B7
:1025000070E08091950790919607D5DA0FC00E94F0
:10251000A202823059F460E080E30E94E60667E0A0
:1025200070E08091950790919607B6DA80E590E08B
:102530003DD6D4CF60E070E08091950790919607EA
:10254000ABDA80FF57C06AE070E080919907909104
:102550009A0724DF813009F04DC06FEF7FEF809143
:102560009207909193071ADF813009F043C083E509
:1025700091E06FDA0E941C038CE497E06ADA88E548
:1025800091E067DAC1E7D7E0888190E00E947A03A2
:1025900089E297E05EDA09E217E00F2EF4E1FF2E00
:1025A000F02DF8018F2D11928A95E9F788E591E0D9
:1025B00050DA8A8190E00E94A803C8014ADA88E5CF
:1025C00091E047DAF8011192FA94E9F78F8190E0EF
:1025D0000E94D10285E897E03CDA8AE591E039DA99
:1025E00020E040E050E060E070E080919207909140
:1025F00093070CDE88EB9BE0D9D59CCF60E070E0C0
:10260000809195079091960747DA80FF1FC06AE096
:1026100070E08091900790919107C0DE8130B1F415
:102620006FEF7FEF8091920790919307B7DE813033
:1026300069F48EE591E00DDA20E040E050E060E0E2
:1026400070E08091920790919307E0DD84EF91E034
:10265000ADD5D4CF60E070E080919507909196075A
:102660001BDA80FF1FC06AE070E080918E079091B6
:102670008F0794DE8130B1F46FEF7FEF8091920786
:10268000909193078BDE813069F480E791E0E1D986
:1026900020E040E050E060E070E08091920790918F
:1026A0009307B4DD88E592E081D5D4CFCF93DF9353
:1026B000CDB7DEB760970FB6F894DEBF0FBECDBFC3
:1026C00082E00E940A05682F606282E00E94F504A1
:1026D00083E00E940A05682F606883E00E94F50489
:1026E00060E070E08091950790919607D5D980FFC2
:1026F00044C060E081E30E94E606BE016F5F7F4F49
:1027000082E50E9432068130C1F5CE0101960E9419
:102710006506813091F56FEF7FEF80919207909180
:1027200093073CDE813049F561E081E30E94E606D3
:1027300086E891E08ED9CE0101968BD98CE891E0A4
:1027400088D90E94F20461E081E00E94930481E94B
:1027500091E00E94E60461E082E00E9493048CE92B
:1027600091E00E94E60420E040E050E060E070E08C
:10277000809192079091930749DD88E790E016D504
:10278000AFCF0E94BC020E94850260E084E00E94FC
:10279000230960E085E00E94230963E084E00E9451
:1027A0007B0963E085E00E947B0961E080E30E9491
:1027B000CC0761E081E30E94CC070E94CB090E9414
:1027C00023050E94AC010E9441020E94FD010C946D
:1027D00014040895EF92FF920F932FEF8BE792E985
:1027E000215080409040E1F700C00000CADF60E067
:1027F00081E001DD909398078093970760E081E086
:10280000FADC909391078093900760E081E0F3DC1D
:1028100090938F0780938E0760E081E0ECDC9093CB
:102820009A078093990781E085DD909393078093C1
:10283000920721D99093960780939507E12CF12C6C
:1028400009E020E030E045E550E06AEA71E08EE61C
:1028500092E105D307E020E030E044EF51E06AEB7D
:1028600071E08AE992E1FBD220E030E048EC50E0F0
:1028700066EC71E086E593E1F2D208E020E030E01A
:1028800045E550E065ED71E08EEF92E1E8D220E0A1
:1028900030E045E550E064EE71E08AE293E1DFD29A
:1028A0000E94F20461E081E00E94930487EF91E0CE
:1028B0000E94E60461E082E00E94930482E092E0DC
:1028C0000E94E6041BD30F91FF90EF9008951F9292
:1028D0000F920FB60F9211240BB60F922F933F93C6
:1028E0004F935F936F937F938F939F93AF93BF9318
:1028F000EF93FF9360E070E08091900790919107D3
:1029000025DD44E957E060E383E50E948A0BFF91EF
:10291000EF91BF91AF919F918F917F916F915F9157
:102920004F913F912F910F900BBE0F900FBE0F90C4
:102930001F9018951F920F920FB60F9211240BB68D
:102940000F922F933F934F935F936F937F938F9348
:102950009F93AF93BF93EF93FF9360E070E08091FC
:102960008E0790918F07F2DC44E957E060E383E53E
:102970000E948A0BFF91EF91BF91AF919F918F9130
:102980007F916F915F914F913F912F910F900BBE6F
:102990000F900FBE0F901F9018951F920F920FB6B9
:1029A0000F9211240BB60F922F933F934F935F9387
:1029B0006F937F938F939F93AF93BF93EF93FF9307
:1029C0000E94C70990919C00909390068091910677
:1029D000E82FF0E0E855FD4F90838F5F80939106DC
:1029E000843611F40E94960260E070E080919707AF
:1029F00090919807ABDC0E94CB09FF91EF91BF91BA
:102A0000AF919F918F917F916F915F914F913F9186
:102A10002F910F900BBE0F900FBE0F901F90189527
:102A20001F920F920FB60F9211240BB60F922F9395
:102A30003F934F935F936F937F938F939F93AF9346
:102A4000BF93EF93FF930E94C7098CB180938D07CA
:102A5000843259F410925E0710925D0710925C0761
:102A600010925B071092140245C0909114029130AD
:102A700029F58C3299F420915B0730915C07A9010C
:102A80004F5F5F4F50935C0740935B0740915D073A
:102A900050915E07F901EF58F84F408320915D0790
:102AA00030915E07A9014F5F5F4F50935E074093DF
:102AB0005D07F901ED56F94F80831CC090915F07C7
:102AC000973489F490916007973469F49091610785
:102AD000913449F481E080931402EFE5F7E010822D
:102AE0001182128207C0EFE5F7E091819083928115
:102AF0009183828360E070E08091990790919A07BA
:102B000025DC0E94CB09FF91EF91BF91AF919F917E
:102B10008F917F916F915F914F913F912F910F9086
:102B20000BBE0F900FBE0F901F901895E0913802CA
:102B3000F09139028081811107C08FEF9FEF909350
:102B40001902809318020895E0913802F091390239
:102B50000580F681E02D0680F781E02D828193814A
:102B600090931902809318020895CF93DF93EC019C
:102B70008F89988DF7D9CE01F5D9DF91CF9108953E
:102B80006F927F928F929F92AF92BF92CF92DF927D
:102B9000EF920F931F93CF93DF93CDB7DEB74C0126
:102BA000F5018789908D215031093C01620E731E19
:102BB0006115710589F416C0822F90E0FB01E80FC2
:102BC000F91F3081D501A80FB91F59963C93808118
:102BD000882329F02F5F01C020E0283068F3F50139
:102BE00010A202C0F501118EF9E0FE1520F40F2E9F
:102BF000F9E0EF2EF02DF501E68AE1A212A2C5015F
:102C000002960E94CD0DC5010C960E94CD0DF501D6
:102C1000B186A0868AE090E08E1991099587848715
:102C2000B38AA28A13A214A215A216A217A2A801FF
:102C3000B401C30138D8F50191838083C114D10454
:102C400019F0F601B182A082DF91CF911F910F910F
:102C5000EF90DF90CF90BF90AF909F908F907F903C
:102C60006F900895CF93C0E010C08C2F90E09C012E
:102C7000220F331F220F331F220F331F820F931F88
:102C8000845B9D4F0E94BF0DCF5FCA3070F383E419
:102C900092E00E94BF0D8AE392E00E94BF0D8DE298
:102CA00092E00E94BF0D84E292E00E94BF0D83E497
:102CB00092E090933902809338028AE392E09093F5
:102CC000370280933602CF910895CF93DF93EC01C2
:102CD0000FB6F8940F92809122028F5F80932202A8
:102CE0008091A6029091A702892B51F4D093A7025C
:102CF000C093A60280912202813091F4B3DF10C00C
:102D000080911E0281110CC0E091A602F091A702F1
:102D100096898E89891720F0D093A702C093A602C6
:102D200080911A028F5F80931A028E8990911F0200
:102D3000981710F480931F0290E09C01220F331F1C
:102D4000220F331F220F331F820F931FBE016E5FAE
:102D50007F4F845B9D4F0E94D10D0F900FBE8091DD
:102D60001E02882349F0E091A602F091A7029689FD
:102D70008E89981708F431D8DF91CF910895CF93B9
:102D8000DF931BC00FB6F8940F92E0912902F091E7
:102D90002A02C681D781CE0102960E94230E80911D
:102DA00022028150809322028091230281508093DD
:102DB00023020F900FBECE01D8DE80912302811135
:102DC000E1CFDF91CF910895DADF80914C0282301C
:102DD000D8F303D8F9CF0F931F93CF93DF93EC0170
:102DE00000912002109121028091A6029091A702E9
:102DF00002960E94230EC00FD11FE091A602F0910F
:102E0000A702D383C283C017D10768F46091A602DA
:102E10007091A70280913602909137026E5F7F4FCA
:102E20000E94F20D17C06091A6027091A7028091D6
:102E30003802909139026E5F7F4F0E94F20D8091AF
:102E4000180290911902C817D90720F4D0931902DB
:102E5000C0931802DF91CF911F910F9108952F9287
:102E60003F924F925F926F927F928F929F92AF921A
:102E7000BF92CF92DF92EF92FF920F931F93CF9367
:102E8000DF933C011B015A012901CA015DD86C0185
:102E9000892B61F088E290E057D8EC01892B19F07A
:102EA000D88ECF8A05C0C6015DD802C0C0E0D0E090
:102EB000209781F0950140E050E0812C912C5E013B
:102EC0006701E02E8201B101C3015ADECE01FDDEB1
:102ED00081E001C08FEFDF91CF911F910F91FF90A3
:102EE000EF90DF90CF90BF90AF909F908F907F90AA
:102EF0006F905F904F903F902F900895EF92FF92C8
:102F00000F930F2EF6E1EF2EF2E0FF2EF02D00E0F2
:102F100020E030E045E550E06EE072E084EE96E1BE
:102F20009EDF813081F4F8948FEF9FEF9093190228
:102F30008093180281E080931E0210922102109269
:102F400020020E94BF0E0F91FF90EF900895809194
:102F500015028F5F809315020895DF92EF92FF9222
:102F60000F931F93CF93DF9380911502811196C029
:102F7000E0902002F09021028FEFE81AF80AF09218
:102F80002102E0922002E114F104B1F480913802B0
:102F900090913902209136023091370230933902F4
:102FA00020933802909337028093360280911B025F
:102FB0008F5F80931B02BADD8091180290911902F5
:102FC000E816F90628F4D12C53C0DD24D39401C0AF
:102FD000D12CE0913802F09139028081811107C033
:102FE0008FEF9FEF909319028093180241C0E091F8
:102FF0003802F09139020580F681E02DC681D78133
:103000008A819B81E816F90628F49093190280932F
:1030100018022EC08E010E5F1F4FC8010E94230EA2
:103020008C899D89892B21F0CE010C960E94230E5C
:103030008E8990911F02981710F480931F0290E0E0
:103040009C01220F331F220F331F220F331F820FC9
:10305000931FB801845B9D4F0E94D10D9E89E09122
:10306000A602F091A7028689981708F0AECFB1CFDB
:10307000E091A602F091A702868990E0FC01EE0F94
:10308000FF1FEE0FFF1FEE0FFF1F8E0F9F1FFC0194
:10309000E45BFD4F8081823040F409C080911D02C5
:1030A0008F5F80931D02D12C02C0DD24D3948091C8
:1030B0001C02882311F0DD24D3948D2DDF91CF9154
:1030C0001F910F91FF90EF90DF9008950F931F9342
:1030D000CF93DF930FB6F8940F9280911502815031
:1030E0008093150280911502811156C080912202B1
:1030F000811133C054C0E0913202F0913302C68195
:10310000D781CE010C960E94230E8E010E5F1F4FB9
:10311000C8010E94230E8E8990911F02981710F407
:1031200080931F0290E09C01220F331F220F331F58
:10313000220F331F820F931FB801845B9D4F0E94A3
:10314000D10D9E89E091A602F091A7028689981779
:1031500030F081E080931C0202C0C0E0D0E080919A
:103160002D028111C8CFCD2B09F0E0DCC0911D02EA
:10317000CC2351F0F2DE882319F081E080931C0209
:10318000C150C1F710921D0280911C02882331F0BA
:103190000E94ED0E81E003C080E001C080E00F904E
:1031A0000FBEDF91CF911F910F910895CF93DF93C1
:1031B000EC01892B31F0CBDE60E0CE010CDE86DF46
:1031C00001C080E0811102C00E94ED0EDF91CF911D
:1031D000089580911502882321F081E080931C02DC
:1031E000089510921C0220911F0201C02150822FCD
:1031F00090E0FC01EE0FFF1FEE0FFF1FEE0FFF1F11
:10320000E80FF91FE45BFD4F3081332379F3AC0104
:10321000440F551F440F551F440F551F480F591F8A
:10322000DF010180F281E02D0280F381E02D129612
:10323000FC93EE931197415B5D4FE417F50729F47A
:1032400042815381FD0152834183FC01EE0FFF1F38
:10325000EE0FFF1FEE0FFF1F8E0F9F1FFC01E45BA1
:10326000FD4F0180F281E02D868197819093A70226
:103270008093A60220931F020895CF93DF93EB0162
:103280006091A6027091A702645F7F4F0E94F20DC9
:1032900061E0CE01A0DDDF91CF9108950F931F93E0
:1032A000CF93DF93DC011596ED91FC911697C681C3
:1032B000D7818E01045F1F4FC8010E94230E8091A9
:1032C000150281111CC00A501109C8010E94230E69
:1032D0008E8990911F02981710F480931F0290E03E
:1032E0009C01220F331F220F331F220F331F820F27
:1032F000931FB801845B9D4F0E94D10D05C0B8019A
:103300008DE292E00E94D10D9E89E091A602F0919B
:10331000A7028689891720F481E080931C0201C0EE
:1033200080E0DF91CF911F910F9108950F931F932C
:10333000CF93DF937068FC0171836083C681D7816E
:103340000E94230E8E010E5F1F4FC8010E94230EA4
:103350008E8990911F02981710F480931F0290E0BD
:103360009C01220F331F220F331F220F331F820FA6
:10337000931FB801845B9D4F0E94D10D9E89E091FF
:10338000A602F091A7028689891718F481E080933C
:103390001C02DF91CF911F910F91089520911B0284
:1033A000FC0120832091200230912102328321836D
:1033B0000895CF93DF930FB6F8940F9240912002B7
:1033C00050912102EC0129813A81DA01A21BB30B51
:1033D000F881E0911B02FE1719F04217530788F499
:1033E000FB0120813181A217B30738F42A1B3B0B64
:1033F00031832083D3DF80E005C01182108281E019
:1034000001C081E00F900FBEDF91CF91089581E060
:1034100080931C0208950F931F93CF93DF93FC01B9
:10342000892B09F462C02689A091A602B091A70257
:1034300056968C91281708F04EC08485958599235F
:1034400064F0A091A602B091A70256963C918AE042
:1034500090E0831B9109958784878285938530E06E
:10346000A901440F551F440F551F440F551F240F2A
:10347000351F245B3D4F8217930721F58F01EF0124
:103480002296CE010E94230EE091A602F091A7029F
:103490008689F801868B90911F02981710F480930B
:1034A0001F0290E09C01220F331F220F331F220FB7
:1034B000331F820F931FBE01845B9D4F0E94D10D6D
:1034C00081E016C0A091A602B091A70256968C91F9
:1034D000868B81E00DC091A1E091A602F091A70238
:1034E0008689981720F080E003C080E001C081E069
:1034F000DF91CF911F910F9108950F931F93CF9359
:10350000DF93FC01892B79F182A1815082A3268966
:1035100091A1291751F181112AC0EF018F010E5F8E
:103520001F4FC8010E94230E89A18E8B2AE030E034
:10353000281B31093D872C8790911F02981710F4A2
:1035400080931F0290E09C01220F331F220F331F34
:10355000220F331F820F931FB801845B9D4F0E947F
:10356000D10D81E005C080E003C080E001C080E0B3
:10357000DF91CF911F910F9108950F931F93CF93D8
:10358000DF93FC01892B09F443C091A1961708F43D
:10359000962F86899817E1F122A12130C9F5968BE3
:1035A00024853585332334F02AE030E0291B3109A6
:1035B000358724872285338590E0AC01440F551F61
:1035C000440F551F440F551F840F951F845B9D4F5B
:1035D00028173907E9F4EF018F010E5F1F4FC8016B
:1035E0000E94230E8E8990911F02981710F48093E9
:1035F0001F0290E09C01220F331F220F331F220F66
:10360000331F820F931FB801845B9D4F0E94D10D21
:10361000DF91CF911F910F9108958091A602909113
:10362000A702892B39F0E091A602F091A70282A1AE
:103630008F5F82A38091A6029091A70208955058AF
:10364000BB27AA270ED075C166D130F06BD120F010
:1036500031F49F3F11F41EF45BC10EF4E095E7FBDB
:1036600051C1E92F77D180F3BA1762077307840736
:10367000950718F071F49EF58FC10EF4E0950B2EAE
:10368000BA2FA02D0B01B90190010C01CA01A001B4
:103690001124FF27591B99F0593F50F4503E68F10F
:1036A0001A16F040A22F232F342F4427585FF3CF50
:1036B000469537952795A795F0405395C9F77EF421
:1036C0001F16BA0B620B730B840BBAF09150A1F06A
:1036D000FF0FBB1F661F771F881FC2F70EC0BA0FF0
:1036E000621F731F841F48F4879577956795B79578
:1036F000F7959E3F08F0B3CF9395880F08F0992770
:10370000EE0F979587950895D9D008F481E0089534
:103710000CD00FC107D140F0FED030F021F45F3F54
:1037200019F0F0C0511139C1F3C014D198F39923A5
:10373000C9F35523B1F3951B550BBB27AA27621775
:103740007307840738F09F5F5F4F220F331F441FBA
:10375000AA1FA9F333D00E2E3AF0E0E830D09150F2
:103760005040E695001CCAF729D0FE2F27D0660FDF
:10377000771F881FBB1F261737074807AB07B0E81E
:1037800009F0BB0B802DBF01FF2793585F4F2AF034
:103790009E3F510568F0B6C000C15F3FECF3983E14
:1037A000DCF3869577956795B795F7959F5FC9F791
:1037B000880F911D9695879597F90895E1E0660F1A
:1037C000771F881FBB1F621773078407BA0720F093
:1037D000621B730B840BBA0BEE1F88F7E0950895FC
:1037E00004D06894B111D9C00895BCD088F09F5717
:1037F00090F0B92F9927B751A0F0D1F0660F771F3D
:10380000881F991F1AF0BA95C9F712C0B13081F01C
:10381000C3D0B1E00895C0C0672F782F8827B85F64
:1038200039F0B93FCCF3869577956795B395D9F77D
:103830003EF490958095709561957F4F8F4F9F4F87
:103840000895E89409C097FB3EF490958095709593
:1038500061957F4F8F4F9F4F9923A9F0F92F96E9DC
:10386000BB279395F695879577956795B795F11151
:10387000F8CFFAF4BB0F11F460FF1BC06F5F7F4FEE
:103880008F4F9F4F16C0882311F096E911C0772300
:1038900021F09EE8872F762F05C0662371F096E809
:1038A000862F70E060E02AF09A95660F771F881FD8
:1038B000DAF7880F9695879597F90895990F00087C
:1038C000550FAA0BE0E8FEEF16161706E807F907F2
:1038D000C0F012161306E407F50798F0621B730B8D
:1038E000840B950B39F40A2661F0232B242B252B0E
:1038F00021F408950A2609F4A140A6958FEF811DB1
:10390000811D089597F99F6780E870E060E0089551
:103910009FEF80EC089500240A94161617061806E7
:103920000906089500240A941216130614060506C3
:103930000895092E0394000C11F4882352F0BB0F54
:1039400040F4BF2B11F460FF04C06F5F7F4F8F4FB7
:103950009F4F089557FD9058440F551F59F05F3FF2
:1039600071F04795880F97FB991F61F09F3F79F0A1
:1039700087950895121613061406551FF2CF469523
:10398000F1DF08C0161617061806991FF1CF8695A5
:103990007105610508940895E894BB276627772789
:1039A000CB0197F908958ADF08F48FEF08950BD0C3
:1039B000C0CFB1DF28F0B6DF18F0952309F0A2CF11
:1039C000A7CF1124EACFC6DFA0F3959FD1F3950FBF
:1039D00050E0551F629FF001729FBB27F00DB11D93
:1039E000639FAA27F00DB11DAA1F649F6627B00D23
:1039F000A11D661F829F2227B00DA11D621F739F0C
:103A0000B00DA11D621F839FA00D611D221F749F19
:103A10003327A00D611D231F849F600D211D822F60
:103A2000762F6A2F11249F5750408AF0E1F08823A7
:103A30004AF0EE0FFF1FBB1F661F771F881F9150B4
:103A40005040A9F79E3F510570F05CCFA6CF5F3F75
:103A5000ECF3983EDCF3869577956795B795F795E7
:103A6000E7959F5FC1F7FE2B880F911D969587956F
:103A700097F90895A1E21A2EAA1BBB1BFD010DC0E8
:103A8000AA1FBB1FEE1FFF1FA217B307E407F5070E
:103A900020F0A21BB30BE40BF50B661F771F881FEA
:103AA000991F1A9469F760957095809590959B0180
:103AB000AC01BD01CF010895EE0FFF1F0024001CD3
:103AC0000BBE0790F691E02D0994EF920F931F9390
:103AD000CF93DF93E80147FD02C034E001C034E139
:103AE000042E000C550B57FF03C051954195510909
:103AF000E32E022F242FAE01A1D3CE01DF91CF916F
:103B00001F910F91EF9008950F931F93CF93DF9321
:103B10008230910510F482E090E0E0919D07F091F1
:103B20009E0720E030E0A0E0B0E0309719F140813E
:103B300051810281138148175907C8F084179507EE
:103B400069F4109731F012960C93129713961C9308
:103B500027C000939D0710939E0722C021153105B1
:103B600019F04217530718F49A01BD01EF01DF0164
:103B7000F801DBCF21153105F9F0281B390B243072
:103B8000310580F48A819B816115710521F0FB016B
:103B90009383828304C090939E0780939D07FE01C8
:103BA000329644C0FE01E20FF31F8193919322509D
:103BB0003109398328833AC020919B0730919C07B3
:103BC000232B41F4209102013091030130939C0793
:103BD00020939B07209100013091010121153105AF
:103BE00041F42DB73EB74091040150910501241BCB
:103BF000350BE0919B07F0919C07E217F307A0F4C7
:103C00002E1B3F0B2817390778F0AC014E5F5F4F32
:103C10002417350748F04E0F5F1F50939C074093C1
:103C20009B078193919302C0E0E0F0E0CF01DF9128
:103C3000CF911F910F910895CF93DF93009709F4CF
:103C400081C0FC01329713821282A0919D07B0912E
:103C50009E07109781F420813181820F931F20915C
:103C60009B0730919C072817390751F5F0939C0763
:103C7000E0939B0767C0ED0120E030E0CE17DF073F
:103C800040F44A815B819E0141155105F1F0EA0142
:103C9000F5CFD383C28340815181840F951FC8170C
:103CA000D90759F488819981840F951F02969183D1
:103CB00080838A819B81938382832115310529F436
:103CC000F0939E07E0939D073DC0E901FB83EA83E3
:103CD00049915991C40FD51FEC17FD0761F48081FC
:103CE0009181840F951F0296E901998388838281CF
:103CF00093819B838A83E0E0F0E012968D919C9102
:103D00001397009719F0FD01DC01F7CF8D919C917D
:103D100011979D012E5F3F4F820F931F20919B07AC
:103D200030919C072817390769F4309729F41092CD
:103D30009E0710929D0702C013821282B0939C07C7
:103D4000A0939B07DF91CF91089566277727ECC357
:103D50001F93FC0199278827BC01E8941191103228
:103D6000E9F3193010F01E30C8F31B3249F01D3250
:103D700041F4689405C022D0610F711D811D911D11
:103D8000119110531A30B8F33EF4909580957095C8
:103D900061957F4F8F4F9F4F1F910895FB01DC016D
:103DA00002C001900D9241505040D8F70895DC01B7
:103DB00001C06D9341505040E0F70895592F482FAE
:103DC000372F262F660F771F881F991F660F771FC3
:103DD000881F991F620F731F841F951F660F771F1F
:103DE000881F991F08950F931F93CF93DF93CDB72B
:103DF000DEB72E970FB6F894DEBF0FBECDBF0D898C
:103E00001E8986E08C831A8309838FEF9FE79E8348
:103E10008D83AE01475E5F4F6F89788DCE0101962D
:103E200010D0EF81F885E00FF11F10822E960FB6AB
:103E3000F894DEBF0FBECDBFDF91CF911F910F91E0
:103E400008952F923F924F925F926F927F928F923E
:103E50009F92AF92BF92CF92DF92EF92FF920F9319
:103E60001F93CF93DF93CDB7DEB72B970FB6F894A0
:103E7000DEBF0FBECDBF6C017B018A01FC01178242
:103E80001682838181FFBFC1CE0101963C01F601FC
:103E90009381F70193FD859193FF81917F018823A1
:103EA00009F4ADC1853239F493FD859193FF819179
:103EB0007F01853221F4B60190E099D5E8CF912CAD
:103EC000212C312CFFE1F315D8F08B3279F038F446
:103ED000803279F08332A1F4232D20611DC08D3210
:103EE00061F0803369F4232D216016C0832D826038
:103EF000382EE32DE4603E2E2AC0F32DF8601DC05D
:103F000037FC2DC020ED280F2A3040F08E32B9F456
:103F100036FC75C1232D2064322E19C036FE06C032
:103F20008AE0989E200D1124922E11C0EAE02E9E68
:103F3000200D1124222EF32DF0623F2E08C08C3666
:103F400021F4832D8068382E02C0883641F4F701B1
:103F500093FD859193FF81917F018111B3CF982FBC
:103F60009F7D9554933028F40C5F1F4F9FE39983F6
:103F70000DC0833631F0833771F0833509F055C0B9
:103F800020C0F801808189830E5F1F4F88248394AD
:103F9000912C530112C02801F2E04F0E511CF80180
:103FA000A080B18036FE03C0692D70E002C06FEFC3
:103FB0007FEFC50111D54C018201F32DFF773F2E14
:103FC00015C0280122E0420E511CF801A080B180EA
:103FD00036FE03C0692D70E002C06FEF7FEFC501B0
:103FE000F0D44C01F32DF0683F2E820133FC19C050
:103FF000822D90E088169906A0F4B60180E290E048
:10400000F6D42A94F5CFF50137FC859137FE8191DE
:104010005F01B60190E0EBD421102A9421E0821ACE
:1040200091088114910479F7E1C0843611F0893642
:1040300039F5F80137FE07C0608171818281938173
:104040000C5F1F4F08C060817181072E000C880B28
:10405000990B0E5F1F4FF32DFF763F2E97FF09C080
:1040600090958095709561957F4F8F4F9F4FF06829
:104070003F2E2AE030E0A301F6D4882E861844C0F3
:10408000853731F4232D2F7EB22E2AE030E025C073
:10409000932D997FB92E8F36C1F018F4883579F0B9
:1040A000AEC0803719F0883721F0A9C0E92FE06150
:1040B000BE2EB4FE0DC0FB2DF460BF2E09C034FE31
:1040C0000AC0292F2660B22E06C028E030E005C0C5
:1040D00020E130E002C020E132E0F801B7FE07C085
:1040E00060817181828193810C5F1F4F06C0608166
:1040F000718180E090E00E5F1F4FA301B4D4882E41
:104100008618FB2DFF773F2E36FE0DC0232D2E7F08
:10411000A22E891458F434FE0BC032FC09C0832D42
:104120008E7EA82E05C0B82CA32C03C0B82C01C0CD
:10413000B92CA4FE0FC0FE01E80DF11D8081803373
:1041400021F49A2D997EA92E09C0A2FE06C0B3942F
:10415000B39404C08A2D867809F0B394A3FC10C0F0
:10416000A0FE06C0B21480F4280C922C9B180DC03F
:10417000B21458F4B60180E290E039D4B394F8CF89
:10418000B21418F42B1802C0982C212CA4FE0FC0D6
:10419000B60180E390E02BD4A2FE16C0A1FC03C0C0
:1041A00088E790E002C088E590E0B6010CC08A2D57
:1041B000867851F0A1FE02C08BE201C080E2A7FC2C
:1041C0008DE2B60190E013D4891430F4B60180E397
:1041D00090E00DD49A94F8CF8A94F301E80DF11D84
:1041E0008081B60190E003D48110F6CF222009F43B
:1041F0004ECEB60180E290E0FAD32A94F7CFF601D2
:104200008681978102C08FEF9FEF2B960FB6F894AF
:10421000DEBF0FBECDBFDF91CF911F910F91FF90F9
:10422000EF90DF90CF90BF90AF909F908F907F9056
:104230006F905F904F903F902F9008958F929F9234
:10424000AF92BF92CF92DF92EF92FF920F931F93A4
:10425000CF93DF93CDB7DEB729970FB6F894DEBFC3
:104260000FBECDBF6A01122FB02E2BE3201720F016
:10427000FF24F394F00E02C02CE3F22E0F2D27E062
:10428000AE014F5F5F4FA5D2BC014981842F897079
:10429000813031F0E1FC06C0E0FE06C090E205C0CE
:1042A0009DE203C09BE201C090E05E2D507143FF90
:1042B0003CC0911102C083E001C084E0811718F472
:1042C000212F281B01C020E051110BC0F601822FC5
:1042D00030E2882319F031938150FBCFC20ED11CFC
:1042E00020E0992329F0D6019C93F60131966F01C5
:1042F000C6010396E2FE0AC03EE4D6013C9341E4C7
:1043000011964C93119712963C9306C03EE6F60127
:10431000308341E641833283FC01322F40E2332374
:1043200009F442C041933150FACF42FF44C0911189
:1043300002C083E001C084E0811718F4212F281BFC
:1043400001C020E051110BC0F601822F30E288231A
:1043500019F031938150FBCFC20ED11C20E099237C
:1043600029F0D6019C93F60131966F01C6010396A0
:10437000E2FE0BC039E4D6013C933EE411963C9337
:10438000119736E412963C9307C039E6F601308364
:104390003EE6318336E63283FC01322F40E233239E
:1043A00019F041933150FBCFFC01E20FF11D108257
:1043B0008EEF9FEFA6C021E030E0911102C020E017
:1043C00030E0161617061CF4FB01319602C0E1E03E
:1043D000F0E02E0F3F1FBB2021F0EB2DF0E03196D7
:1043E00002C0E0E0F0E02E0F3F1FE12FF0E02E17BB
:1043F0003F071CF4121B212F01C020E08E2D887175
:1044000059F4F601822F30E2882319F0319381505C
:10441000FBCFC20ED11C20E0992329F0D6019C933A
:10442000F60131966F0151110BC0F601822F90E316
:10443000882319F091938150FBCFC20ED11C20E04C
:104440000F2D060F9A81342F307144FF03C0913332
:1044500009F40150101624F4093018F008E001C0E6
:1044600001E0AB0177FF02C040E050E0FB01E41B3C
:10447000F50BA1E0B0E0AC0FBD1FEA0FFB1F8EE211
:10448000A82E4B01801A91080B2D10E01195019573
:1044900011094F3FBFEF5B0721F4D601AC92119693
:1044A0006D01641775072CF08416950614F481814C
:1044B00001C080E3415051093196D60111967D012A
:1044C0004017510724F0D6018C936701E2CF64179F
:1044D000750739F4963320F4953319F4311101C07E
:1044E00081E3F6018083F701822F90E2882319F09F
:1044F00091938150FBCFF701E20FF11D108280E014
:1045000090E029960FB6F894DEBF0FBECDBFDF91C5
:10451000CF911F910F91FF90EF90DF90CF90BF90C0
:10452000AF909F908F9008958F929F92AF92BF927D
:10453000CF92DF92EF92FF920F931F93CF93DF936F
:10454000EC016B016115710519F0FB01918380830A
:104550007E01FFEFEF1AFF0A0881802F90E011D251
:10456000892B11F0E701F4CF0D3239F47E0182E09E
:10457000E80EF11C098111E008C00B3229F47E011C
:1045800092E0E90EF11C098110E0E701219743E078
:1045900050E066E271E0CE01FCD1892BB9F423969C
:1045A00045E050E061E271E0CE01F3D1892B09F4DE
:1045B0002596C114D10419F0F601D183C0831111DD
:1045C000F2C060E070E080E89FE7F6C043E050E0B2
:1045D0006EE171E0CE01DDD1892B59F4C114D10413
:1045E00009F4E6C0F2E0EF0EF11CF601F182E08280
:1045F000DFC020E030E0A901C0E0D0E0F70160EDCD
:10460000A62EA00E89E08A1528F1912F9260B92E6E
:10461000812F887012FF04C0811123C0219621C010
:1046200081112197A5E0B0E07FD2DC01CB01880F9A
:10463000991FAA1FBB1F9C01AD012A0D311D411DF1
:10464000511D283989E93807480789E1580748F09A
:10465000166006C09EEFA9120AC013FD40C0186084
:10466000B12E8FEFE81AF80A00811B2DC7CF802FDB
:104670008F7D8534A1F580818D3211F4106106C0E3
:104680008B3221F0319661E070E004C08181329676
:1046900062E070E080538A3018F0E61BF70B1FC011
:1046A00060E070E060389CE079075CF4DB01AA0F01
:1046B000BB1FAA0FBB1F6A0F7B1F660F771F680FF8
:1046C000711D3196DF0111978C9180538A3050F320
:1046D00014FF03C0719561957109C60FD71F11FFB3
:1046E00008C0C114D10429F0CF010197F6019183CC
:1046F0008083CA01B901A5D8212F2370233019F076
:104700004B015C0106C04B015C01B7FAB094B7F8ED
:10471000B09420E030E0A901C501B4010E94841BDF
:10472000882309F43DC0D7FF06C0D195C195D109B2
:104730000DE311E002C005E511E06801F8E1CF1AD0
:10474000D10890E2E92EF12CCE15DF056CF0F801CE
:104750002591359145915491C501B40128D94B015A
:104760005C01CE19DF09F0CF04501109F594E794EC
:104770000C151D0549F78A2D880F8B2D881F8F3F3B
:1047800049F020E030E0A901C501B4010E94841B7A
:10479000811106C082E290E09093A00780939F076A
:1047A000C501B40109C060E070E080E89FEF04C07B
:1047B00060E070E080EC9FE7DF91CF911F910F9157
:1047C000FF90EF90DF90CF90BF90AF909F908F9031
:1047D0000895283008F027E03327DA01990F311DBA
:1047E00087FD916000966105710539F432602E5F96
:1047F0003D9330E32A95E1F708959F3F30F08038EC
:104800007105610509F03C5F3C5F3D93913008F014
:104810008068911DDF93CF931F930F93FF92EF92C8
:10482000192F987F9695E92F96959695E90FFF2772
:10483000ED54FE4F99273327EE24FF24A701E7010B
:1048400005900894079428F4360FE71EF81E491FB8
:10485000511D660F771F881F991F0694A1F70590B9
:10486000079428F4E70EF81E491F561FC11D770F45
:10487000881F991F661F0694A1F70590079428F4D6
:10488000F80E491F561FC71FD11D880F991F661F9D
:10489000771F0694A1F70590079420F4490F561F3F
:1048A000C71FD81F990F661F771F881F0694A9F787
:1048B00084911095177041F0D695C79557954795F7
:1048C000F794E7941A95C1F7E9E5F1E0689415903B
:1048D000159135916591959105907FE27395E11859
:1048E000F10A430B560BC90BD009C0F7E10CF11EBE
:1048F000431F561FC91FD01D7EF4703311F48A95D3
:10490000E6CFE894015030F0080F0AF400270217B0
:1049100008F4202F2395022F7A3328F079E37D9332
:104920002A95E9F710C07D932A9589F60694979504
:104930006795379517951794E118F10A430B560BB5
:10494000C90BD00998F023957E9173957A3308F0BE
:1049500070E37C932013B8F77E9170617D9330F003
:10496000839571E37D9370E32A95E1F71124EF902D
:10497000FF900F911F91CF91DF91992787FD90951F
:1049800008959111CEC0803219F089508550D0F72A
:104990000895FB01DC014150504088F08D91813435
:1049A0001CF08B350CF4805E659161341CF06B3526
:1049B0000CF4605E861B611171F3990B0895881BDE
:1049C000FCCFFC010590615070400110D8F7809534
:1049D00090958E0F9F1F0895FC01615070400190CB
:1049E0000110D8F7809590958E0F9F1F08950F9313
:1049F0001F93CF93DF93FB01238121FD03C08FEF32
:104A00009FEF2CC022FF16C046815781248135813B
:104A10004217530744F4A081B1819D012F5F3F4F9E
:104A2000318320838C93268137812F5F3F4F3783DB
:104A3000268314C08B01EC01FB010084F185E02D7D
:104A40000995892BE1F6D80116968D919C911797BF
:104A5000019617969C938E931697CE01DF91CF9176
:104A60001F910F910895FA01AA27283051F12031A2
:104A700081F1E8946F936E7F6E5F7F4F8F4F9F4FF2
:104A8000AF4FB1E03ED0B4E03CD0670F781F891F34
:104A90009A1FA11D680F791F8A1F911DA11D6A0F02
:104AA000711D811D911DA11D20D009F468943F91B5
:104AB0002AE0269F11243019305D3193DEF6CF01B4
:104AC0000895462F4770405D4193B3E00FD0C9F77A
:104AD000F6CF462F4F70405D4A3318F0495D31FDE7
:104AE0004052419302D0A9F7EACFB4E0A69597953A
:104AF000879577956795BA95C9F700976105710510
:104B000008959B01AC010A2E069457954795379559
:104B10002795BA95C9F7620F731F841F951FA01DB3
:104B2000089599278827089509D0A59F900DB49FCF
:104B3000900DA49F800D911D11240895A29FB00196
:104B4000B39FC001A39F700D811D1124911DB29FC1
:0E4B5000700D811D1124911D0895F894FFCF62
:104B5E000000A1072000060E280101000000010040
:104B6E00000000030100010100802500000000008C
:104B7E000301000101008025000045535020434FE2
:104B8E004E4E454354454400455350204E4F5420FD
:104B9E00434F4E4E45435445440025643A25643AEE
:104BAE002564004750532D002C00475053004144BC
:104BBE00584C2D4163636964656E744144584C00D2
:104BCE004144584C2D416363656C65726174696F25
:104BDE006E4144584C00524649442D0052464944B9
:104BEE00005265676973746572656400537563631B
:104BFE0065737366756C6C792100436865636B43EE
:104C0E006F6E6E656374696F6E004750534C6F63C1
:104C1E006174696F6E0052464944417474656E64E6
:104C2E00616E636500416C657274204163636964F3
:104C3E00656E7400416363656C65726174696F6E55
:104C4E0020416C6572740057656C636F6D652074DE
:104C5E006F004F75722053797374656D210049444E
:044C6E004C450000B1
:00000001FF
