:1000000065C000007AC30000A3C30000CCC3000099
:10001000F5C300001EC4000047C4000070C4000007
:1000200099C4000071C000006FC000006DC00000E6
:100030006BC7000069C0000067C0000065C0000019
:1000400063C0000061C000005FC000005DC0000030
:100050005BC0000059C0000057C0000055C0000040
:1000600053C0000051C000004FC000004DC0000050
:100070004BC0000049C0000071C7000045C000002F
:1000800043C0000041C000003FC00000B702BB02F7
:10009000BF02C302C702CB02CF02D302E002E402D6
:1000A000E802EC02F002F402F802FC020A03100378
:1000B0001B0325032F0333033C03440355035A0357
:1000C0005F03640369036E037303780311241FBE87
:1000D000CFEFD0E1DEBFCDBF11E0A0E0B1E0ECEFAB
:1000E000FCE100E00BBF02C007900D92A233B10704
:1000F000D9F722E0A2E3B1E001C01D92AE32B2070F
:10010000E1F7BED10C947C0E7BCF482F486061E3B1
:1001100083E531C50895482F6CE283E52CC5089529
:10012000CF93DF931F92CDB7DEB780E0EEDF8AE09A
:10013000F2DF40E06DE183E51ED540E061E283E55A
:100140001AD540E062E283E516D540E063E283E53C
:1001500012D540E064E283E50ED540E065E283E538
:100160000AD540E066E283E506D540E068E283E533
:1001700002D540E069E283E5FED4AE014F5F5F4FF8
:1001800067E283E518D549814878498367E283E5CA
:10019000F2D4AE014F5F5F4F6AE283E50CD549812F
:1001A000487F49836AE283E5E6D40F90DF91CF91DF
:1001B00008950F9303E520E83AE146E050E060E05F
:1001C00081E0F7D348E06DE283E5D5D4A9DF0F9154
:1001D00008950F931F93CF93DF9300D000D000D0EA
:1001E000CDB7DEB78C01AE014F5F5F4F62E383E5B1
:1001F000E2D48FE99FE00197F1F700C00000AE0163
:100200004E5F5F4F63E383E5D6D4EFE9FFE03197BC
:10021000F1F700C00000AE014D5F5F4F64E383E57E
:10022000CAD48FE99FE00197F1F700C00000AE014A
:100230004C5F5F4F65E383E5BED4EFE9FFE03197A4
:10024000F1F700C00000AE014B5F5F4F66E383E54E
:10025000B2D48FE99FE00197F1F700C00000AE0132
:100260004A5F5F4F67E383E5A6D4EFE9FFE031978C
:10027000F1F700C0000069817A8180E090E00E947F
:10028000560AF80160837183828393836B817C813A
:1002900080E090E00E94560AF801648375838683AB
:1002A00097836D817E8180E090E00E94560AF8017C
:1002B000608771878287938726960FB6F894DEBF92
:1002C0000FBECDBFDF91CF911F910F9108958F92F7
:1002D0009F92AF92BF92CF92DF92EF92FF920F93D5
:1002E0001F93CF93DF93A62EB72EC82ED92E822E22
:1002F000932ED42FC52F0E94BE0988238CF02E2D5B
:100300003F2D402F512F6A2D7B2D8C2D9D2D0E942E
:10031000080B181644F4AE2CBF2CD02FC12F05C0EB
:10032000A82CB92C02C0DC2DCD2D6A2D7B2D8D2F54
:100330009C2FDF91CF911F910F91FF90EF90DF9055
:10034000CF90BF90AF909F908F900895EF92FF92C3
:100350000F931F93CF93DF931F92CDB7DEB7198210
:10036000AE014F5F5F4F6FE283E525D449816FE2B5
:1003700083E501D4AE014F5F5F4F6EE283E51BD48E
:10038000498144606EE283E5F6D3E12CF12C0FE75E
:1003900013E420E030E0A90160E070E080E891E43F
:1003A00096DF0E942A0A162F462F68E283E5E3D3E0
:1003B000412F69E283E5DFD30F90DF91CF911F9149
:1003C0000F91FF90EF900895EF92FF920F931F937C
:1003D000CF93DF931F92CDB7DEB71982AE014F5F87
:1003E0005F4F6FE283E5E7D3498140616FE283E5C8
:1003F000C2D3AE014F5F5F4F6EE283E5DCD349812C
:1004000040616EE283E5B7D3E12CF12C0FE713E4F2
:1004100020E030E0A90160E070E080E092E457DF86
:100420000E942A0A462F64E283E5A5D340E267E2F0
:1004300083E5A1D30F90DF91CF911F910F91FF9092
:10044000EF9008954091190250E060E070E084EB75
:1004500091E00E949A0B1092190208958DE091E0AC
:1004600096D44BE152E060E383E5A5C3089586E1AD
:1004700091E08DD44BE152E060E383E59CC30895A5
:10048000CF93DF93CDB7DEB761970FB6F894DEBF99
:100490000FBECDBF60E084E05BD060E085E058D067
:1004A00063E084E0ADD063E085E0AAD06EE272E064
:1004B00084E0F2D067E372E085E0EED0A9D383E276
:1004C00091E065D472D275DE7FDF40DF8CE192E08F
:1004D00080DE89E291E05BD460911C0270911D0284
:1004E00080911E0290911F02B5D7E0D72FE632E12E
:1004F00043E85BE30E940C0B2AE038EE4CE151E448
:100500000E940C0BA7D78E010F5F1F4F21E1F8014E
:1005100011922A95E9F79F938F937F936F938EE2C1
:1005200091E09F938F931F930F930E94A10BC8019B
:100530002ED4FFEF24E38CE0F15020408040E1F71F
:1005400000C000000FB6F894DEBF0FBECDBFBECF17
:10055000662319F0613059F1089590E088309105D3
:1005600008F04DC0FC01EA5BFF4F0C94910B89B77A
:10057000816089BF089589B7826089BF089589B76E
:10058000846089BF089589B7886089BF089589B755
:10059000806189BF089589B7806289BF089589B74E
:1005A000806489BF089589B7806889BF089590E005
:1005B0008830910520F5FC01E25BFF4F0C94910B14
:1005C00089B78E7F89BF089589B78D7F89BF0895C8
:1005D00089B78B7F89BF089589B7877F89BF0895C1
:1005E00089B78F7E89BF089589B78F7D89BF0895A8
:1005F00089B78F7B89BF089589B78F7789BF0895A1
:1006000090E08830910508F046C0FC01EA5AFF4F9F
:100610000C94910BEAE6F0E08081682B60830895EA
:10062000EAE6F0E0808170E0660F771F660F771FC3
:10063000682B60830895EAE6F0E0808190E1699F8D
:10064000B0011124682B60830895EAE6F0E0808110
:1006500090E4699FB0011124682B608308958AB7E4
:10066000682B6ABF08958AB770E0660F771F660F20
:10067000771F682B6ABF08958AB790E1699FB00120
:100680001124682B6ABF08958AB790E4699FB0016E
:100690001124682B6ABF089590E08830910560F5B9
:1006A000FC01E25AFF4F0C94910B7093410160934F
:1006B0004001089570933F0160933E010895709347
:1006C0003D0160933C01089570933B0160933A01B2
:1006D000089570933901609338010895709337013C
:1006E0006093360108957093350160933401089545
:1006F000709333016093320108951F920F920FB6E9
:100700000F9211240BB60F922F933F934F935F9349
:100710006F937F938F939F93AF93BF93EF93FF93C9
:10072000E0914001F09141010995FF91EF91BF9156
:10073000AF919F918F917F916F915F914F913F9179
:100740002F910F900BBE0F900FBE0F901F9018951A
:100750001F920F920FB60F9211240BB60F922F9388
:100760003F934F935F936F937F938F939F93AF9339
:10077000BF93EF93FF93E0913E01F0913F01099504
:10078000FF91EF91BF91AF919F918F917F916F9169
:100790005F914F913F912F910F900BBE0F900FBE25
:1007A0000F901F9018951F920F920FB60F92112461
:1007B0000BB60F922F933F934F935F936F937F935B
:1007C0008F939F93AF93BF93EF93FF93E0913C017F
:1007D000F0913D010995FF91EF91BF91AF919F91EC
:1007E0008F917F916F915F914F913F912F910F90DA
:1007F0000BBE0F900FBE0F901F9018951F920F9277
:100800000FB60F9211240BB60F922F933F934F9375
:100810005F936F937F938F939F93AF93BF93EF9368
:10082000FF93E0913A01F0913B010995FF91EF911F
:10083000BF91AF919F918F917F916F915F914F91F8
:100840003F912F910F900BBE0F900FBE0F901F90F6
:1008500018951F920F920FB60F9211240BB60F929C
:100860002F933F934F935F936F937F938F939F93B8
:10087000AF93BF93EF93FF93E0913801F09139016B
:100880000995FF91EF91BF91AF919F918F917F91CA
:100890006F915F914F913F912F910F900BBE0F90F1
:1008A0000FBE0F901F9018951F920F920FB60F92C8
:1008B00011240BB60F922F933F934F935F936F9337
:1008C0007F938F939F93AF93BF93EF93FF93E091A9
:1008D0003601F09137010995FF91EF91BF91AF91EA
:1008E0009F918F917F916F915F914F913F912F9148
:1008F0000F900BBE0F900FBE0F901F9018951F9278
:100900000F920FB60F9211240BB60F922F933F93B5
:100910004F935F936F937F938F939F93AF93BF9307
:10092000EF93FF93E0913401F09135010995FF9128
:10093000EF91BF91AF919F918F917F916F915F9157
:100940004F913F912F910F900BBE0F900FBE0F90C4
:100950001F9018951F920F920FB60F9211240BB68D
:100960000F922F933F934F935F936F937F938F9348
:100970009F93AF93BF93EF93FF93E0913201F09178
:1009800033010995FF91EF91BF91AF919F918F91A5
:100990007F916F915F914F913F912F910F900BBE7F
:1009A0000F900FBE0F901F9018958FB780688FBF64
:1009B00008950F93CF93DF93C82FD62F000F009386
:1009C00072008130E9F030F0823091F1833009F427
:1009D00058C087C0CA01B90169D59B01AC016AD46E
:1009E0009B01AC0160E074E284E79BE4CBD420E09F
:1009F00030E040E051E45DD42DD56093700071C0CB
:100A0000CA01B90153D520E030E040E051E404D6FA
:100A10009B01AC0160E074E284E79BE4B3D420E086
:100A200030E040E050E445D415D56093700059C0E3
:100A3000DA01C901880F991FAA1FBB1F880F991FD0
:100A4000AA1FBB1F880F991FAA1FBB1F880F991FC2
:100A5000AA1FBB1FBC01CD01660F771F881F991FFE
:100A600025D59B01AC0160E074E284E79BE48AD465
:100A700020E030E040E05FE31CD4ECD460937000F1
:100A800030C0DA01C901880F991FAA1FBB1F880F48
:100A9000991FAA1FBB1F880F991FAA1FBB1F880F72
:100AA000991FAA1FBB1F880F991FAA1FBB1F880F62
:100AB000991FAA1FBB1FBC01CD01660F771F881F9E
:100AC000991FF4D49B01AC0160E074E284E79BE4DD
:100AD00059D420E030E040E05EE3EBD3BBD4609338
:100AE0007000E1E7F0E08081C370C82BC083E4E7C9
:100AF000F0E080816D2F6170682B64606083DF910E
:100B0000CF910F910895E4E7F0E0808187708083B2
:100B10008081806A8083809174008823E4F708953F
:100B2000E4E7F0E080818770808380818069808342
:100B3000089580937300E4E7F0E0808187708083FC
:100B4000808180688083809174008823E4F7089511
:100B5000E4E7F0E080818770808380818068808313
:100B6000809174008823E4F7809173000895809148
:100B70007100887F08951F93CF93DF93182FD62F8E
:100B8000C42FC1DFF4DF8830E9F7812F880FD1DF70
:100B9000EEDF8831E9F78D2FCCDFE9DF8832E9F726
:100BA0008C2FC7DFE4DF8832E9F7BADF80E0DF911E
:100BB000CF911F9108950F931F93CF93DF93C82F69
:100BC000D62F8A01A0DFD3DF8830E9F78C2F880F7A
:100BD000B0DFCDDF8831E9F78D2FABDFC8DF88329A
:100BE000E9F791DFC4DF8031E9F78C2F90E0880FBF
:100BF000991F81609EDFBBDF8034E9F7A9DFF80130
:100C000080838EDF80E0DF91CF911F910F91089557
:100C1000ADE9B0E02C91E0E0F1E0908130E4939F09
:100C2000C0011124822B8C932C91918130E1939FF0
:100C3000C0011124822B8C932C919281892F90E0FA
:100C4000880F991F880F991F880F991F822B8C93EB
:100C5000AAE9B0E02C919481892F90E0880F991F28
:100C6000880F991F880F991F822B8C932C91958147
:100C700030E4939FC0011124822B8C932C91968198
:100C800030E1939FC0011124822B8C932C9197818A
:100C900030E8939FC0011124822B8C938085882398
:100CA00019F0813041F14AC0EBE9F0E080818D7F9D
:100CB00080838091090190910A01A0910B01B0916C
:100CC0000C01880F991FAA1FBB1F880F991FAA1F0D
:100CD000BB1F9C01AD01220F331F441F551F220F64
:100CE000331F441F551F60E074E284EF90E0F7D497
:100CF0002150310925C0EBE9F0E0808182608083DA
:100D00008091090190910A01A0910B01B0910C0111
:100D1000880F991FAA1FBB1F880F991FAA1FBB1FEF
:100D20009C01AD01220F331F441F551F60E074E288
:100D300084EF90E0D4D42150310902C020E030E0AB
:100D4000309398002093990090910301943071F4AE
:100D5000EDE9F0E08081826080838081846080831F
:100D6000EAE9F0E08081846080830895EDE9F0E0B5
:100D70002081892F90E0880F991F822B808308950E
:100D800090919B0095FFFCCF80939C0008950F935A
:100D90001F93CF938C01C0E00BC0F2DFCF5F2FEF2A
:100DA00087EE93E0215080409040E1F700C00000C2
:100DB000F801EC0FF11D80818111EFCFCF911F91D0
:100DC0000F910895CF93DF939C01FB01DC011196F5
:100DD000CD91DC911297D383C2838C819D819583C1
:100DE00084838C819D81DC0113967C936E93129792
:100DF0007D836C8331872087F90180818F5F8083B9
:100E0000DF91CF910895CF93DF93FC01A085B18549
:100E1000C281D381848195819D838C83C481D58156
:100E2000828193819B838A8311968D919C911297E5
:100E3000E817F90731F48481958112969C938E937B
:100E40001197118610868C9181508C938C91DF9133
:100E5000CF9108950F920FB6F8940F921F9211241C
:100E60002F923F924F925F926F927F928F929F92BA
:100E7000AF92BF92CF92DF92EF92FF920F931F93A8
:100E80002F933F934F935F936F937F938F939F9392
:100E9000AF93BF93CF93DF93EF93FF93A091B201F2
:100EA000B091B3010DB60D920EB60D92B4D0811172
:100EB00068D1A091B201B091B301CD91CDBFDD91C8
:100EC000DEBFFF91EF91DF91CF91BF91AF919F91E5
:100ED0008F917F916F915F914F913F912F911F91D2
:100EE0000F91FF90EF90DF90CF90BF90AF909F90C9
:100EF0008F907F906F905F904F903F902F901F90BA
:100F00000F900FBE0F900895A5DF1895CF93DF9334
:100F1000FC01828D938D8917B8F4968D8F5F828F37
:100F20009F3F71F48189882389F0EB01CF014196BD
:100F30007CD1882369F0209769F081E088830BC019
:100F40009F5F968F81E007C080E005C081E003C00D
:100F500081E001C081E0DF91CF9108951F920F924F
:100F60000FB60F9211240BB60F922F933F934F930E
:100F70005F936F937F938F939F93AF93BF93EF9301
:100F8000FF9390919C009093180280911902E82F92
:100F9000F0E0EC54FE4F90838F5F8093190284360B
:100FA00009F450DA60E070E080912C0290912D02FB
:100FB000ADDFFF91EF91BF91AF919F918F917F91A5
:100FC0006F915F914F913F912F910F900BBE0F90BA
:100FD0000FBE0F901F901895E0915601F0915701A8
:100FE0008081811107C08FEF9FEF90934401809320
:100FF00043010895E0915601F09157010580F68173
:10100000E02D0680F781E02D828193819093440149
:10101000809343010895DF92EF92FF920F931F9305
:10102000CF93DF9380914201811193C0E0904901F9
:10103000F0904A018FEFE81AF80AF0924A01E09224
:101040004901E114F104B1F48091560190915701E6
:10105000209154013091550130935701209356014E
:101060009093550180935401809145018F5F809347
:101070004501B2DF8091430190914401E816F906E1
:1010800028F4D12C50C0DD24D39401C0D12CE091A0
:101090005601F09157018081811107C08FEF9FEFBA
:1010A00090934401809343013EC0E0915601F0913A
:1010B00057010580F681E02DC681D7818A819B8109
:1010C000E816F90628F490934401809343012BC05D
:1010D0008E010E5F1F4FC80196DE8C899D89892B7A
:1010E00019F0CE010C968FDE8E89909148019817E9
:1010F00010F48093480190E09C01220F331F220FCF
:10110000331F220F331F820F931FB801885A9E4F3F
:1011100059DE9E89E091B201F091B301868998175A
:1011200008F0B1CFB4CFE091B201F091B30186895C
:1011300090E0FC01EE0FFF1FEE0FFF1FEE0FFF1FF1
:101140008E0F9F1FFC01E85AFE4F8081823040F4D1
:1011500009C0809147018F5F80934701D12C02C065
:10116000DD24D39480914601882311F0DD24D394AB
:101170008D2DDF91CF911F910F91FF90EF90DF9018
:10118000089580914201882321F081E080934601F7
:101190000895109246012091480101C02150822FEC
:1011A00090E0FC01EE0FFF1FEE0FFF1FEE0FFF1F81
:1011B000E80FF91FE85AFE4F3081332379F3AC0171
:1011C000440F551F440F551F440F551F480F591FFB
:1011D000DF010180F281E02D0280F381E02D129683
:1011E000FC93EE931197455A5E4FE417F50729F4E7
:1011F00042815381FD0152834183FC01EE0FFF1FA9
:10120000EE0FFF1FEE0FFF1F8E0F9F1FFC01E85A0E
:10121000FE4F0180F281E02D868197819093B3018A
:101220008093B2012093480108950F931F93CF93A9
:10123000DF93DC011596ED91FC911697C681D7815D
:101240008E01045F1F4FC801DEDD809142018111D4
:101250001AC00A501109C801D6DD8E899091480143
:10126000981710F48093480190E09C01220F331FDF
:10127000220F331F220F331F820F931FB801885A8A
:101280009E4FA0DD04C0B8018BE491E09BDD9E89F8
:10129000E091B201F091B3018689891720F481E0D1
:1012A0008093460101C080E0DF91CF911F910F91A3
:1012B00008955058BB27AA270ED070C161D130F0D5
:1012C00066D120F031F49F3F11F41EF456C10EF4A4
:1012D000E095E7FB4CC1E92F72D180F3BA176207A2
:1012E00073078407950718F071F49EF58AC10EF410
:1012F000E0950B2EBA2FA02D0B01B90190010C0126
:10130000CA01A0011124FF27591B99F0593F50F43D
:10131000503E68F11A16F040A22F232F342F442795
:10132000585FF3CF469537952795A795F04053958D
:10133000C9F77EF41F16BA0B620B730B840BBAF05D
:101340009150A1F0FF0FBB1F661F771F881FC2F7C8
:101350000EC0BA0F621F731F841F48F487957795DC
:101360006795B795F7959E3F08F0B3CF9395880F93
:1013700008F09927EE0F979587950895D4D008F433
:1013800081E008950CD00AC102D140F0F9D030F0CC
:1013900021F45F3F19F0EBC0511134C1EEC00FD101
:1013A00098F39923C9F35523B1F3951B550BBB272C
:1013B000AA2762177307840738F09F5F5F4F220FD9
:1013C000331F441FAA1FA9F333D00E2E3AF0E0E8D2
:1013D00030D091505040E695001CCAF729D0FE2F1E
:1013E00027D0660F771F881FBB1F261737074807B0
:1013F000AB07B0E809F0BB0B802DBF01FF27935866
:101400005F4F2AF09E3F510568F0B1C0FBC05F3FBF
:10141000ECF3983EDCF3869577956795B795F7954D
:101420009F5FC9F7880F911D9695879597F9089545
:10143000E1E0660F771F881FBB1F621773078407E1
:10144000BA0720F0621B730B840BBA0BEE1F88F7F0
:10145000E0950895BCD088F09F5790F0B92F992758
:10146000B751A0F0D1F0660F771F881F991F1AF0AF
:10147000BA95C9F712C0B13081F0C3D0B1E0089578
:10148000C0C0672F782F8827B85F39F0B93FCCF3F9
:10149000869577956795B395D9F73EF490958095A5
:1014A000709561957F4F8F4F9F4F0895E89409C0C5
:1014B00097FB3EF490958095709561957F4F8F4F87
:1014C0009F4F9923A9F0F92F96E9BB279395F6959D
:1014D000879577956795B795F111F8CFFAF4BB0F1B
:1014E00011F460FF1BC06F5F7F4F8F4F9F4F16C07F
:1014F000882311F096E911C0772321F09EE8872F09
:10150000762F05C0662371F096E8862F70E060E0C4
:101510002AF09A95660F771F881FDAF7880F96953D
:10152000879597F90895990F0008550FAA0BE0E8E1
:10153000FEEF16161706E807F907C0F01216130695
:10154000E407F50798F0621B730B840B950B39F4D5
:101550000A2661F0232B242B252B21F408950A263B
:1015600009F4A140A6958FEF811D811D089597F97B
:101570009F6780E870E060E008959FEF80EC089539
:1015800000240A9416161706180609060895002462
:101590000A9412161306140605060895092E0394DC
:1015A000000C11F4882352F0BB0F40F4BF2B11F450
:1015B00060FF04C06F5F7F4F8F4F9F4F089557FDAF
:1015C0009058440F551F59F05F3F71F04795880FB1
:1015D00097FB991F61F09F3F79F087950895121648
:1015E00013061406551FF2CF4695F1DF08C01616F4
:1015F00017061806991FF1CF8695710561050894A5
:101600000895E894BB2766277727CB0197F90895BB
:101610008ADF08F48FEF08950BD0C0CFB1DF28F038
:10162000B6DF18F0952309F0A2CFA7CF1124EACF97
:10163000C6DFA0F3959FD1F3950F50E0551F629F31
:10164000F001729FBB27F00DB11D639FAA27F00D1B
:10165000B11DAA1F649F6627B00DA11D661F829F42
:101660002227B00DA11D621F739FB00DA11D621F27
:10167000839FA00D611D221F749F3327A00D611D44
:10168000231F849F600D211D822F762F6A2F112426
:101690009F5750408AF0E1F088234AF0EE0FFF1F79
:1016A000BB1F661F771F881F91505040A9F79E3FB0
:1016B000510570F05CCFA6CF5F3FECF3983EDCF3B2
:1016C000869577956795B795F795E7959F5FC1F7ED
:1016D000FE2B880F911D9695879597F90895A1E2A5
:1016E0001A2EAA1BBB1BFD010DC0AA1FBB1FEE1F9C
:1016F000FF1FA217B307E407F50720F0A21BB30BE7
:10170000E40BF50B661F771F881F991F1A9469F762
:1017100060957095809590959B01AC01BD01CF01BE
:101720000895EE0FFF1F0024001C0BBE0790F691DA
:10173000E02D0994DC0101C06D9341505040E0F769
:1017400008950F931F93CF93DF93CDB7DEB72E97F6
:101750000FB6F894DEBF0FBECDBF0D891E8986E09F
:101760008C831A8309838FEF9FE79E838D83AE015D
:10177000475E5F4F6F89788DCE01019610D0EF8163
:10178000F885E00FF11F10822E960FB6F894DEBF99
:101790000FBECDBFDF91CF911F910F9108952F9272
:1017A0003F924F925F926F927F928F929F92AF92F1
:1017B000BF92CF92DF92EF92FF920F931F93CF933E
:1017C000DF93CDB7DEB72B970FB6F894DEBF0FBE11
:1017D000CDBF6C017B018A01FC01178216828381D7
:1017E00081FFBFC1CE0101963C01F6019381F70153
:1017F00093FD859193FF81917F01882309F4ADC109
:10180000853239F493FD859193FF81917F01853273
:1018100021F4B60190E0D6D1E8CF912C212C312CC7
:10182000FFE1F315D8F08B3279F038F4803279F09B
:101830008332A1F4232D20611DC08D3261F08033ED
:1018400069F4232D216016C0832D8260382EE32D8C
:10185000E4603E2E2AC0F32DF8601DC037FC2DC079
:1018600020ED280F2A3040F08E32B9F436FC75C1D5
:10187000232D2064322E19C036FE06C08AE0989EC1
:10188000200D1124922E11C0EAE02E9E200D11246D
:10189000222EF32DF0623F2E08C08C3621F4832DCA
:1018A0008068382E02C0883641F4F70193FD859197
:1018B00093FF81917F018111B3CF982F9F7D955424
:1018C000933028F40C5F1F4F9FE399830DC083363C
:1018D00031F0833771F0833509F055C020C0F8012D
:1018E000808189830E5F1F4F88248394912C53013C
:1018F00012C02801F2E04F0E511CF801A080B18007
:1019000036FE03C0692D70E002C06FEF7FEFC501A6
:101910004ED14C018201F32DFF773F2E15C02801D7
:1019200022E0420E511CF801A080B18036FE03C0B7
:10193000692D70E002C06FEF7FEFC5012DD14C0122
:10194000F32DF0683F2E820133FC19C0822D90E008
:1019500088169906A0F4B60180E290E033D12A946B
:10196000F5CFF50137FC859137FE81915F01B60116
:1019700090E028D121102A9421E0821A9108811444
:10198000910479F7E1C0843611F0893639F5F80110
:1019900037FE07C060817181828193810C5F1F4F88
:1019A00008C060817181072E000C880B990B0E5FB7
:1019B0001F4FF32DFF763F2E97FF09C0909580951E
:1019C000709561957F4F8F4F9F4FF0683F2E2AE0B3
:1019D00030E0A30133D1882E861844C0853731F416
:1019E000232D2F7EB22E2AE030E025C0932D997F43
:1019F000B92E8F36C1F018F4883579F0AEC0803733
:101A000019F0883721F0A9C0E92FE061BE2EB4FE9D
:101A10000DC0FB2DF460BF2E09C034FE0AC0292F73
:101A20002660B22E06C028E030E005C020E130E09C
:101A300002C020E132E0F801B7FE07C06081718189
:101A4000828193810C5F1F4F06C06081718180E0AD
:101A500090E00E5F1F4FA301F1D0882E8618FB2D5A
:101A6000FF773F2E36FE0DC0232D2E7FA22E891428
:101A700058F434FE0BC032FC09C0832D8E7EA82E94
:101A800005C0B82CA32C03C0B82C01C0B92CA4FEEF
:101A90000FC0FE01E80DF11D8081803321F49A2DE5
:101AA000997EA92E09C0A2FE06C0B394B39404C0C7
:101AB0008A2D867809F0B394A3FC10C0A0FE06C05E
:101AC000B21480F4280C922C9B180DC0B21458F458
:101AD000B60180E290E076D0B394F8CFB21418F457
:101AE0002B1802C0982C212CA4FE0FC0B60180E355
:101AF00090E068D0A2FE16C0A1FC03C088E790E089
:101B000002C088E590E0B6010CC08A2D867851F0BD
:101B1000A1FE02C08BE201C080E2A7FC8DE2B6010B
:101B200090E050D0891430F4B60180E390E04AD0C0
:101B30009A94F8CF8A94F301E80DF11D8081B601E3
:101B400090E040D08110F6CF222009F44ECEB601AD
:101B500080E290E037D02A94F7CFF6018681978112
:101B600002C08FEF9FEF2B960FB6F894DEBF0FBE2B
:101B7000CDBFDF91CF911F910F91FF90EF90DF903C
:101B8000CF90BF90AF909F908F907F906F905F901D
:101B90004F903F902F900895FC0105906150704048
:101BA0000110D8F7809590958E0F9F1F0895FC0126
:101BB0006150704001900110D8F7809590958E0F7C
:101BC0009F1F08950F931F93CF93DF93FB012381F2
:101BD00021FD03C08FEF9FEF2CC022FF16C046816E
:101BE0005781248135814217530744F4A081B18184
:101BF0009D012F5F3F4F318320838C932681378156
:101C00002F5F3F4F3783268314C08B01EC01FB010C
:101C10000084F185E02D0995892BE1F6D80116960F
:101C20008D919C911797019617969C938E9316977A
:101C3000CE01DF91CF911F910F910895FA01AA274C
:101C4000283051F1203181F1E8946F936E7F6E5FFF
:101C50007F4F8F4F9F4FAF4FB1E03ED0B4E03CD0AD
:101C6000670F781F891F9A1FA11D680F791F8A1F90
:101C7000911DA11D6A0F711D811D911DA11D20D0F7
:101C800009F468943F912AE0269F11243019305DB1
:101C90003193DEF6CF010895462F4770405D4193A2
:101CA000B3E00FD0C9F7F6CF462F4F70405D4A33EF
:101CB00018F0495D31FD4052419302D0A9F7EACFB7
:101CC000B4E0A6959795879577956795BA95C9F7E6
:101CD00000976105710508959B01AC010A2E0694D9
:101CE0005795479537952795BA95C9F7620F731F92
:0C1CF000841F951FA01D0895F894FFCFDD
:101CFC000000000301000101008025000041636326
:101D0C006964656E7400416363656C6572617469C6
:101D1C006F6E0048656C6C6F0058203D2000256488
:021D2C000000B5
:00000001FF
