S020000047726164756174696F6E436F6E74726F6C6C6572536964652E737265634D
S113000084C00000E6C600000FC7000038C7000027
S113001061C700008AC70000B3C70000DCC7000046
S11300200C94160890C000008EC000008CC0000024
S11300300C943F0C88C0000086C0000084C00000FF
S113004082C0000080C000007EC000007CC00000B0
S11300507AC0000078C0000076C0000074C00000C0
S113006072C0000070C000006EC000006CC00000D0
S11300706AC0000068C000000C94850E64C00000D3
S113008062C0000060C000005EC00000DC03EA0340
S1130090F80306041404220432044D045A046704C9
S11300A0740481048E049D04C204D004DE04EC04B0
S11300B0FA0408051805330540054D055A0567057A
S11300C074058305A805B605C405D205E005EE054B
S11300D0FE0519062606330640064D065A0669062D
S11300E0810683068506870689068B068E069A0690
S11300F09C069E06A006A206A406A706B406BB0696
S1130100C206C906D006D706E00611241FBECFEFEB
S1130110D0E1DEBFCDBF11E0A0E0B1E0EAECF8E24F
S113012000E00BBF02C007900D92A237B107D9F7C8
S113013024E0A2E7B1E001C01D92A937B207E1F7BC
S113014022D30C9463145CCF0E949D0910927B020D
S113015010927A0284E6E5E1F2E0DF011D928A95CD
S1130160E9F7089540917A0250E060E070E085E19B
S113017092E00E94331410927A0208956AE271E0C8
S113018085E192E097D2813021F480937B02EADF0B
S11301900AC06DE271E085E192E08CD2813019F4FD
S11301A010927B02DFDF80917B0208950E94EC08AD
S11301B01092700484EF91E0ECE7F2E0DF019C011F
S11301C01D9221503040E1F70895CF93DF93C09101
S11301D07004D0E00E945B0AC458DD4F888380918C
S11301E070048F5F80937004DF91CF9108954091E4
S11301F0700450E060E070E08CE792E00E943314F9
S113020010927004089561E082E1C0D28FE39FE10F
S11302100197F1F700C0000060E082E1B7D28FE3FC
S11302209FE10197F1F700C000000895CF93C82F14
S113023080910801883281F0883309F560E080E11B
S1130240A5D26C2F80E054D5DEDF8FE99FE00197C3
S1130250F1F700C0000013C060E080E197D26C2F7A
S113026062956F7080E076D5CEDF6C2F80E072D51A
S1130270CADF8FE99FE00197F1F700C00000CF913A
S11302800895CF93DF936FEF80E04BD561E082E177
S113029063D361E080E160D361E081E15DD32FEF5E
S11302A083EC99E0215080409040E1F700C00000C9
S11302B060E081E16BD280910801883221F18833BA
S11302C009F04BC0B3DF8FE99FE00197F1F700C05D
S11302D00000C6E0D1E08981A9DF8FE99FE00197A2
S11302E0F1F700C0000081E0A1DF8FE39CE90197F2
S11302F0F1F700C00000888199DF8FE99FE0019742
S1130300F1F700C0000082E091DF8FE39CE90197E0
S1130310F1F700C00000C6E0D1E08A8187DF8FE9F1
S11303209FE00197F1F700C0000089817FDF8FE92A
S11303309FE00197F1F700C0000081E077DF8FE3D1
S11303409CE90197F1F700C0000088816FDF8FE915
S11303509FE00197F1F700C00000DF91CF9108956D
S1130360CF93DF93C82FD62F61E088E020D78C2F5E
S113037090E0880F991F8E7715D78D2F13D760E0E3
S113038088E015D7DF91CF910895CF93C82F61E00E
S113039088E00DD78C2F90E0880F991F8E778068A6
S11303A001D780E0FFD6C82F60E088E000D78C2F0B
S11303B0CF9108956FE081E0D3CF089566D6FADF38
S11303C06DE88AE2CDDF6EE38BE2CADF6EE18CE298
S11303D0C7DF60E08DE2C4DF60E485E1C1DF6DE387
S11303E081E1BEDF84E1D1DF982F937031F4682F6F
S11303F0636084E1B5DF84E1C8CF08954F925F92D2
S11304006F927F928F929F92AF92BF92CF92DF9220
S1130410EF92FF920F931F93CF93DF93D82F7B011B
S1130420C42F59018C3029F08E3061F0912C812C2D
S113043010C00F2EF0E39F2EF02D0F2EF7E78F2E16
S1130440F02D07C06894992494F80F2EF2E18F2EB2
S1130450F02D84E09ADF682F6F7784E081DF8AE0F3
S113046094DF682F60688AE07BDF60E081E078DFFA
S1130470412C512C32010BC0F701E40DF51D6081B4
S113048089E06EDF8FEF481A580A680A780A8C2FC1
S113049090E0A0E0B0E0481659066A067B0660F3D7
S11304A06D2F81E05DDFDC3031F48DE06EDF682F8D
S11304B060688DE055DF0F2EF0EDCF2EF7E0DF2ED4
S11304C0E12CF12CF02D84E060DFC82FE1E0CE1A9E
S11304D0D108E108F10829F080FD03C0892D8C239F
S11304E091F38DE052DF682F6F778DE039DFCD28EF
S11304F0CE28CF2809F45CC086E047DF8B7109F071
S113050059C0C821C0FD02C0C1E001C0C2E0DC3056
S113051009F051C08AE039DFD82F8CE036DF282F6C
S11305202770A9F08D2F90E00197880F991F880FED
S1130530991F880F991F820F911D092E000CAA0B79
S1130540BB0BF80180839183A283B38311C08D2FE9
S113055090E0880F991F880F991F880F991F092E03
S1130560000CAA0BBB0BF80180839183A283B38395
S1130570D11101C0D1E0D13108F0D0E1C12CD12C8E
S113058076010CC085010C0D1D1D89E0FEDEF8010D
S11305908083FFEFCF1ADF0AEF0AFF0A8D2F90E066
S11305A0A0E0B0E0C816D906EA06FB0658F303C07B
S11305B0C3E001C0C3E08C2FDF91CF911F910F9155
S11305C0FF90EF90DF90CF90BF90AF909F908F906F
S11305D07F906F905F904F900895EF92FF920F93EA
S11305E01F93CF93DF9300D000D0CDB7DEB7182F81
S11305F07B0167E08DE0B4DEF70110838E010F5FAD
S11306001F4F970141E0B7018CE0F8DE813051F4CF
S113061049815A816B817C814031510561057105A5
S113062019F403C083E001C083E00F900F900F9092
S11306300F90DF91CF911F910F91FF90EF9008954C
S1130640EF92FF920F931F93CF93DF9300D000D0CC
S1130650CDB7DEB77C0160E08DE082DE83E9F7018F
S1130660808380E281838E010F5F1F4F970142E0F8
S1130670B7018CE0C3DE813091F407C0F701E90FC4
S1130680F11D308123279F5F02C020E090E0943069
S1130690A8F3F701E90FF11D9081291383E00F906E
S11306A00F900F900F90DF91CF911F910F91FF90BA
S11306B0EF900895EF92FF920F931F93CF93DF93E0
S11306C0EC018B01FB0101900020E9F731977F01D8
S11306D0E61AF70ADC010D900020E9F71197A81B30
S11306E0B90BAE15BF05F0F020E030E040E050E07B
S11306F014C0FE01E20FF31F7081F801E40FF51F2F
S11307009081791306C04F5F5F4FE416F50619F424
S11307100BC040E050E02F5F3F4F2A173B0748F3E0
S113072080E003C080E001C081E0DF91CF911F91A0
S11307300F91FF90EF900895CF92DF92EF92FF9286
S11307400F93CF93DF93D42EE9010E9449148D0DAA
S1130750911D6C01BE010E944914800F911D8C19DA
S11307609D09EC01DD27AE01B601C7010E943A14D0
S1130770CE0DDF1D1882DF91CF910F91FF90EF9086
S1130780DF90CF9008950C94550E0895E82FE695C8
S1130790E695E6958770662321F0613009F472C00E
S11307A008954E2F50E04730510508F0D4C0FA01A7
S11307B0EA5BFF4F0C9409134BB321E030E0B9011D
S11307C002C0660F771F8A95E2F7CB0180958423D8
S11307D08BBB089548B321E030E0B90102C0660F35
S11307E0771F8A95E2F7CB018095842388BB08950F
S11307F045B321E030E0B90102C0660F771F8A9546
S1130800E2F7CB018095842385BB089542B321E0B0
S113081030E0B90102C0660F771F8A95E2F7CB0179
S11308208095842382BB089543B121E030E0B9016F
S113083002C0660F771F8A95E2F7CB018095842367
S113084083B90895E2E6F0E0408121E030E0B901A7
S113085002C0660F771F8A95E2F7CB018095842347
S113086080830895E5E6F0E0408121E030E0B901BD
S113087002C0660F771F8A95E2F7CB018095842327
S1130880808308954E2F50E04730510508F063C02F
S1130890FA01E35BFF4F0C9409134BB321E030E002
S11308A0B90102C0660F771F8A95E2F7CB01842B4A
S11308B08BBB089548B321E030E0B90102C0660F54
S11308C0771F8A95E2F7CB01842B88BB089545B343
S11308D021E030E0B90102C0660F771F8A95E2F784
S11308E0CB01842B85BB089542B321E030E0B901EC
S11308F002C0660F771F8A95E2F7CB01842B82BB77
S1130900089543B121E030E0B90102C0660F771FBA
S11309108A95E2F7CB01842B83B90895E2E6F0E0EF
S1130920408121E030E0B90102C0660F771F8A954B
S1130930E2F7CB01842B80830895E5E6F0E0408163
S113094021E030E0B90102C0660F771F8A95E2F713
S1130950CB01842B80830895E82FE695E695E695F0
S11309608770662321F0613009F472C008954E2F18
S113097050E04730510508F0D4C0FA01EC5AFF4F5B
S11309800C9409134AB321E030E0B90102C0660FA8
S1130990771F8A95E2F7CB01809584238ABB08955B
S11309A047B321E030E0B90102C0660F771F8A9592
S11309B0E2F7CB018095842387BB089544B321E0FB
S11309C030E0B90102C0660F771F8A95E2F7CB01C8
S11309D08095842384BB089541B321E030E0B901BC
S11309E002C0660F771F8A95E2F7CB0180958423B6
S11309F081BB089542B121E030E0B90102C0660F25
S1130A00771F8A95E2F7CB018095842382B90895F4
S1130A10E1E6F0E0408121E030E0B90102C0660F78
S1130A20771F8A95E2F7CB0180958423808308950C
S1130A30E4E6F0E0408121E030E0B90102C0660F55
S1130A40771F8A95E2F7CB018095842380830895EC
S1130A504E2F50E04730510508F063C0FA01E55AC3
S1130A60FF4F0C9409134AB321E030E0B90102C0EE
S1130A70660F771F8A95E2F7CB01842B8ABB089512
S1130A8047B321E030E0B90102C0660F771F8A95B1
S1130A90E2F7CB01842B87BB089544B321E030E017
S1130AA0B90102C0660F771F8A95E2F7CB01842B48
S1130AB084BB089541B321E030E0B90102C0660F60
S1130AC0771F8A95E2F7CB01842B81BB089542B14D
S1130AD021E030E0B90102C0660F771F8A95E2F782
S1130AE0CB01842B82B90895E1E6F0E0408121E056
S1130AF030E0B90102C0660F771F8A95E2F7CB0197
S1130B00842B80830895E4E6F0E0408121E030E026
S1130B10B90102C0660F771F8A95E2F7CB01842BD7
S1130B2080830895E82FE695E695E6958770662319
S1130B3021F0613009F472C008954E2F50E047301F
S1130B40510508F0D4C0FA01EE59FF4F0C94091373
S1130B504BB321E030E0B90102C0660F771F8A95DC
S1130B60E2F7CB01809584238BBB089548B321E041
S1130B7030E0B90102C0660F771F8A95E2F7CB0116
S1130B808095842388BB089545B321E030E0B90102
S1130B9002C0660F771F8A95E2F7CB018095842304
S1130BA085BB089542B321E030E0B90102C0660F6D
S1130BB0771F8A95E2F7CB018095842382BB089541
S1130BC043B121E030E0B90102C0660F771F8A9576
S1130BD0E2F7CB018095842383B90895E2E6F0E03F
S1130BE0408121E030E0B90102C0660F771F8A9589
S1130BF0E2F7CB018095842380830895E5E6F0E055
S1130C00408121E030E0B90102C0660F771F8A9568
S1130C10E2F7CB0180958423808308954E2F50E022
S1130C204730510508F063C0FA01E759FF4F0C94AF
S1130C3009134BB321E030E0B90102C0660F771FFE
S1130C408A95E2F7CB01842B8BBB089548B321E04E
S1130C5030E0B90102C0660F771F8A95E2F7CB0135
S1130C60842B88BB089545B321E030E0B90102C06C
S1130C70660F771F8A95E2F7CB01842B85BB089515
S1130C8042B321E030E0B90102C0660F771F8A95B4
S1130C90E2F7CB01842B82BB089543B121E030E01D
S1130CA0B90102C0660F771F8A95E2F7CB01842B46
S1130CB083B90895E2E6F0E0408121E030E0B90133
S1130CC002C0660F771F8A95E2F7CB01842B8083DD
S1130CD00895E5E6F0E0408121E030E0B90102C08A
S1130CE0660F771F8A95E2F7CB01842B80830895E2
S1130CF090E087309105A0F4FC01E059FF4F0C947B
S1130D0009136BBB089568BB089565BB089562BB66
S1130D10089563B90895609362000895609365002F
S1130D20089590E087309105A0F4FC01E958FF4F45
S1130D300C9409136ABB089567BB089564BB0895B6
S1130D4061BB089562B9089560936100089560934A
S1130D5064000895607F90E087309105C8F5FC0138
S1130D60E258FF4F0C9409138BB38F708BBB8BB37A
S1130D70682B6BBB089588B38F7088BB88B3682BCE
S1130D8068BB089585B38F7085BB85B3682B65BB3D
S1130D90089582B38F7082BB82B3682B62BB0895BF
S1130DA083B18F7083B983B1682B63B90895E2E688
S1130DB0F0E080818F7080838081682B6083089548
S1130DC0E5E6F0E080818F7080838081682B60830A
S1130DD008951F920F920FB60F9211240BB60F9223
S1130DE02F933F934F935F936F937F938F939F932F
S1130DF0AF93BF93EF93FF93E0918001F091810152
S1130E000995FF91EF91BF91AF919F918F917F9140
S1130E106F915F914F913F912F910F900BBE0F9067
S1130E200FBE0F901F9018951F920F920FB60F923E
S1130E3011240BB60F922F933F934F935F936F93AD
S1130E407F938F939F93AF93BF93EF93FF93E0911F
S1130E507E01F0917F010995FF91EF91BF91AF91D0
S1130E609F918F917F916F915F914F913F912F91BE
S1130E700F900BBE0F900FBE0F901F9018951F92EE
S1130E800F920FB60F9211240BB60F922F933F932C
S1130E904F935F936F937F938F939F93AF93BF937E
S1130EA0EF93FF93E0917C01F0917D010995FF910F
S1130EB0EF91BF91AF919F918F917F916F915F91CE
S1130EC04F913F912F910F900BBE0F900FBE0F903B
S1130ED01F9018951F920F920FB60F9211240BB604
S1130EE00F922F933F934F935F936F937F938F93BF
S1130EF09F93AF93BF93EF93FF93E0917A01F091A7
S1130F007B010995FF91EF91BF91AF919F918F91D3
S1130F107F916F915F914F913F912F910F900BBEF5
S1130F200F900FBE0F901F9018951F920F920FB63F
S1130F300F9211240BB60F922F933F934F935F930D
S1130F406F937F938F939F93AF93BF93EF93FF938D
S1130F50E0917801F09179010995FF91EF91BF91AA
S1130F60AF919F918F917F916F915F914F913F913D
S1130F702F910F900BBE0F900FBE0F901F901895DE
S1130F801F920F920FB60F9211240BB60F922F934C
S1130F903F934F935F936F937F938F939F93AF93FD
S1130FA0BF93EF93FF93E0917601F0917701099558
S1130FB0FF91EF91BF91AF919F918F917F916F912D
S1130FC05F914F913F912F910F900BBE0F900FBEE9
S1130FD00F901F9018951F920F920FB60F92112425
S1130FE00BB60F922F933F934F935F936F937F931F
S1130FF08F939F93AF93BF93EF93FF93E09174010B
S1131000F09175010995FF91EF91BF91AF919F9177
S11310108F917F916F915F914F913F912F910F909D
S11310200BBE0F900FBE0F901F9018951F920F923A
S11310300FB60F9211240BB60F922F933F934F9339
S11310405F936F937F938F939F93AF93BF93EF932C
S1131050FF93E0917201F09173010995FF91EF9173
S1131060BF91AF919F918F917F916F915F914F91BC
S11310703F912F910F900BBE0F900FBE0F901F90BA
S113108018958FB780688FBF0895809109018823D0
S113109009F447C0813009F084C061E08AE05CDC77
S11310A061E089E059DC61E088E056DC60E08BE0D7
S11310B053DC61E088E06ADB2DB1E9E0F1E0908186
S11310C030E1939FC0011124822B8DB99EB182819E
S11310D0892B8EB99DB18181892B8DB92DB19381D5
S11310E030E2939FC0011124822B8DB92DB19481DC
S11310F030E8939FC0011124822B8DB92DB19681C4
S1131100892F90E0880F991F880F991F822B8DB922
S11311102DB1958130E4939FC0011124822B8DB9A8
S1131120089560E08AE018DC60E089E015DC60E0A6
S113113088E012DC61E08BE00FDC2DB1E9E0F1E046
S1131140908130E1939FC0011124822B8DB99EB10F
S11311508281892B8EB99DB18181892B8DB92DB165
S1131160938130E2939FC0011124822B8DB92DB15C
S1131170948130E8939FC0011124822B8DB92DB145
S11311809681892F90E0880F991F880F991F822BD1
S11311908DB92DB1958130E4939FC0011124822B28
S11311A08DB908958FB9779BFECF8FB10895CF93F2
S11311B0DF93C82FD62F61E0CFDBDD2319F0D130C8
S11311C029F007C061E08C2FE1DA03C060E08C2FC6
S11311D0DDDADF91CF910895A5E9B0E02C91EDE13E
S11311E0F1E0908130E4939FC0011124822B8C9311
S11311F02C91918130E1939FC0011124822B8C9317
S11312002C919281892F90E0880F991F880F991F44
S1131210880F991F822B8C932AB19481892F90E097
S1131220880F991F880F991F880F991F822B8AB9DD
S11312302AB1958130E4939FC0011124822B8AB98D
S11312402AB1968130E1939FC0011124822B8AB97F
S11312502AB1978130E8939FC0011124822B8AB967
S11312608085882319F0813039F148C08BB18D7F96
S11312708BB98091260190912701A0912801B0910A
S11312802901880F991FAA1FBB1F880F991FAA1F26
S1131290BB1F9C01AD01220F331F441F551F220F9A
S11312A0331F441F551F60E074E284EF90E00E94F6
S11312B0E7122150310924C08BB182608BB980912F
S11312C0260190912701A0912801B0912901880F4E
S11312D0991FAA1FBB1F880F991FAA1FBB1F9C0120
S11312E0AD01220F331F441F551F60E074E284EFE9
S11312F090E00E94E7122150310902C020E030E062
S11313003093900029B990912001943061F4E5E97B
S1131310F0E08081826080838081846080838AB1F0
S113132084608AB90895E5E9F0E02081892F90E08E
S1131330880F991F822B80830895ADE9B0E02C912A
S1131340E0E1F1E0908130E4939FC0011124822B0D
S11313508C932C91918130E1939FC0011124822BB5
S11313608C932C919281892F90E0880F991F880F7C
S1131370991F880F991F822B8C93AAE9B0E02C91B6
S11313809481892F90E0880F991F880F991F880FE7
S1131390991F822B8C932C91958130E4939FC001EB
S11313A01124822B8C932C91968130E1939FC00160
S11313B01124822B8C932C91978130E8939FC00148
S11313C01124822B8C938085882319F0813049F174
S11313D04CC0EBE9F0E080818D7F8083809119011E
S11313E090911A01A0911B01B0911C01880F991FC3
S11313F0AA1FBB1F880F991FAA1FBB1F9C01AD0109
S1131400220F331F441F551F220F331F441F551F24
S113141060E074E284EF90E00E94E7122150310909
S113142026C0EBE9F0E0808182608083809119011D
S113143090911A01A0911B01B0911C01880F991F72
S1131440AA1FBB1F880F991FAA1FBB1F9C01AD01B8
S1131450220F331F441F551F60E074E284EF90E0B5
S11314600E94E7122150310902C020E030E030939D
S113147098002093990090911301943071F4EDE950
S1131480F0E0808182608083808184608083EAE9E7
S1131490F0E08081846080830895EDE9F0E02081AC
S11314A0892F90E0880F991F822B808308955D9B7C
S11314B0FECF8CB908955F9BFECF8CB10895FC01DB
S11314C00396928381832FEF3FEF348323839683A4
S11314D085839087878310820895FC011186108686
S11314E00895CF93DF939C01FB01DC011196CD910C
S11314F0DC911297D383C2838C819D8195838483ED
S11315008C819D81DC0113967C936E9312977D836D
S11315106C8331872087F90180818F5F8083DF911D
S1131520CF910895CF93DF93EB01488159814F3FC9
S11315302FEF520721F4FC01A781B0850DC0DC0117
S1131540139601C0DF011296ED91FC91139720814F
S1131550318142175307B0F71296ED91FC9113971E
S1131560FB83EA83D583C483BD83AC831396DC9366
S1131570CE93129799878887FC0120812F5F20835F
S1131580DF91CF910895CF93DF93FC01A085B185BE
S1131590C281D381848195819D838C83C481D581CB
S11315A0828193819B838A8311968D919C9112975A
S11315B0E817F90731F48481958112969C938E93F0
S11315C01197118610868C9181508C938C91DF91A8
S11315D0CF9108951BBC89EF8ABD8BE08EBD87B780
S11315E0806187BF089531E1FC013083319722E2A5
S11315F020833197A3E3A08331976083319770836D
S113160031971082319760E8608331971082319767
S113161062E06083319763E06083319764E06083C4
S1131620319765E06083319766E06083319767E0C6
S11316306083319768E06083319769E06083319714
S113164060E1608331973083319732E130833197A1
S113165033E13083319734E13083319735E130839E
S1131660319736E13083319737E13083319738E170
S11316703083319739E13083319730E230833197C9
S113168031E2308331972083319723E220833197ED
S1131690408331975083319726E22083319727E2A4
S11316A02083319728E22083319729E220833197E0
S11316B020E32083319721E32083869708958ADFEE
S11316C0A0911302B0911402CD91CDBFDD91DEBF84
S11316D0FF91EF91DF91CF91BF91AF919F918F9146
S11316E07F916F915F914F913F912F911F910F9136
S11316F0FF90EF90DF90CF90BF90AF909F908F902E
S11317007F906F905F904F903F902F901F900F901D
S11317100FBE0F90089581E008950F920FB6F894CC
S11317200F921F9211242F923F924F925F926F92C9
S11317307F928F929F92AF92BF92CF92DF92EF925D
S1131740FF920F931F932F933F934F935F936F9346
S11317507F938F939F93AF93BF93CF93DF93EF9335
S1131760FF93A0911302B09114020DB60D920EB620
S11317700D9246D6A0911302B0911402CD91CDBF23
S1131780DD91DEBFFF91EF91DF91CF91BF91AF91DA
S11317909F918F917F916F915F914F913F912F9185
S11317A01F910F91FF90EF90DF90CF90BF90AF907B
S11317B09F908F907F906F905F904F903F902F906D
S11317C01F900F900FBE0F9008950F920FB6F894CC
S11317D00F921F9211242F923F924F925F926F9219
S11317E07F928F929F92AF92BF92CF92DF92EF92AD
S11317F0FF920F931F932F933F934F935F936F9396
S11318007F938F939F93AF93BF93CF93DF93EF9384
S1131810FF93A0911302B09114020DB60D920EB66F
S11318200D92BAD48111ECD5A0911302B091140297
S1131830CD91CDBFDD91DEBFFF91EF91DF91CF91CF
S1131840BF91AF919F918F917F916F915F914F91D4
S11318503F912F911F910F91FF90EF90DF90CF90C8
S1131860BF90AF909F908F907F906F905F904F90BC
S11318703F902F901F900F900FBE0F900895A5DFFB
S11318801895CF93DF93EC0181D4CE01CBD6EC0134
S113189039D5CE01DF91CF910895CF93DF9300978F
S11318A029F0EC0173D4CE0155D72CD5DF91CF911B
S11318B008950FB6F8940F92FC01828D811102C035
S11318C081E001C080E00F900FBE08951F93CF9375
S11318D0DF93EC010FB6F8940F921E8D09C089892D
S11318E0882341F0CE014196EFD581116CD6115079
S11318F01116ACF38FEF8E8F0F900FBE0FB6F894C6
S11319000F921D8D09C08885882341F0CE01089669
S1131910DBD5811158D611501116ACF38FEF8D8F92
S11319200F900FBEDF91CF911F910895CF93DF9356
S1131930EC010FB6F8940F92E881F9818B8D2C8D10
S113194090E030E0829FA001839F500D929F500D44
S113195011244E0F5F1F5D834C831A8EFB83EA8331
S11319600197289FA001299F500D389F500D1124E5
S1131970CF01840F951F9F838E838FEF8D8F8E8F62
S113198061110AC08885882369F0CE0108969CD528
S1131990882341F0C2DE06C0CE01089690DDCE0158
S11319A041968DDD0F900FBE81E0DF91CF910895B8
S11319B00F931F93F801611103C01183008302C0C8
S11319C051834083838F648F61E0CF01AFDF1F9128
S11319D00F910895DF92EF92FF920F931F93CF938D
S11319E0DF93E82EF62ED42E662321F0869FC001C5
S11319F0112402C080E090E04F9643DFEC01009791
S1131A0041F08C012D2DAC01415E5F4F6F2D8E2D69
S1131A10CFDFCE01DF91CF911F910F91FF90EF9017
S1131A20DF900895CF93C62F42E060E0D3DF0097A4
S1131A3011F0FC01C28FCF910895CF93DF93FC0185
S1131A40828D938D8917B8F4968D8F5F828F9F3F17
S1131A5071F48189882389F0EB01CF01419634D553
S1131A60882369F0209769F081E088830BC09F5F29
S1131A70968F81E007C080E005C081E003C081E06B
S1131A8001C081E0DF91CF910895FF920F931F93DE
S1131A90CF93DF9300D000D01F92CDB7DEB78C0177
S1131AA07D836C83F12C0FB6F8940F92F801828D2C
S1131AB0882371F08150828F8085882329F0C801A2
S1131AC0089602D5811129DE0F900FBE81E046C031
S1131AD08C819D81892B21F40F900FBE80E03EC044
S1131AE0F11005C0CE01019635D5FF24F3940F9073
S1131AF00FBE4CD30FB6F8940F92F801858D8F3F2B
S1131B0009F4158EF801868D8F3F09F4168E0F9017
S1131B100FBEBE016C5F7F4FCE01019626D58111A9
S1131B2014C0C801C6DE882361F06C817D81C801C0
S1131B304196BAD4C801CADEE5D38111B4CFEDDD34
S1131B40B2CFC801C3DEDED3AECFC801BFDEDAD365
S1131B50C801AFDE882309F4A6CF80E00F900F9070
S1131B600F900F900F90DF91CF911F910F91FF90E5
S1131B70089564E670E0809173049091740485DFA5
S1131B808130B9F70E94BE00F4CFCF93DF93CDB775
S1131B90DEB76E970FB6F894DEBF0FBECDBF0E94BE
S1131BA0E50063E371E08CE792E00E945A03813020
S1131BB041F58FE09E012F5F3F4F5901F901282F16
S1131BC011922A95E9F76E0130E1C30ED11CF6019A
S1131BD011928A95E9F7760100E020E431E047E0CC
S1131BE06AE371E08CE792E00E949C03750120E4B3
S1131BF031E04EE0B6018CE792E00E949C030E9423
S1131C00F70084E690E0EAD3CACFCF93DF93CDB751
S1131C10DEB760970FB6F894DEBF0FBECDBF82E08B
S1131C200E94C501682F606282E00E94B00183E0D7
S1131C300E94C501682F606883E00E94B001BE0164
S1131C406F5F7F4F82E50E94ED028130C1F7CE01C4
S1131C5001960E942003813091F761E080E00E94A8
S1131C60C60380E424DC10E009C0E1E0F0E0EC0FFE
S1131C70FD1FE10FF11D80811ADC1F5F1830A8F3EE
S1131C808BE315DCDCCFFDD90E94A40061E080E386
S1131C900E94AC0460E080E30E9492050E94D6009A
S1131CA00E9441010C94DE010895EF92FF920F937C
S1131CB0EADF60E081E0B6DE9093740480937304FD
S1131CC0E12CF12C09E020E030E045E550E062E44D
S1131CD071E089EB9DE0E3D108E020E030E048ECDE
S1131CE050E062E571E085EC9DE0D9D107E020E0A9
S1131CF030E048EC50E06EE571E085E09EE0CFD145
S1131D001DD20F91FF90EF9008951F920F920FB67E
S1131D100F9211240BB60F922F933F934F935F931F
S1131D206F937F938F939F93AF93BF93EF93FF939F
S1131D3090919C009093790280917A02E82FF0E0D0
S1131D40EB5EFD4F90838F5F80937A02843611F4AB
S1131D500E94B20060E070E080917304909174047A
S1131D606CDEFF91EF91BF91AF919F918F917F9125
S1131D706F915F914F913F912F910F900BBE0F90F8
S1131D800FBE0F901F901895E091A501F091A60148
S1131D908081811107C08FEF9FEF9093860180931C
S1131DA085010895E091A501F091A6010580F681D1
S1131DB0E02D0680F781E02D828193819093860146
S1131DC0809385010895CF93DF93EC018F89988DDB
S1131DD064DDCE0162DDDF91CF9108956F927F9231
S1131DE08F929F92AF92BF92CF92DF92EF920F9316
S1131DF01F93CF93DF93CDB7DEB74C01F5018789ED
S1131E00908D215031093C01620E731E61157105DC
S1131E1089F416C0822F90E0FB01E80FF91F30818E
S1131E20D501A80FB91F59963C938081882329F0C6
S1131E302F5F01C020E0283068F3F50110A202C032
S1131E40F501118EF9E0FE1520F40F2EF9E0EF2EC6
S1131E50F02DF501E68AC50102963FDBC5010C961B
S1131E603CDBF501B186A0868AE090E08E199109E9
S1131E7095878487B38AA28A11A212A213A214A2FC
S1131E8015A2A801B401C301AEDBF50191838083DF
S1131E90C114D10419F0F601B182A082DF91CF916F
S1131EA01F910F91EF90DF90CF90BF90AF909F90D4
S1131EB08F907F906F900895CF93C0E00FC08C2FC8
S1131EC090E09C01220F331F220F331F220F331F78
S1131ED0820F931F87549E4FF2DACF5FCA3078F394
S1131EE080EB91E0ECDA87EA91E0E9DA8AE991E0C3
S1131EF0E6DA81E991E0E3DA80EB91E09093A601E0
S1131F008093A50187EA91E09093A4018093A301B3
S1131F10CF910895CF93DF93EC010FB6F8940F920D
S1131F2080918F018F5F80938F0180911302909134
S1131F301402892B51F4D0931402C093130280919C
S1131F408F01813091F4B8DF10C080918B01811131
S1131F500CC0E0911302F091140296898E898917BE
S1131F6020F0D0931402C0931302809187018F5FF5
S1131F70809387018E8990918C01981710F4809337
S1131F808C0190E09C01220F331F220F331F220F7C
S1131F90331F820F931FBE016E5F7F4F87549E4F86
S1131FA0A0DA0F900FBE80918B01882349F0E09155
S1131FB01302F091140296898E89981708F4ADDB08
S1131FC0DF91CF910895CF93DF931AC00FB6F894A1
S1131FD00F92E0919601F0919701C681D781CE01CD
S1131FE00296D1DA80918F01815080938F01809184
S1131FF090018150809390010F900FBECE01E3DEDB
S1132000809190018111E2CFDF91CF910895DBDFC0
S11320108091B9018230D8F380DBF9CF0F931F93FD
S1132020CF93DF93EC0100918D0110918E0180918B
S11320301302909114020296A6DAC00FD11FE09108
S11320401302F0911402D383C283C017D10760F442
S113205060911302709114028091A3019091A401E4
S11320606E5F7F4F5FDA16C06091130270911402A5
S11320708091A5019091A6016E5F7F4F53DA809104
S1132080850190918601C817D90720F4D093860161
S1132090C0938501DF91CF911F910F9108952F92E5
S11320A03F924F925F926F927F928F929F92AF92E4
S11320B0BF92CF92DF92EF92FF920F931F93CF9331
S11320C0DF933C011B015A012901CA01DADB6C01CF
S11320D0892B61F086E290E0D4DBEC01892B19F0C6
S11320E0D88ECF8A05C0C601D8DB02C0C0E0D0E0DC
S11320F0209781F0950140E050E0812C912C5E0105
S11321006701E02E8201B101C30168DECE0102DF66
S113211081E001C08FEFDF91CF911F910F91FF906C
S1132120EF90DF90CF90BF90AF909F908F907F9073
S11321306F905F904F903F902F900895EF92FF9291
S11321400F930F2EF3E8EF2EF1E0FF2EF02D00E0B9
S113215020E030E045E550E06DE671E087E090E195
S11321609EDF813079F4F8948FEF9FEF909386018E
S11321708093850181E080938B0110928E011092EF
S11321808D019DDA0F91FF90EF9008958091820167
S11321908F5F809382010895DF92EF92FF920F93F5
S11321A01F93CF93DF9380918201811193C0E090BC
S11321B08D01F0908E018FEFE81AF80AF0928E01EB
S11321C0E0928D01E114F104B1F48091A5019091A4
S11321D0A6012091A3013091A4013093A60120937C
S11321E0A5019093A4018093A301809188018F5F3E
S11321F080938801C9DD8091850190918601E8165C
S1132200F90628F4D12C50C0DD24D39401C0D12C7C
S1132210E091A501F091A6018081811107C08FEFA3
S11322209FEF90938601809385013EC0E091A501C4
S1132230F091A6010580F681E02DC681D7818A81BF
S11322409B81E816F90628F4909386018093850112
S11322502BC08E010E5F1F4FC80195D98C899D89B3
S1132260892B19F0CE010C968ED98E8990918C0110
S1132270981710F480938C0190E09C01220F331F77
S1132280220F331F220F331F820F931FB80187546D
S11322909E4F27D99E89E0911302F09114028689FA
S11322A0981708F0B1CFB4CFE0911302F091140263
S11322B0868990E0FC01EE0FFF1FEE0FFF1FEE0F6B
S11322C0FF1F8E0F9F1FFC01E754FE4F8081823059
S11322D040F409C080918A018F5F80938A01D12CD8
S11322E002C0DD24D39480918901882311F0DD2478
S11322F0D3948D2DDF91CF911F910F91FF90EF908B
S1132300DF9008950F931F93CF93DF930FB6F89444
S11323100F92809182018150809382018091820189
S1132320811152C080918F01811130C050C0E09161
S11323309F01F091A001C681D781CE010C9623D9CB
S11323408E010E5F1F4FC8011ED98E8990918C019A
S1132350981710F480938C0190E09C01220F331F96
S1132360220F331F220F331F820F931FB80187548C
S11323709E4FB7D89E89E0911302F091140286898A
S1132380981730F081E08093890102C0C0E0D0E06A
S113239080919A018111CBCFCD2B09F0F5DCC0914E
S11323A08A01CC2351F0F8DE882319F081E0809370
S11323B08901C150C1F710928A0180918901882353
S11323C029F0ABD981E003C080E001C080E00F9028
S11323D00FBEDF91CF911F910F910895CF93DF939B
S11323E0EC01892B31F0D2DE60E0CE0117DE8ADF0A
S11323F001C080E0811101C090D9DF91CF9108958F
S113240080918201882321F081E0809389010895DD
S11324101092890120918C0101C02150822F90E0FB
S1132420FC01EE0FFF1FEE0FFF1FEE0FFF1FE80F63
S1132430F91FE754FE4F3081332379F3AC01440F85
S1132440551F440F551F440F551F480F591FDF01D7
S11324500180F281E02D0280F381E02D1296FC933D
S1132460EE93119744545E4FE417F50729F4428123
S11324705381FD0152834183FC01EE0FFF1FEE0FD8
S1132480FF1FEE0FFF1F8E0F9F1FFC01E754FE4F2F
S11324900180F281E02D86819781909314028093CC
S11324A0130220938C010895CF93DF93EB01609185
S11324B0130270911402645F7F4F34D861E0CE013F
S11324C0ADDDDF91CF9108950F931F93CF93DF93E9
S11324D0DC011596ED91FC911697C681D7818E018A
S11324E0045F1F4FC8014FD88091820181111BC026
S11324F00A501109C80147D88E8990918C01981708
S113250010F480938C0190E09C01220F331F220F62
S1132510331F220F331F820F931FB80187549E4F1E
S11325200E94710A05C0B8018AE991E00E94710A0B
S11325309E89E0911302F09114028689891720F490
S113254081E08093890101C080E0DF91CF911F91E8
S11325500F91089520918801FC01208320918D0121
S113256030918E01328321830895CF93DF930FB688
S1132570F8940F9240918D0150918E01EC012981C4
S11325803A81DA01A21BB30BF881E0918801FE17AE
S113259019F04217530788F4FB0120813181A217F7
S11325A0B30738F42A1B3B0B31832083D3DF80E04D
S11325B005C01182108281E001C081E00F900FBE3E
S11325C0DF91CF91089581E0809389010895A1E27C
S11325D01A2EAA1BBB1BFD010DC0AA1FBB1FEE1F99
S11325E0FF1FA217B307E407F50720F0A21BB30BE4
S11325F0E40BF50B661F771F881F991F1A9469F760
S113260060957095809590959B01AC01BD01CF01BB
S11326100895EE0FFF1F0024001C0BBE0790F691D7
S1132620E02D09940F931F93CF93DF93823091058C
S113263010F482E090E0E0917704F091780420E0D7
S113264030E0A0E0B0E0309719F14081518102817F
S1132650138148175907C8F08417950769F4109730
S113266031F012960C93129713961C9327C0009383
S113267077041093780422C02115310519F042170C
S1132680530718F49A01BD01EF01DF01F801DBCF14
S113269021153105F9F0281B390B2430310580F45C
S11326A08A819B816115710521F0FB0193838283EB
S11326B004C09093780480937704FE01329644C05A
S11326C0FE01E20FF31F8193919322503109398364
S11326D028833AC02091750430917604232B41F469
S11326E02091020130910301309376042093750404
S11326F020910001309101012115310541F42DB7DC
S11327003EB74091040150910501241B350BE09123
S11327107504F0917604E217F307A0F42E1B3F0B27
S11327202817390778F0AC014E5F5F4F241735073F
S113273048F04E0F5F1F50937604409375048193C5
S1132740919302C0E0E0F0E0CF01DF91CF911F91BF
S11327500F910895CF93DF93009709F481C0FC0192
S1132760329713821282A0917704B0917804109763
S113277081F420813181820F931F2091750430915F
S113278076042817390751F5F0937604E09375041D
S113279067C0ED0120E030E0CE17DF0740F44A8146
S11327A05B819E0141155105F1F0EA01F5CFD38318
S11327B0C28340815181840F951FC817D90759F4EA
S11327C088819981840F951F0296918380838A81E1
S11327D09B81938382832115310529F4F093780436
S11327E0E09377043DC0E901FB83EA834991599161
S11327F0C40FD51FEC17FD0761F480819181840F0C
S1132800951F0296E90199838883828193819B8332
S11328108A83E0E0F0E012968D919C9113970097E3
S113282019F0FD01DC01F7CF8D919C9111979D0169
S11328302E5F3F4F820F931F2091750430917604D1
S11328402817390769F4309729F410927804109204
S1132850770402C013821282B0937604A0937504A5
S1132860DF91CF910895DC0101C06D934150504038
S1132870E0F70895FB01DC014150504048F001901D
S11328800D920020C9F701C01D9241505040E0F75D
S11328900895FB0151915523A9F0BF01DC014D912D
S11328A045174111E1F759F4CD010190002049F099
S11328B04D9140154111C9F3FB014111EFCF81E066
S10D28C090E001970895F894FFCF0B
S11328CA000079042000060E38010100000001000E
S11328DA000000030100010100802500000000003F
S11328EA030100010000802500004F4B00455252AD
S11328FA4F5200244750524D4300244750474C4CF2
S113290A2C00436865636B436F6E6E656374696F0D
S113291A6E004750534C6F636174696F6E00524680
S113292A4944417474656E64616E63650049444C3C
S105293A450052
S9030000FC
