S020000047726164756174696F6E436F6E74726F6C6C6572536964652E737265634D
S113000076C000003BC4000064C400008DC400003E
S1130010B6C40000DFC4000008C5000031C50000FC
S11300205AC5000082C0000080C000007EC00000ED
S11300305DC700007AC0000078C0000076C00000F0
S113004074C0000072C0000070C000006EC00000E8
S11300506CC000006AC0000068C0000066C00000F8
S113006064C0000062C0000060C000005EC0000008
S11300705CC000005AC0000059C0000056C0000017
S113008054C0000052C0000050C000001B022902EE
S1130090370245025302610271028C029902A602E0
S11300A0B302C002CD02DC0201030F031D032B03C4
S11300B039034703570371037E038B039803A50396
S11300C0B203C103D803DA03DC03DE03E003E20373
S11300D0E503F003F203F403F603F803FA03FD0364
S11300E00904100417041E0425042C0435041124E7
S11300F01FBECFEFD0E1DEBFCDBF11E0A0E0B1E085
S1130100E8E9F8E100E00BBF02C007900D92A033CC
S1130110B107D9F724E0A0E3B1E001C01D92A439EE
S1130120B207E1F759D10C944A0C6ACF1F920F928F
S11301300FB60F9211240BB60F928F939F93EF93E8
S1130140FF9390919C0090938D0480918E04E82FEE
S1130150F0E0E756FD4F90838F5F80938E04FF910C
S1130160EF919F918F910F900BBE0F900FBE0F9048
S11301701F90189561E082E148D18FE39FE10197D8
S1130180F1F700C0000060E082E13FD18FE39FE11E
S11301900197F1F700C000000895CF93C82F809114
S11301A00801883281F0883309F560E080E12DD1BF
S11301B06C2F80E0F5D2DEDF8FE99FE00197F1F745
S11301C000C0000013C060E080E11FD16C2F629575
S11301D06F7080E015D3CEDF6C2F80E011D3CADFBF
S11301E08FE99FE00197F1F700C00000CF910895D7
S11301F0CF93DF936FEF80E0EBD261E082E1EBD14C
S113020061E080E1E8D161E081E1E5D12FEF83ECA9
S113021099E0215080409040E1F700C0000060E088
S113022081E1F3D080910801883221F1883309F00B
S11302304BC0B3DF8FE99FE00197F1F700C00000E6
S1130240C6E0D1E08981A9DF8FE99FE00197F1F74A
S113025000C0000081E0A1DF8FE39CE90197F1F782
S113026000C00000888199DF8FE99FE00197F1F7D2
S113027000C0000082E091DF8FE39CE90197F1F771
S113028000C00000C6E0D1E08A8187DF8FE99FE0EB
S11302900197F1F700C0000089817FDF8FE99FE0BB
S11302A00197F1F700C0000081E077DF8FE39CE95C
S11302B00197F1F700C0000088816FDF8FE99FE0AC
S11302C00197F1F700C00000DF91CF910895CF931B
S11302D0C82F8FEF860F8430D8F44423D9F04131EE
S11302E0D8F4623061F018F4613031F017C0633033
S11302F049F0643051F012C08FE7840F10C08FEBC7
S1130300840F0DC08FE8840F0AC08FEC840F07C0E0
S113031080E005C080E003C080E001C080E03DDFF4
S113032080910801883281F0883309F561E080E129
S11303306CD06C2F80E034D21DDF8FE99FE00197F1
S1130340F1F700C0000013C061E080E15ED06C2FC3
S113035062956F7080E054D20DDF6C2F80E050D234
S113036009DF8FE99FE00197F1F700C00000CF910A
S113037008950F931F93CF93DF93EC01062F142F4F
S113038005C0412F602FA3DF1F5F21968881811153
S1130390F8CFDF91CF911F910F91089581E0FDCEA9
S11303A00895FCDF41E061E089E091E0E2DF2FEFB6
S11303B083ED90E3215080409040E1F700C00000BD
S11303C0F0CFECDF41E061E084E191E0D2DF80ED49
S11303D097E00E94BA0AF5CF0BDFE12CF12C08E07C
S11303E020E030E045E550E06FE171E081ED91E01F
S11303F022D703E020E030E045E550E065E271E01B
S113040081EE91E018D766D7FFCFE82FE695E69501
S1130410E6958770662321F0613009F472C008956F
S11304204E2F50E04730510508F0D4C0FA01EA5B82
S1130430FF4F0C94200B4BB321E030E0B90102C014
S1130440660F771F8A95E2F7CB01809584238BBBD7
S1130450089548B321E030E0B90102C0660F771F68
S11304608A95E2F7CB018095842388BB089545B330
S113047021E030E0B90102C0660F771F8A95E2F7E8
S1130480CB018095842385BB089542B321E030E0FD
S1130490B90102C0660F771F8A95E2F7CB018095F8
S11304A0842382BB089543B121E030E0B90102C046
S11304B0660F771F8A95E2F7CB018095842383B971
S11304C00895E2E6F0E0408121E030E0B90102C0A5
S11304D0660F771F8A95E2F7CB018095842380838A
S11304E00895E5E6F0E0408121E030E0B90102C082
S11304F0660F771F8A95E2F7CB018095842380836A
S113050008954E2F50E04730510508F063C0FA01BA
S1130510E35BFF4F0C94200B4BB321E030E0B901B7
S113052002C0660F771F8A95E2F7CB01842B8BBB41
S1130530089548B321E030E0B90102C0660F771F87
S11305408A95E2F7CB01842B88BB089545B321E05B
S113055030E0B90102C0660F771F8A95E2F7CB013C
S1130560842B85BB089542B321E030E0B90102C079
S1130570660F771F8A95E2F7CB01842B82BB08951F
S113058043B121E030E0B90102C0660F771F8A95BC
S1130590E2F7CB01842B83B90895E2E6F0E04081D1
S11305A021E030E0B90102C0660F771F8A95E2F7B7
S11305B0CB01842B80830895E5E6F0E0408121E0BF
S11305C030E0B90102C0660F771F8A95E2F7CB01CC
S11305D0842B80830895E82FE695E695E695877049
S11305E0662321F0613009F472C008954E2F50E063
S11305F04730510508F0D3C0FA01EC5AFF4F0C9470
S1130600200B4AB321E030E0B90102C0660F771F26
S11306108A95E2F7CB01809584238ABB089547B37A
S113062021E030E0B90102C0660F771F8A95E2F736
S1130630CB018095842387BB089544B321E030E047
S1130640B90102C0660F771F8A95E2F7CB01809546
S1130650842384BB089541B321E030E0B90102C092
S1130660660F771F8A95E2F7CB018095842381BBBF
S1130670089542B121E030E0B90102C0660F771F4E
S11306808A95E2F7CB018095842382B90895E1E647
S1130690F0E0408121E030E0B90102C0660F771F2D
S11306A08A95E2F7CB018095842380830895E4E65C
S11306B0F0E0408121E030E0B90102C0660F771F0D
S11306C08A95E2F7CB0180958423808308954E2F89
S11306D050E04730510508F062C0FA01E55AFF4F77
S11306E0AFC74AB321E030E0B90102C0660F771FFB
S11306F08A95E2F7CB01842B8ABB089547B321E0A6
S113070030E0B90102C0660F771F8A95E2F7CB018A
S1130710842B87BB089544B321E030E0B90102C0C3
S1130720660F771F8A95E2F7CB01842B84BB08956B
S113073041B321E030E0B90102C0660F771F8A950A
S1130740E2F7CB01842B81BB089542B121E030E074
S1130750B90102C0660F771F8A95E2F7CB01842B9B
S113076082B90895E1E6F0E0408121E030E0B9018A
S113077002C0660F771F8A95E2F7CB01842B808332
S11307800895E4E6F0E0408121E030E0B90102C0E0
S1130790660F771F8A95E2F7CB01842B8083089537
S11307A090E08730910598F4FC01EE59FF4F48C75B
S11307B06BBB089568BB089565BB089562BB08953B
S11307C063B9089560936200089560936500089585
S11307D090E08730910598F4FC01E759FF4F30C74A
S11307E06ABB089567BB089564BB089561BB08950F
S11307F062B9089560936100089560936400089558
S1130800607F90E087309105C0F5FC01E059FF4F0F
S113081017C78BB38F708BBB8BB3682B6BBB0895DF
S113082088B38F7088BB88B3682B68BB089585B381
S11308308F7085BB85B3682B65BB089582B38F70B9
S113084082BB82B3682B62BB089583B18F7083B976
S113085083B1682B63B90895E2E6F0E080818F707C
S113086080838081682B60830895E5E6F0E08081D1
S11308708F7080838081682B608308951F920F920C
S11308800FB60F9211240BB60F922F933F934F93F1
S11308905F936F937F938F939F93AF93BF93EF93E4
S11308A0FF93E0913E01F0913F010995FF91EF9193
S11308B0BF91AF919F918F917F916F915F914F9174
S11308C03F912F910F900BBE0F900FBE0F901F9072
S11308D018951F920F920FB60F9211240BB60F9218
S11308E02F933F934F935F936F937F938F939F9334
S11308F0AF93BF93EF93FF93E0913C01F0913D01DF
S11309000995FF91EF91BF91AF919F918F917F9145
S11309106F915F914F913F912F910F900BBE0F906C
S11309200FBE0F901F9018951F920F920FB60F9243
S113093011240BB60F922F933F934F935F936F93B2
S11309407F938F939F93AF93BF93EF93FF93E09124
S11309503A01F0913B010995FF91EF91BF91AF915D
S11309609F918F917F916F915F914F913F912F91C3
S11309700F900BBE0F900FBE0F901F9018951F92F3
S11309800F920FB60F9211240BB60F922F933F9331
S11309904F935F936F937F938F939F93AF93BF9383
S11309A0EF93FF93E0913801F09139010995FF919C
S11309B0EF91BF91AF919F918F917F916F915F91D3
S11309C04F913F912F910F900BBE0F900FBE0F9040
S11309D01F9018951F920F920FB60F9211240BB609
S11309E00F922F933F934F935F936F937F938F93C4
S11309F09F93AF93BF93EF93FF93E0913601F091F0
S1130A0037010995FF91EF91BF91AF919F918F911C
S1130A107F916F915F914F913F912F910F900BBEFA
S1130A200F900FBE0F901F9018951F920F920FB644
S1130A300F9211240BB60F922F933F934F935F9312
S1130A406F937F938F939F93AF93BF93EF93FF9392
S1130A50E0913401F09135010995FF91EF91BF9137
S1130A60AF919F918F917F916F915F914F913F9142
S1130A702F910F900BBE0F900FBE0F901F901895E3
S1130A801F920F920FB60F9211240BB60F922F9351
S1130A903F934F935F936F937F938F939F93AF9302
S1130AA0BF93EF93FF93E0913201F09133010995E5
S1130AB0FF91EF91BF91AF919F918F917F916F9132
S1130AC05F914F913F912F910F900BBE0F900FBEEE
S1130AD00F901F9018951F920F920FB60F9211242A
S1130AE00BB60F922F933F934F935F936F937F9324
S1130AF08F939F93AF93BF93EF93FF93E091300154
S1130B00F09131010995FF91EF91BF91AF919F91C0
S1130B108F917F916F915F914F913F912F910F90A2
S1130B200BBE0F900FBE0F901F901895FC010396FB
S1130B30928381832FEF3FEF3483238396838583CE
S1130B409087878310820895FC011186108608958A
S1130B50CF93DF939C01FB01DC011196CD91DC91D5
S1130B601297D383C2838C819D81958384838C81E6
S1130B709D81DC0113967C936E9312977D836C8325
S1130B8031872087F90180818F5F8083DF91CF9146
S1130B900895CF93DF93EB01488159814F3F2FEFA5
S1130BA0520721F4FC01A781B0850DC0DC01139626
S1130BB001C0DF011296ED91FC91139720813181E0
S1130BC042175307B0F71296ED91FC911397FB83EC
S1130BD0EA83D583C483BD83AC831396DC93CE931D
S1130BE0129799878887FC0120812F5F2083DF91EA
S1130BF0CF910895CF93DF93FC01A085B185C28185
S1130C00D381848195819D838C83C481D5818281A4
S1130C1093819B838A8311968D919C911297E817F7
S1130C20F90731F48481958112969C938E931197E0
S1130C30118610868C9181508C938C91DF91CF9189
S1130C4008951BBC89EF8ABD8BE08EBD87B7806198
S1130C5087BF089531E1FC013083319722E220837C
S1130C603197A3E3A08331976083319770833197E1
S1130C701082319760E8608331971082319762E087
S1130C806083319763E06083319764E060833197D8
S1130C9065E06083319766E06083319767E0608345
S1130CA0319768E06083319769E06083319760E150
S1130CB0608331973083319732E13083319733E168
S1130CC03083319734E13083319735E13083319784
S1130CD036E13083319737E13083319738E130831F
S1130CE0319739E13083319730E23083319731E203
S1130CF0308331972083319723E2208331974083D7
S1130D0031975083319726E22083319727E220835D
S1130D10319728E22083319729E22083319720E319
S1130D202083319721E32083869708958ADFA09159
S1130D309702B0919802CD91CDBFDD91DEBFFF91B6
S1130D40EF91DF91CF91BF91AF919F918F917F915F
S1130D506F915F914F913F912F911F910F91FF9050
S1130D60EF90DF90CF90BF90AF909F908F907F9047
S1130D706F905F904F903F902F901F900F900FBEF9
S1130D800F90089581E008950F920FB6F8940F9292
S1130D901F9211242F923F924F925F926F927F92F3
S1130DA08F929F92AF92BF92CF92DF92EF92FF9277
S1130DB00F931F932F933F934F935F936F937F935F
S1130DC08F939F93AF93BF93CF93DF93EF93FF934F
S1130DD0A0919702B09198020DB60D920EB60D92A5
S1130DE0DBD3A0919702B0919802CD91CDBFDD9154
S1130DF0DEBFFF91EF91DF91CF91BF91AF919F91B2
S1130E008F917F916F915F914F913F912F911F919E
S1130E100F91FF90EF90DF90CF90BF90AF909F9095
S1130E208F907F906F905F904F903F902F901F9086
S1130E300F900FBE0F9008950F920FB6F8940F9273
S1130E401F9211242F923F924F925F926F927F9242
S1130E508F929F92AF92BF92CF92DF92EF92FF92C6
S1130E600F931F932F933F934F935F936F937F93AE
S1130E708F939F93AF93BF93CF93DF93EF93FF939E
S1130E80A0919702B09198020DB60D920EB60D92F4
S1130E904FD2811181D3A0919702B0919802CD9144
S1130EA0CDBFDD91DEBFFF91EF91DF91CF91BF9177
S1130EB0AF919F918F917F916F915F914F913F91EE
S1130EC02F911F910F91FF90EF90DF90CF90BF90E3
S1130ED0AF909F908F907F906F905F904F903F90D6
S1130EE02F901F900F900FBE0F900895A5DF1895B7
S1130EF0CF93DF93EC0116D2CE01ABD3EC01CED26B
S1130F00CE01DF91CF910895CF93DF93009729F01D
S1130F10EC0108D2CE0135D4C1D2DF91CF9108952E
S1130F20E0916301F09164018081811107C08FEF2A
S1130F309FEF90934401809343010895E0916301EE
S1130F40F09164010580F681E02D0680F781E02DA3
S1130F508281938190934401809343010895CF93B8
S1130F60DF93EC018F89988DCFDFCE01CDDFDF9148
S1130F70CF9108956F927F928F929F92AF92BF927A
S1130F80CF92DF92EF920F931F93CF93DF93CDB75E
S1130F90DEB74C01F5018789908D215031093C0160
S1130FA0620E731E6115710589F416C0822F90E0DC
S1130FB0FB01E80FF91F3081D501A80FB91F59961D
S1130FC03C938081882329F02F5F01C020E02830E2
S1130FD068F3F50110A202C0F501118EFFE1FE15C0
S1130FE020F40F2EFFE1EF2EF02DF501E68AC50166
S1130FF00296AADDC5010C96A7DDF501B186A0868F
S113100080E290E08E19910995878487B38AA28A39
S113101011A212A213A214A215A2A801B401C30121
S113102019DEF50191838083C114D10419F0F6010E
S1131030B182A082DF91CF911F910F91EF90DF9049
S1131040CF90BF90AF909F908F907F906F900895B6
S1131050CF93C0E00FC08C2F90E09C01220F331F70
S1131060220F331F220F331F820F931F89589E4F65
S11310705DDDCF5FC03278F38EE691E057DD85E623
S113108091E054DD88E591E051DD8FE491E04EDD9F
S11310908EE691E0909364018093630185E691E08C
S11310A09093620180936101CF910895CF93DF9370
S11310B0EC010FB6F8940F9280914D018F5F8093ED
S11310C04D018091970290919802892B51F4D0930D
S11310D09802C093970280914D01813091F4B8DF5A
S11310E010C08091490181110CC0E0919702F091E8
S11310F0980296898E89891720F0D0939802C0931C
S11311009702809145018F5F809345018E8990916C
S11311104A01981710F480934A0190E09C01220F31
S1131120331F220F331F220F331F820F931FBE0161
S11311306E5F7F4F89589E4F0BDD0F900FBE8091DD
S11311404901882349F0E0919702F0919802968929
S11311508E89981708F418DEDF91CF910895CF9304
S1131160DF931AC00FB6F8940F92E0915401F091F6
S11311705501C681D781CE0102963CDD80914D0197
S1131180815080934D0180914E01815080934E0196
S11311900F900FBECE01E3DE80914E018111E2CFAC
S11311A0DF91CF910895DBDF809177018230D8F30E
S11311B0EBDDF9CF0F931F93CF93DF93EC010091F5
S11311C04B0110914C0180919702909198020296E4
S11311D011DDC00FD11FE0919702F0919802D383E3
S11311E0C283C017D10760F460919702709198028E
S11311F080916101909162016E5F7F4FCADC16C0DD
S113120060919702709198028091630190916401BA
S11312106E5F7F4FBEDC8091430190914401C817FB
S1131220D90720F4D0934401C0934301DF91CF91B7
S11312301F910F9108952F923F924F925F926F9258
S11312407F928F929F92AF92BF92CF92DF92EF9252
S1131250FF920F931F93CF93DF933C011B015A011D
S11312602901CA0145DE6C01892B61F086E290E018
S11312703FDEEC01892B19F0D88ECF8A05C0C60158
S113128043DE02C0C0E0D0E0209781F0950140E049
S113129050E0812C912C5E016701E02E8201B101A6
S11312A0C30168DECE0102DF81E001C08FEFDF9170
S11312B0CF911F910F91FF90EF90DF90CF90BF904F
S11312C0AF909F908F907F906F905F904F903F90E2
S11312D02F900895EF92FF920F930F2EF1E4EF2ECB
S11312E0F1E0FF2EF02D00E020E030E045E550E095
S11312F06BE271E083ED98E09EDF813079F4F8943D
S11313008FEF9FEF909344018093430181E080939A
S1131310490110924C0110924B0108DD0F91FF908E
S1131320EF900895809140018F5F8093400108956C
S1131330DF92EF92FF920F931F93CF93DF938091ED
S11313404001811193C0E0904B01F0904C018FEF6C
S1131350E81AF80AF0924C01E0924B01E114F1040E
S1131360B1F4809163019091640120916101309105
S1131370620130936401209363019093620180932E
S11313806101809146018F5F80934601C9DD8091A0
S1131390430190914401E816F90628F4D12C50C079
S11313A0DD24D39401C0D12CE0916301F091640158
S11313B08081811107C08FEF9FEF90934401809348
S11313C043013EC0E0916301F09164010580F68120
S11313D0E02DC681D7818A819B81E816F90628F41D
S11313E090934401809343012BC08E010E5F1F4FE5
S11313F0C80100DC8C899D89892B19F0CE010C96DB
S1131400F9DB8E8990914A01981710F480934A0170
S113141090E09C01220F331F220F331F220F331F32
S1131420820F931FB80189589E4F92DB9E89E091E9
S11314309702F09198028689981708F0B1CFB4CF3B
S1131440E0919702F0919802868990E0FC01EE0FFA
S1131450FF1FEE0FFF1FEE0FFF1F8E0F9F1FFC01DC
S1131460E958FE4F8081823040F409C080914801E0
S11314708F5F80934801D12C02C0DD24D3948091E6
S11314804701882311F0DD24D3948D2DDF91CF9172
S11314901F910F91FF90EF90DF9008950F931F938A
S11314A0CF93DF930FB6F8940F928091400181504F
S11314B08093400180914001811152C080914D017F
S11314C0811130C050C0E0915D01F0915E01C68190
S11314D0D781CE010C968EDB8E010E5F1F4FC801A3
S11314E089DB8E8990914A01981710F480934A0100
S11314F090E09C01220F331F220F331F220F331F52
S1131500820F931FB80189589E4F22DB9E89E09178
S11315109702F09198028689981730F081E08093C1
S1131520470102C0C0E0D0E0809158018111CBCFC7
S1131530CD2B09F0F5DCC0914801CC2351F0F8DE45
S1131540882319F081E080934701C150C1F71092BC
S1131550480180914701882329F016DC81E003C00B
S113156080E001C080E00F900FBEDF91CF911F910A
S11315700F910895CF93DF93EC01892B31F0D2DEE4
S113158060E0CE0117DE8ADF01C080E0811101C076
S1131590FBDBDF91CF91089580914001882321F0F6
S11315A081E08093470108951092470120914A01F8
S11315B001C02150822F90E0FC01EE0FFF1FEE0FBF
S11315C0FF1FEE0FFF1FE80FF91FE958FE4F308190
S11315D0332379F3AC01440F551F440F551F440FB7
S11315E0551F480F591FDF010180F281E02D028051
S11315F0F381E02D1296FC93EE93119746585E4FBB
S1131600E417F50729F442815381FD015283418394
S1131610FC01EE0FFF1FEE0FFF1FEE0FFF1F8E0FDB
S11316209F1FFC01E958FE4F0180F281E02D868165
S11316309781909398028093970220934A0108958A
S1131640EE0FFF1F0024001C0BBE0790F691E02D47
S113165009940F931F93CF93DF938230910510F475
S113166082E090E0E0919204F091930420E030E075
S1131670A0E0B0E0309719F14081518102811381DB
S113168048175907C8F08417950769F4109731F083
S113169012960C93129713961C9327C000939204EE
S11316A01093930422C02115310519F042175307F2
S11316B018F49A01BD01EF01DF01F801DBCF211518
S11316C03105F9F0281B390B2430310580F48A8167
S11316D09B816115710521F0FB019383828304C012
S11316E09093930480939204FE01329644C0FE01C9
S11316F0E20FF31F81939193225031093983288398
S11317003AC02091900430919104232B41F420910C
S113171002013091030130939104209390042091AD
S11317200001309101012115310541F42DB73EB777
S11317304091040150910501241B350BE091900464
S1131740F0919104E217F307A0F42E1B3F0B281726
S1131750390778F0AC014E5F5F4F2417350748F026
S11317604E0F5F1F50939104409390048193919383
S113177002C0E0E0F0E0CF01DF91CF911F910F9123
S11317800895CF93DF93009709F481C0FC01329749
S113179013821282A0919204B0919304109781F461
S11317A020813181820F931F209190043091910404
S11317B02817390751F5F0939104E093900467C01A
S11317C0ED0120E030E0CE17DF0740F44A815B8171
S11317D09E0141155105F1F0EA01F5CFD383C2838F
S11317E040815181840F951FC817D90759F4888106
S11317F09981840F951F0296918380838A819B81AE
S1131800938382832115310529F4F0939304E093A3
S113181092043DC0E901FB83EA8349915991C40FC5
S1131820D51FEC17FD0761F480819181840F951F0A
S11318300296E90199838883828193819B838A83B9
S1131840E0E0F0E012968D919C911397009719F0C7
S1131850FD01DC01F7CF8D919C9111979D012E5FC5
S11318603F4F820F931F20919004309191042817C9
S1131870390769F4309729F4109293041092920472
S113188002C013821282B0939104A0939004DF915A
S10B1890CF910895F894FFCFF5
S1131898000094042000060E3849276D2054617313
S11318A86B20310049276D205461736B203200543A
S11318B861736B31005461736B320049444C4500C9
S9030000FC
